:100000000C94B3050C947C300C94D2050C94D2055E
:100010000C94D2050C94D2050C94D2050C94D20504
:100020000C94D2050C941F300C94D2050C94D2057C
:100030000C94D2050C94D2050C94D2050C949B2FF1
:100040000C949B2F0C94D2050C94D2050C94D205E1
:100050000C94D2050C94D2050C94D2050C94D205C4
:100060000C94D2050C94D2050C94D2050C94D205B4
:100070000C94D2050C94D2050C94D2050C94D205A4
:100080000C94D2050C94D2050C94D205601E661E09
:10009000691E6C1E6F1E721E781E751E7B1E7E1ED4
:1000A000811E8A1E8D1E901E931E871E5D1E631E5E
:1000B000961E991E841E5A1E08000000BE922449F6
:1000C000123EABAAAA2ABECDCCCC4C3E000000808A
:1000D000BEABAAAAAA3E00000000BF000000803FFD
:1000E0000000000000084178D3BB4387D1133D19BD
:1000F0000E3CC3BD4282AD2B3E68EC8276BED98FEA
:10010000E1A93E4C80EFFFBE01C4FF7F3F0000002D
:10011000000007634236B79BD8A71A39685618AE55
:10012000BAAB558C1D3CB7CC5763BD6DEDFD753E2C
:10013000F6177231BF000000803F5461736B3220AC
:1001400072656C65617365642073656D6170686F5D
:1001500072650D0A005432206572726F7220706FE2
:1001600073740D0A005461736B3220686F6C64699C
:100170006E672073656D6170686F72650D0A00545B
:1001800032206572726F722070656E640D0A0054C1
:1001900061736B3220616363657373696E6720738B
:1001A000656D6170686F72650D0A005461736B3123
:1001B0002072656C65617365642073656D6170683C
:1001C0006F72650D0A005431206572726F72207073
:1001D0006F73740D0A005461736B3120686F6C6427
:1001E000696E672073656D6170686F72650D0A00D6
:1001F0005431206572726F722070656E640D0A0052
:100200005461736B3120616363657373696E67203A
:1002100073656D6170686F72650D0A004572726F6B
:1002200072206372656174696E672073656D0D0A73
:10023000000D0A4E616E6F2D524B205461736B207E
:10024000537461746973746963733A0D0A000D0A1B
:10025000000D0A2020204F766572666C6F7720456E
:1002600072726F72205374617475733A20000D0AB4
:100270002020204B65726E656C2056696F6C61742E
:10028000696F6E733A20000D0A2020205072656558
:100290006D7074696F6E733A20000D0A2020205330
:1002A0007761702D696E733A20000D0A202020546A
:1002B000696D65205B4D696E2C4C6173742C4D61CA
:1002C000785D3A20000D0A202020546F74616C2064
:1002D0004350553A20000D0A20202049646C6520C7
:1002E0005461736B204465657020536C65657020A4
:1002F00054696D653A20000D0A202020546F746106
:100300006C2053797374656D20557074696D653A0E
:100310002000205461736B2049443A2000554E4B15
:100320004F574E0045787465726E616C205265734C
:1003300065740042726F776E204F75742044657447
:10034000656374004661696C656420746F20637234
:10035000656174652053656D6170686F72650046F4
:1003600061696C656420746F2063726561746520D7
:100370005369676E616C004B65726E656C206675C3
:100380006E6374696F6E206E6F7420696D706C653A
:100390006D656E74656400446576696365204472BA
:1003A00069766572204572726F7200576174636876
:1003B000646F6720526573746172740053572057DD
:1003C00061746368646F672052657374617274004E
:1003D00054696D6572204F766572666C6F77005553
:1003E0006E68616E646C656420496E7465727275C6
:1003F000707420566563746F72004C6F7720566F6F
:100400006C74616765004578747261205461736B28
:1004100020737461727465642C206973206E726B32
:100420005F6366672E68206F6B3F0049646C6520D0
:100430006F72204B65726E656C20537461636B2024
:100440004F766572666C6F7700556E657870656380
:100450007465642052657374617274004475706CC5
:10046000696361746564205461736B20494400536F
:1004700063686564756C6572204D6973736564208B
:1004800057616B657570005461736B2052657365BD
:100490007276652056696F6C61746564005265738D
:1004A00065727665204572726F7220696E205363A3
:1004B000686564756C657200496E76616C6964206C
:1004C000537461636B20506F696E74657200546180
:1004D000736B20537461636B204F766572666C6F2B
:1004E0007700537461636B20776173206E6F7420A3
:1004F000646566696E6564206173206C617267650E
:1005000020656E6F75676821005461736B2070659C
:1005100072696F6420746F6F206C617267652E2042
:10052000506572696F64206D757374206265206C0C
:10053000657373207468616E203631207365636F54
:100540006E64732E00293A20002A4E524B204552E9
:10055000524F5228000D0A535441434B2044554DED
:10056000500D0A0008082A1C08081C2A08084044E4
:100570004A514040514A444014741C171410207FC3
:10058000010100000000000000000000081C2C0811
:10059000087F01010101010101017F7F40404040CE
:1005A000404040407F0000000000000000000000CC
:1005B0000000000079112711790000000000000000
:1005C00000000000000000007F01010103605048AE
:1005D000447E3E4949493E700C030C7063494949C9
:1005E00063017F017F01635549414106017E010698
:1005F00008557F55080F107F100F4E7101714E384E
:1006000044443844000000000000005F0000030084
:10061000030000143E143E1426497F493262152A15
:10062000542336495620500003000000001C22418C
:10063000000041221C0000140E140008083E0808A7
:10064000006000000008080808000040000000608A
:10065000100804033E4141413E04027F0000625104
:1006600049454222414949360C0B087E084F494909
:1006700049313E4949493261110905033649494921
:1006800036264949493E0022000000006100000072
:100690000814142222141414141422221414080608
:1006A000015905023E415D555E7E0909097E7F497B
:1006B0004949363E414141227F4141413E7F4949BE
:1006C00049417F090909013E414949327F0808082B
:1006D0007F00007F0000204040403F7F08142241FF
:1006E0007F404040007F0204027F7F021C207F3E4B
:1006F0004141413E7F090909063E4151617E7F0922
:10070000192946264949493201017F01013F4040EC
:10071000403F1F2040201F3F4030403F63140814DB
:1007200063030478040361514945437F410000009D
:100730000000000000000000417F060106000040AC
:1007400040404040010200000020545454787F484B
:100750004848303844444428384444447F3854544A
:100760005418087E0909010C5252523E7F040404B9
:1007700078047D404020204040443D007F102844C4
:10078000203E5149467C047C04787C080404783877
:10079000444444387E1212120C0C1212127E047859
:1007A0000404084854545424043F4444403C40400A
:1007B0003C401C2040201C3C4030403C4428102839
:1007C00044264848483E4464544C4400083E410096
:1007D00000007F000000413E080000000000000013
:1007E0000000000000000000000000000000000009
:1007F00000000020483E0902000000000000000048
:10080000000004047F040400000000000000000059
:1008100000000000000000000000000000000000D8
:1008200000000000000000000000000000000000C8
:1008300000000000000000000000000000000000B8
:10084000000000020401020000000000000018186F
:100850000000000000000000000000000000000098
:100860000000000000000000000000000000000088
:100870000000000000000000000000000000000078
:1008800000000000000000000000007900000000EF
:10089000000000487E494942000000000015167C17
:1008A000161500000000000A5555552800010001EA
:1008B000003E635D6B3E000000000008142A142215
:1008C000000000000000000000003E41754B3E01AA
:1008D000010101010002050200000000000000000B
:1008E0000000000000000000000000000000000008
:1008F0000000060F7F017F000000000000000000E4
:10090000000000000000070507000022142A140858
:100910000F003C20780F00486458000000000030B1
:1009200048454020000000000000000000000000DA
:100930000000007229292A717825242578702A253B
:100940002A707E097F49490E515171110000000043
:10095000007C5456554400000000000000000000D8
:100960000000000000000000000000000000000087
:100970000000000000000000007A09112279000048
:10098000000000000000000000000000003A4545A3
:1009900046393D4242423D22140814225C322A2646
:1009A0001D0000000000000000000000000000002A
:1009B0003C4140413C0000000000000000000000FD
:1009C0000000000020555654782054565578205683
:1009D00055567822515556792055545578000000C7
:1009E000000024547854580C525272123855565400
:1009F00018385456551838565556183855545518F1
:100A000000497A400000487A4100004A79420000DB
:100A10004A78420000000000007A11090A7130494A
:100A20004A483030484A4930304A494A30324949C8
:100A30004A31304A484A3008082A080818643C26D7
:100A40001838414220783840422178384241227893
:100A50003842402278000000000000000000000C36
:100A60005150513C6E616E00696E660000407A1014
:100A7000F35A00A0724E18090010A5D4E80000E84F
:100A80007648170000E40B54020000CA9A3B0000AD
:100A900000E1F505000080969800000040420F003C
:100AA0000000A08601000000102700000000E803FD
:100AB000000000006400000000000A0000000000C8
:100AC0000100000000002C76D888DC674F0823DF87
:100AD000C1DFAE59E1B1B796E5E3E453C63AE6515A
:100AE000997696E8E6C28426EB898C9B62ED407C81
:100AF0006FFCEFBC9C9F40F2BAA56FA5F490055A1D
:100B00002AF75C936B6CF9676DC11BFCE0E40D4741
:100B1000FEF520E6B500D0ED902E03009435770564
:100B20000080841E080000204E0A000000C80C331C
:100B30003333330F986E12831141EF8D2114893BAB
:100B4000E65516CFFEE6DB18D1844B381BF77C1D2B
:100B5000901DA4BBE424203284725E228100C9F17E
:100B600024ECA1E53D2711241FBECFEFD0E1DEBF6D
:100B7000CDBF13E0A0E0B1E0E4E7FDE900E00BBF8A
:100B800002C007900D92A835B107D9F718E0A8E583
:100B9000B3E001C01D92A330B107E1F70E9409083C
:100BA0000C94B84E0C94712F0F931F93CF93DF9337
:100BB0000E94E72700D000D0EDB7FEB7319620E0C5
:100BC00031E0ADB7BEB712963C932E931197828356
:100BD00013820E946D4C0F900F900F900F90C0E009
:100BE000D0E00FE011E000D000D0EDB7FEB71283E7
:100BF0000183D483C3830E946D4C0F900F900F909C
:100C00000F9080EA96E80E94D82E0E9454272196E1
:100C1000EACF1F93CF93DF930E94E72700D000D045
:100C2000EDB7FEB731962EE131E0ADB7BEB7129603
:100C30003C932E931197828313820E946D4C0F90E8
:100C40000F900F900F9010E0CDE2D1E080E090E0A7
:100C50000E94EA1200D000D0EDB7FEB73196ADB7D2
:100C6000BEB71296DC93CE931197128313820E9423
:100C70006D4C0F900F900F900F908FE891E00E94B5
:100C80002F118091EB039091EC030E94EE238F3F94
:100C900021F48FE791E00E942F1185E691E00E94F8
:100CA0002F1180E492E40E94D82E8091EB03909162
:100CB000EC030E948F238F3F21F485E591E00E9491
:100CC0002F118AE391E00E942F110E9454271F5F89
:100CD000BDCF0F931F93CF93DF9300D000D08CE351
:100CE00091E0ADB7BEB712969C938E931197149670
:100CF0001C921E9213970E946D4C0F900F900F90B4
:100D00000F900E94E72700D000D0EDB7FEB73196D4
:100D100026E531E0ADB7BEB712963C932E931197FE
:100D2000828313820E946D4C0F900F900F900F9052
:100D3000C0E0D0E005E611E080E090E00E94EA1219
:100D400000D000D0EDB7FEB712830183D483C383F4
:100D50000E946D4C0F900F900F900F900E9454279F
:100D600080E092E00E942F118091EB039091EC03C0
:100D70000E94EE238F3F21F480EF91E00E942F111B
:100D800086ED91E00E942F110E9454278091EB0381
:100D90009091EC030E948F238F3F21F486EC91E029
:100DA0000E942F118BEA91E00E942F110E9454277C
:100DB0002196C2CFDF92EF92FF920F931F9389E6A5
:100DC00096E09093F4038093F30382E495E090938C
:100DD000F0038093EF0382EC94E09093F20380930E
:100DE000F10382E08093F603DD24D394D092F503DF
:100DF000D092F703D092F8031092F9031092FA03FD
:100E00001092FB031092FC0380E892EBA6EEBEE08A
:100E10008093FD039093FE03A093FF03B09300041F
:100E20001092010410920204109203041092040420
:100E300080E890EFAAEFB2E0809305049093060457
:100E4000A0930704B09308041092090410920A04B6
:100E500010920B0410920C0410920D0410920E04C8
:100E600010920F04109210041092120410921304A6
:100E70001092140410921504D09211048EEE93E097
:100E80000E94702589E096E09093CF058093CE056F
:100E900086E994E09093CB058093CA0586E194E0BF
:100EA0009093CD058093CC0584E08093D105D092BA
:100EB000D005D092D205D092D30582E090E0A0E098
:100EC000B0E08093D4059093D505A093D605B09358
:100ED000D7051092D8051092D9051092DA05109214
:100EE000DB051092DC051092DD051092DE051092F4
:100EF000DF05E12C81EEF82E85EF082F85E0182F15
:100F0000E092E005F092E1050093E2051093E3051D
:100F10001092E4051092E5051092E6051092E7059F
:100F20001092E8051092E9051092EA051092EB057F
:100F30001092ED051092EE051092EF051092F0055B
:100F4000D092EC0589EC95E00E94702584ED95E047
:100F50009093A00480939F048AEE93E090939C0466
:100F600080939B048AE693E090939E0480939D0473
:100F700083E08093A204D092A104D092A304D092E3
:100F8000A4041092A5041092A6041092A704109233
:100F9000A80480E095E6ADECBDE18093A9049093B0
:100FA000AA04A093AB04B093AC041092AD041092C9
:100FB000AE041092AF041092B004E092B104F0922B
:100FC000B2040093B3041093B4041092B5041092C9
:100FD000B6041092B7041092B8041092B90410929B
:100FE000BA041092BB041092BC041092BE0410927A
:100FF000BF041092C0041092C104D092BD048AE9CB
:1010000094E00E9470251F910F91FF90EF90DF9068
:1010100008950E94101387E090E00E945F1384E718
:1010200091E00E947F4C0E944E1480E090E00E946C
:10103000FD128FEF90E00E94FD1281E090E00E948F
:10104000341382E090E00E94FD1260E070E0CB017A
:1010500020E030E0A9010E9458290E94DA0681E0D0
:1010600062E00E94E8229093EC038093EB030097E8
:1010700021F48CE192E00E942F110E94791580E00A
:1010800090E0089590E09C012B503040220F331FD8
:10109000220F331F865A9E4B820F931FF894C098DD
:1010A00028E12FB9779BFECF9FB9779BFECF8FB9F1
:1010B000779BFECFC09A78940895F894C0981FB893
:1010C000779BFECF8FB1C09A789486FFF6CF0895B4
:1010D00080919E010E94421180919D010E94881181
:1010E000089580919E010E94421180919D010E946D
:1010F00042110895F894C09887E08FB9779BFECF8E
:10110000C09AC09886E08FB9779BFECFC09A78943A
:101110000895F894C09881E08FB9779BFECFC09A6C
:1011200088EE93E00E94D82E789408958091060668
:101130000895FC01C09889EC8FB9779BFECF80E8B9
:101140008FB9779BFECF82E08150DF01A80FB11DE0
:101150009C919FB9779BFECF8823B1F7C09AC09826
:101160008BEC8FB9779BFECF80E88FB9779BFECF52
:1011700082E08150DF01A80FB11D12969C91129759
:101180009FB9779BFECF8823A1F7C09A8081809377
:1011900007068181809308068281809309068381F6
:1011A00080930A0608958F929F92AF92BF92CF923A
:1011B000DF92EF92FF920F931F93DF93CF9300D0B4
:1011C00000D0CDB7DEB7E82E092F84E690E00E946C
:1011D000D82EF02E20E031E08E010F5F1F4FF3E09C
:1011E000CF2ED12CCC0EDD1EF70191907F018824EB
:1011F000808190E0882999299A83898384E690E008
:101200002B833C830E94D82EC0982B813C81822F57
:1012100080688FB9779BFECFC90195958795807CB3
:101220008FB9779BFECF5801F80181918FB9779BD9
:10123000FECFEC15FD05C9F7C09A2E5F3F4FF1E0D8
:1012400020313F0789F684E690E00E94D82E20E402
:1012500031E080E191E01A821982C098422F406803
:101260004FB9779BFECFA90155954795407C4FB963
:10127000779BFECFF80141914FB9779BFECFEC15DC
:10128000FD05C9F7C09AC098482F40684FB9779BB1
:10129000FECFAC0155954795407C4FB9779BFECF6B
:1012A000F80141914FB9779BFECFEC15FD05C9F7C9
:1012B000C09A02962E5F3F4F41E08E31940759F657
:1012C00081E090E09A838983C0988EEC8FB9779BF8
:1012D000FECF80E88FB9779BFECFC8010296F80158
:1012E00021912FB9779BFECFE817F907C9F7C09A6C
:1012F000C0988EE98FB9779BFECF80E88FB9779B36
:10130000FECF0E5F1F4FF50181915F018FB9779B73
:10131000FECFA016B106B9F7C09A0F900F900F90AC
:101320000F90CF91DF911F910F91FF90EF90DF9081
:10133000CF90BF90AF909F908F900895C09889E113
:101340008FB9779BFECF83E08FB9779BFECF86E086
:101350008FB9779BFECFC09AC0988AE18FB9779BEF
:10136000FECF8EE08FB9779BFECF8EE08FB9779B53
:10137000FECFC09A81E08093F7050895C09889E177
:101380008FB9779BFECF81E08FB9779BFECF84EC3E
:101390008FB9779BFECFC09A1092F7050895809180
:1013A000F5059091F605089590E08F719070806E2C
:1013B000906AC09825E12FB9779BFECF9FB9779BA4
:1013C000FECF8FB9779BFECFC09A08950E94420846
:1013D00008958091F8059091F90598609093F9052A
:1013E0008093F805C09881E18FB9779BFECF8091FB
:1013F000F9058FB9779BFECF8091F8058FB9779B60
:10140000FECFC09A08958091F8059091F905977FD5
:101410009093F9058093F805C09881E18FB9779B87
:10142000FECF8091F9058FB9779BFECF8091F805AB
:101430008FB9779BFECFC09A089581E0809305060F
:101440008091F8059091F90580619093F90580935A
:10145000F805C09881E18FB9779BFECF8091F9059F
:101460008FB9779BFECF8091F8058FB9779BFECF20
:10147000C09A0895109205068091F8059091F9059B
:101480008F7E9093F9058093F805C09881E18FB91C
:10149000779BFECF8091F9058FB9779BFECF809126
:1014A000F8058FB9779BFECFC09A0895DF93CF934D
:1014B00000D0CDB7DEB79A838983909301068093DD
:1014C000000684EF91E00E94D82EC0988AEE8FB972
:1014D000779BFECF80E88FB9779BFECFFE013196D8
:1014E000CE01039621912FB9779BFECFE817F9071C
:1014F000C9F7C09A84EF91E00E94D82E0F900F9008
:10150000CF91DF910895CF93DF93EC01862FC098A0
:1015100098E09FB9779BFECFC09AC09898E09FB99A
:10152000779BFECFC09A0E944208D093FB05C093E0
:10153000FA05DF91CF910895DF92EF92FF920F931A
:101540001F93DF93CF9300D0CDB7DEB78C01D62E9B
:101550005A8349837901DD9A88EE93E00E949F13B4
:10156000DE9881E090E00E949F13DE9A84E690E08E
:101570000E949F13F894C09881E08FB9779BFECFAB
:10158000C09A82EE92E09093F9058093F805C09896
:1015900081E18FB9779BFECF8091F9058FB9779B59
:1015A000FECF8091F8058FB9779BFECFC09AC09887
:1015B00082E18FB9779BFECF85E08FB9779BFECF15
:1015C0001FB8779BFECFC09AC0988CE18FB9779BEC
:1015D000FECF1FB8779BFECF8FE78FB9779BFECFEB
:1015E000C09AC09889E18FB9779BFECF81E08FB90F
:1015F000779BFECF84EC8FB9779BFECFC09AC098C3
:1016000087E18FB9779BFECF8AE18FB9779BFECFB9
:1016100086E58FB9779BFECFC09A84EF91E00E9458
:10162000D82EC09888EE8FB9779BFECF80E88FB90F
:10163000779BFECFFE013196CE01039621912FB903
:10164000779BFECFE817F907C9F7C09A84EF91E0BE
:101650000E94D82E78948D2D0E9442087894109381
:10166000FB050093FA0589819A819093FF05809389
:10167000FE05F0920106E09200061092FC05109221
:1016800002060E945D08109205061092F70510925E
:1016900006060F900F90CF91DF911F910F91FF9051
:1016A000EF90DF90089581E080930206C09883E078
:1016B0008FB9779BFECFC09AC09888E08FB9779B8F
:1016C000FECFC09A10920B06089581E08093020627
:1016D000C09883E08FB9779BFECFC09AC09888E00E
:1016E0008FB9779BFECFC09A10920B060895109287
:1016F0000206C09886E08FB9779BFECFC09A109201
:101700000B060895BF92CF92DF92EF92FF920F9354
:101710001F93DF93CF9300D00F92CDB7DEB78C012C
:101720006B017A010E946F2FC09888E08FB9779B78
:10173000FECFC09AC09888E08FB9779BFECFC09A41
:101740000E99FECF8499FCCFF894C09889E08FB9A8
:10175000779BFECFC09AC09889E08FB9779BFECF68
:10176000C09AD80112965C911297252F332727FD36
:101770003095BB2440E00AC0D8011396ED91FC914E
:101780001497E80FF91F8081B80E4F5F842F90E007
:10179000821793078CF3545FC0988EE38FB9779BC1
:1017A000FECF5FB9779BFECFC09AF8018681882370
:1017B00019F081E698E802C081E498E89A83898369
:1017C000C0988EE38FB9779BFECFFE013196CE0194
:1017D000039621912FB9779BFECFE817F907C9F738
:1017E000C09AC0988EE38FB9779BFECF8091FC059D
:1017F0008FB9779BFECFC09AC0988EE38FB9779B45
:10180000FECF80E090E0FC01E650FA4F24812FB932
:10181000779BFECF019682309105A9F7C09AC098B8
:101820008EE38FB9779BFECF80E090E0F801E80F60
:10183000F91F20812FB9779BFECF01968230910549
:10184000A9F7C09AC0988EE38FB9779BFECF80E04E
:1018500090E0FC01E650FA4F26812FB9779BFECF2E
:10186000019682309105A9F7C09AC601B7010E947E
:10187000FB2ED80115968C9115978823A9F180919C
:101880000206882331F4C09883E08FB9779BFECF9E
:10189000C09AC0981FB8779BFECF8FB1C09A81FFC6
:1018A000F8CF20E0A5E0EA2EC098EFB8779BFECFF6
:1018B000C09AC0981FB8779BFECFCFB0C09A2F5F59
:1018C000253649F478948091F5059091F6050E94AB
:1018D0008F2380E060C084E690E02B830E949F13FA
:1018E0002B81C3FEE1CF06C0C09884E08FB9779BFF
:1018F000FECFC09AC0988EE38FB9779BFECF40E0B1
:101900000CC0D8011396ED91FC911497E80FF91FC4
:1019100080818FB9779BFECF4F5F842F90E0F801D5
:101920002281332727FD30958217930754F3C09AFD
:10193000C0988EE38FB9779BFECFBFB8779BFECF61
:10194000C09A849BFECFF8948499FECFC09888E01B
:101950008FB9779BFECFC09AC09888E08FB9779BEC
:10196000FECFC09AC09889E08FB9779BFECFC09A0E
:10197000C09889E08FB9779BFECFC09AC09886E067
:101980008FB9779BFECFC09A78948091FC058F5FCA
:101990008093FC0581E00F900F900F90CF91DF9125
:1019A0001F910F91FF90EF90DF90CF90BF9008951F
:1019B000FF920F931F93DF93CF9300D0CDB7DEB785
:1019C000FC018091F705882331F0C0988DE08FB934
:1019D000779BFECFC09A3281432F552747FD509504
:1019E00020E060E007C0A381B481A80FB91F8C91EB
:1019F000280F6F5F862F90E084179507A4F3832F3D
:101A0000845F9091F70591118C5FC09898E09FB921
:101A1000779BFECFC09AC09898E09FB9779BFECF86
:101A2000C09A0E99FECF8499FCCFF894C09899E0A3
:101A30009FB9779BFECFC09AC09899E09FB9779BDA
:101A4000FECFC09AC0989EE39FB9779BFECF8FB917
:101A5000779BFECFC09A81E498E89A83898380912E
:101A60000506882321F081E698E89A83898380918E
:101A7000F705882329F089819A8188609A83898370
:101A8000C0988EE38FB9779BFECFDE011196CE0111
:101A900003963D913FB9779BFECFA817B907C9F7C9
:101AA000C09AC0988EE38FB9779BFECF8091FC05DA
:101AB0008FB9779BFECFC09AC0988EE38FB9779B82
:101AC000FECF80E090E0DC01A650BA4F14963C9126
:101AD00014973FB9779BFECF01968230910599F715
:101AE000C09AC0988EE38FB9779BFECF80E090E0DC
:101AF000DF01A80FB91F3C913FB9779BFECF01963C
:101B000082309105A9F7C09AC0988EE38FB9779B70
:101B1000FECF80E090E0DC01A650BA4F16963C91D3
:101B200016973FB9779BFECF01968230910599F7C2
:101B3000C09A8091F705882381F0C0988EE38FB911
:101B4000779BFECFA7E0B6E08D918FB9779BFECF54
:101B500086E0AB30B807C1F7C09AC0988EE38FB962
:101B6000779BFECF30E009C0A381B481A80FB91FD5
:101B70008C918FB9779BFECF3F5F832F90E042819E
:101B8000552747FD50958417950774F3C09AC09860
:101B90008EE38FB9779BFECF2FB9779BFECFC09A8C
:101BA0008581882391F180910206882331F4C098C1
:101BB00083E08FB9779BFECFC09AC0981FB8779B00
:101BC000FECF8FB1C09A81FFF8CF10E005E0C0983A
:101BD0000FB9779BFECFC09AC0981FB8779BFECFF6
:101BE000FFB0C09A1F5F153649F478948091F505CF
:101BF0009091F6050E948F2380E043C084E690E038
:101C00000E949F13F3FEE3CF06C0C09884E08FB913
:101C1000779BFECFC09A7894849BFECF8499FECFA9
:101C2000809105068823F9F084EA92E00E949F13D0
:101C3000B79B0BC0C0988FE78FB9779BFECF1FB8BB
:101C4000779BFECF8FB1C09A0EC0C09888E08FB945
:101C5000779BFECFC09AC09888E08FB9779BFECF64
:101C6000C09A80E001C081E0F894C09896E09FB9E6
:101C7000779BFECFC09A78949091FC059F5F9093DC
:101C8000FC050F900F90CF91DF911F910F91FF9066
:101C9000089581E0849B80E0089581E00E9B80E0C0
:101CA000089581E0849B80E00895DF93CF9300D076
:101CB00000D0CDB7DEB70E9BC7C1109206060E9BB3
:101CC0001AC0B79918C0C0988FE78FB9779BFECF1D
:101CD0001FB8779BFECF8FB1C09AC09888E08FB9AC
:101CE000779BFECFC09AC09888E08FB9779BFECFD4
:101CF000C09A8FEFAAC1C0988FE78FB9779BFECFAC
:101D00001FB8779BFECF4FB1C09A4F77C1F4C098F0
:101D10008FE78FB9779BFECF1FB8779BFECF8FB130
:101D2000C09AC09888E08FB9779BFECFC09AC098C0
:101D300088E08FB9779BFECFC09A8EEF86C14C307A
:101D400084F0E091FA05F091FB05842F992787FD37
:101D500090950B972481332727FD30952817390755
:101D60007CF5C0988FE78FB9779BFECF50E0842F2A
:101D7000992787FD909504C01FB8779BFECF5F5FC2
:101D8000252F30E02817390714F4B799F5CFC09AFA
:101D9000C0988FE78FB9779BFECF1FB8779BFECF98
:101DA0008FB1C09AC09888E08FB9779BFECFC09A58
:101DB000C09888E08FB9779BFECFC09A8DEF45C160
:101DC000E091FA05F091FB054C504383C0988FE7F2
:101DD0008FB9779BFECFFE013196CE0103961FB8D7
:101DE000779BFECF2FB12193E817F907C1F7C09A6F
:101DF000E091FA05F091FB05998181E095FF80E083
:101E00008783C0988FE78FB9779BFECF1FB8779BEA
:101E1000FECFE091FA05F091FB058FB18083C09A67
:101E2000C0988FE78FB9779BFECF84E005C01FB8BD
:101E3000779BFECF815011F0B799F9CFC09AC09827
:101E40008FE78FB9779BFECF80E090E01FB8779B3C
:101E5000FECFE091FA05F091FB052FB1E80FF91FD5
:101E6000218301968230910589F7C09A898183FF89
:101E70004DC0C0988FE78FB9779BFECFE1EFF5E0BB
:101E80001FB8779BFECF8FB1819385E0E53FF807C0
:101E9000B9F7C09AC09889E98FB9779BFECF80E8DF
:101EA0008FB9779BFECF82E08150E82FF0E0EF50B2
:101EB000FA4F90819FB9779BFECF8823A9F7C09AEC
:101EC000C0988BE98FB9779BFECF80E88FB9779B5D
:101ED000FECF82E08150E82FF0E0ED50FA4F908184
:101EE0009FB9779BFECF8823A9F7C09AC0988CE052
:101EF0008FB9779BFECFC09A81E080930606E09170
:101F0000FA05F091FB05838184508383C0988FE7A5
:101F10008FB9779BFECF40E00FC01FB8779BFECFF5
:101F2000E091FA05F091FB058FB10580F681E02D77
:101F3000E40FF11D80834F5FE091FA05F091FB05FE
:101F4000242F30E08381992787FD90952817390742
:101F500024F3C09AC0988FE78FB9779BFECF1FB844
:101F6000779BFECF6FB1C09AC0988FE78FB9779BF0
:101F7000FECFFE013396CE0105961FB8779BFECFAC
:101F80002FB12193E817F907C1F7C09AE091FA053C
:101F9000F091FB058B81808750E040E00CC0E09120
:101FA000FA05F091FB050580F681E02DE80FF91F99
:101FB0008081480F5F5FE091FA05F091FB05852F66
:101FC00090E02381332727FD3095821793073CF358
:101FD0004617C1F0C0988FE78FB9779BFECF1FB827
:101FE000779BFECF8FB1C09AC09888E08FB9779B5E
:101FF000FECFC09AC09888E08FB9779BFECFC09A79
:102000008CEF23C08C8187FF07C080910B068F5F08
:1020100080930B0681E019C0C0988FE78FB9779B3A
:10202000FECF1FB8779BFECF8FB1C09AC09888E0D3
:102030008FB9779BFECFC09AC09888E08FB9779B05
:10204000FECFC09A8BEF01C080E00F900F900F90F1
:102050000F90CF91DF91089580910B06882329F08E
:1020600080910B0610920B06089580E00895C098A9
:1020700088E08FB9779BFECFC09AC09888E08FB96F
:10208000779BFECFC09A0895992787FD9095982F4A
:1020900088278068C09823E12FB9779BFECF9FB92E
:1020A000779BFECF8FB9779BFECFC09A0895C098DB
:1020B00086E08FB9779BFECFC09AC09882E18FB936
:1020C000779BFECF85E08FB9779BFECF88E08FB9F5
:1020D000779BFECFC09AC0988EE28FB9779BFECFD8
:1020E00088E18FB9779BFECF1FB8779BFECFC09A50
:1020F0000E9437100895C09886E08FB9779BFECF75
:10210000C09AC09882E18FB9779BFECF85E08FB9E6
:10211000779BFECF1FB8779BFECFC09AC0988EE208
:102120008FB9779BFECF1FB8779BFECF1FB8779BE9
:10213000FECFC09A0E9437100895C09886E08FB9EC
:10214000779BFECFC09AC09882E18FB9779BFECF74
:1021500085E08FB9779BFECF81E08FB9779BFECF6B
:10216000C09A0E9437100895C09882E18FB9779B7A
:10217000FECF85E08FB9779BFECF84E08FB9779B48
:10218000FECFC09A0E943710089590E08F70907033
:102190002091F8053091F905207F822B932B9093A5
:1021A000F9058093F805C09881E18FB9779BFECF40
:1021B0008091F9058FB9779BFECF8091F8058FB993
:1021C000779BFECFC09A089590E026E0880F991F74
:1021D0002A95E1F790702091F8053091F9052F7359
:1021E000822B932B9093F9058093F805C09881E199
:1021F0008FB9779BFECF8091F9058FB9779BFECF82
:102200008091F8058FB9779BFECFC09A0895C0984A
:1022100084E08FB9779BFECFC09A0895C09886E07E
:102220008FB9779BFECFC09A08955F9BFECF5F98D2
:102230008CB108955D9BFECF5D988CB908958FEFAA
:102240000895882311F48BB104C0813031F480915A
:102250009B00881F8827881F089580E00895CF93EA
:10226000DF93EC0107C06091FB077091FC0790E0E1
:102270000E94414CFE01219684918823A1F7DF91B1
:10228000CF9108958F3F09F43FC0982F969596956A
:10229000969521E030E002C0220F331F9A95E2F7B5
:1022A00090E08770907082309105D9F0833091056D
:1022B00034F4009771F08130910541F50EC08430FF
:1022C0009105C1F0843091058CF085309105F1F4D1
:1022D00015C08BB3822B8BBB07C088B3822B88BB06
:1022E00003C085B3822B85BB81E0089582B3822B26
:1022F00082BBFACF83B1822B83B9F6CF8091620083
:10230000822B80936200F0CF8FEF08958FEF0895B6
:102310008F3F09F440C0982F96959695969521E0A9
:1023200030E002C0220F331F9A95E2F7209590E02B
:102330008770907082309105D9F08330910534F424
:10234000009771F08130910541F50EC08430910500
:10235000C1F0843091058CF085309105F1F415C001
:102360008BB382238BBB07C088B3822388BB03C097
:1023700085B3822385BB81E0089582B3822382BB2B
:10238000FACF83B1822383B9F6CF80916200822392
:1023900080936200F0CF8FEF08958FEF08958F3F05
:1023A00089F1282F30E02770307022303105C1F0DC
:1023B000233031053CF42115310571F02130310510
:1023C00009F50CC02430310579F02430310554F082
:1023D00025303105B9F40AC029B309C026B307C0B6
:1023E00023B305C020B303C021B101C020B130E048
:1023F00086958695869502C0359527958A95E2F74C
:10240000217001C02FEF822F0895882319F080B525
:102410008B7F02C080B5846080BD81E008958F3FCE
:1024200009F43FC0982F96959695969521E030E057
:1024300002C0220F331F9A95E2F790E087709070E8
:1024400082309105D9F08330910534F4009771F012
:102450008130910541F50EC084309105C1F0843082
:1024600091058CF085309105F1F415C08BB382276E
:102470008BBB07C088B3822788BB03C085B3822784
:1024800085BB81E0089582B3822782BBFACF83B1F6
:10249000822783B9F6CF8091620082278093620001
:1024A000F0CF8FEF08958FEF08958F3F09F48CC020
:1024B000982F96959695969521E030E002C0220FD0
:1024C000331F9A95E2F790E0662309F04AC0322F55
:1024D0003095877090708230910519F183309105A5
:1024E0003CF4009781F08130910509F06DC012C075
:1024F0008430910521F184309105D4F08530910527
:1025000009F062C023C08AB383238ABB8BB3822BBA
:102510008BBB58C087B3832387BB88B3822B88BB10
:1025200051C084B3832384BB85B3822B85BB4AC04F
:1025300081B3832381BB82B3822B82BB43C082B130
:10254000832382B983B1822B83B93CC0809161001F
:1025500083238093610080916200822B80936200CC
:1025600031C08770907082309105D9F08330910529
:1025700034F4009771F08130910541F50EC084303C
:102580009105B9F08430910584F085309105F1F41E
:1025900014C08AB3822B8ABB15C087B3822B87BB3A
:1025A00011C084B3822B84BB0DC081B3822B81BB4D
:1025B00009C082B1822B82B905C080916100822B53
:1025C0008093610081E008958FEF08958FEF089563
:1025D0008FEF0895009711F480E009C081309105D4
:1025E00011F488E004C08230910529F480E10E9452
:1025F0000F1281E008958FEF0895009711F480E0A5
:1026000009C08130910511F488E004C08230910541
:1026100029F480E10E94421181E008958FEF08952E
:1026200080B5846080BD87E087BB88BB8FEF84BBAB
:1026300015BA82E082B987E68ABB80E48BBB80E56D
:102640008DB981E08EB980E090E00E94FD1281E0BA
:1026500090E00E94FD1282E090E00E94FD1283E073
:1026600090E00E94FD120895009711F480E009C0E7
:102670008130910511F488E004C08230910529F47D
:1026800080E10E94881181E008958FEF0895909174
:102690009B0095FFFCCF90919B009F7D90939B00AA
:1026A00080939C0008959093900089B986E0809370
:1026B00095005298599A8AB188618AB908950F9302
:1026C0001F93CF93DF930E945313CAE1D1E105E139
:1026D00011E1CE01B8010E94B44B9093FC078093A6
:1026E000FB07CE01B8010E94B44B9093FA07809388
:1026F000F907DF91CF911F910F9108959093980062
:102700008093990086E080939D00EAE9F0E0808163
:102710008B7F8083ABE9B0E08C9182608C93808169
:1027200088618083089580919B0087FFFCCF809112
:102730009B008F7780939B0080919C000895000000
:102740000000000000000197D1F708950E94444D59
:1027500008950E944C4D80E00895EF92FF920F93F0
:102760001F93CF93DF93E82EE7017E01F92EE70157
:1027700080E090E00E94444D082F8B8381E090E040
:102780000E94444DE82E8A8382E090E00E94444DEE
:10279000F82E898383E090E00E94444D182F8883AF
:1027A00084E090E00E94444DFE0CF00EF10E8F1577
:1027B00011F481E001C08FEFDF91CF911F910F9154
:1027C000FF90EF900895CF93DF93EC0185E090E0C8
:1027D0000E94444D888381E0DF91CF910895FC01F0
:1027E00086E090E060810E944C4D81E00895CF9397
:1027F000DF93EC0186E090E00E94444D888381E005
:10280000DF91CF9108950F931F93CF93DF93082FFC
:10281000192FC8E0D0E0CE010E94444DF801819309
:102820008F012196C831D105B1F781E0DF91CF91B9
:102830001F910F9108950F931F93CF93DF93082F4C
:10284000192FC8E0D0E0F80161918F01CE010E94FC
:102850004C4D2196C831D105B1F781E0DF91CF9180
:102860001F910F910895CF93DF93EC0187E090E0E3
:102870000E94444D888381E0DF91CF910895FC014F
:1028800087E090E060810E944C4D81E00895F894CB
:102890000895789408950E944714FFCF0F931F93D3
:1028A000DF93CF93CDB7DEB7A8970FB6F894DEBF0E
:1028B0000FBECDBF88EE93E09093C8058093C70507
:1028C0000E94FD208093E3068F3F21F48EE060E0BC
:1028D0000E94C11E0E9451300E94C1308F3F31F4CE
:1028E0000E94A63080E160E00E94C11E0E94B330C9
:1028F0001092EE061092FC061092FB061092E5066E
:102900001092E4061092FD060E94A9161092FA0693
:10291000E3EDF6E08FEF808382838183339696E048
:10292000E23EF907C1F793E69093180680931606E6
:1029300090933F0680933D069093660680936406CD
:1029400090938D0680938B069093B4068093B20685
:10295000E0EDF7E020E030E001C09A01A9014F5F0F
:102960005F4FCA01880F991F880F991F840F951F09
:102970008353984F91838083C901880F991F880FD3
:10298000991F820F931F8353984F948383833596A7
:102990004530510511F71092CF071092CE071092D3
:1029A000EA071092E9071092F1061092F0068DECFA
:1029B00097E090930D0680930C068E010F5F1F4FDA
:1029C000C80168EB7AE20E94CB30C80167E475E089
:1029D00040E850E00E94113185E580934705198653
:1029E0001C861D861E861F86188A198A1A8A1B8ACB
:1029F0001C8A1D8A1E8A1F8A188E198E1A8E1B8E9B
:102A00001C8E1D8E1E8E1F8E18A219A21AA21BA22A
:102A100081E0888792E09A878B87C8010E947025A1
:102A2000A8960FB6F894DEBF0FBECDBFCF91DF9151
:102A30001F910F9108950F931F93CF93DF931092DF
:102A40002F061092560610927D061092A406109240
:102A5000CB06A6E1B6E053968D919C9154972C91AC
:102A60002F3F79F0E9E2F6E0208131818217930768
:102A700018F426812F5F2683B79626E0EC3EF207F6
:102A800099F7979646E0A93DB40729F7CFE2D6E03B
:102A900080E090E027E230E01BC04D91442371F0CC
:102AA00000811881602F772767FD7095412F50E0D6
:102AB0004617570714F00F3F09F41083339646E08A
:102AC000E33EF40751F70196A7968530910561F032
:102AD000829FD001839FB00D929FB00D1124A05D05
:102AE000B94FE4EDF6E0D9CFDF91CF911F910F916F
:102AF0000895CF92DF92FF920F931F93DF93CF93AE
:102B000000D0CDB7DEB7E6E1CE2EE6E0DE2E90E0D7
:102B1000F601F080FF2DFF3FB1F006E116E020E066
:102B2000921761F0F8018081F81641F485E06F2D6D
:102B300029839A830E94C11E9A8129812F5F095D92
:102B40001F4F253069F79F5F27E230E0C20ED31E8A
:102B50009530F1F60E941B150E944A24992787FDA3
:102B6000909527E230E0829FF001839FF00D929FC5
:102B7000F00D1124E25FF94F82858093FD06F093FA
:102B8000FC06E093FB06F093E506E093E4068093F1
:102B9000EE060E9446310E9437310E94933CFFCFDF
:102BA000CF92DF92EF92FF920F931F93CF93DF9319
:102BB000EC018B016A018985823021F08091E20667
:102BC000888301C018828091E206853020F087E07A
:102BD00060E00E94C11E8985823029F08091E20662
:102BE0008F5F8093E2068091E206882319F481E0EA
:102BF0008093E2062881332727FD309587E290E015
:102C0000289FF001299FF00D389FF00D1124E25FFD
:102C1000F94F11830083288522872881332727FDD8
:102C20003095289FF001299FF00D389FF00D112459
:102C3000E25FF94F23E021874881242F332727FDC6
:102C40003095289FF001299FF00D389FF00D112439
:102C5000E25FF94F40872881332727FD3095289F71
:102C60008001299F100D389F100D1124025F194F0C
:102C7000F8011582CE010B960E946929F801948F04
:102C8000838F8B859C85AD85BE858E339105A1058F
:102C9000B10520F086E168810E94C11E08811127DC
:102CA00007FD1095CE014B960E946929F7E2EF2EA1
:102CB000F12C0E9DF0010F9DF00D1E9DF00D1124C5
:102CC000E25FF94F968B858B8881992787FD9095D8
:102CD0008E9D80018F9D100D9E9D100D1124025F11
:102CE000194FF80185899689238D348D820F931FA2
:102CF000908F878BCE0143960E946929F801968FA9
:102D0000858F8881992787FD90958E9DF0018F9DF5
:102D1000F00D9E9DF00D1124E25FF94F858D968D8B
:102D2000928F818F81E090E090A3878FD382C282BF
:102D300081E08487DF91CF911F910F91FF90EF90F9
:102D4000DF90CF9008950E94DE2A089585E690E0F6
:102D500008951092E6061092E7061092E806109287
:102D6000E9061092EA061092EB061092EC06109219
:102D7000ED06E7E3F7E010821182128213821086DB
:102D80001186128613861482158216821782148683
:102D9000158616861786108A118A128A138A108E53
:102DA000118E128E138E148E158E7E9687E0ED3C5A
:102DB000F80709F70895682F70E080E090E023EBB2
:102DC00036EE4EE050E00E943A4A2091EA063091F9
:102DD000EB064091EC065091ED06620F731F841FC5
:102DE000951F6093EA067093EB068093EC06909330
:102DF000ED0686EE96E00E94DA280895FC01209107
:102E0000E6063091E7064091E8065091E9062083F6
:102E10003183428353832091EA063091EB0640913F
:102E2000EC065091ED06248335834683578308953D
:102E3000E82FF0E09F01220F331FA5E0EE0FFF1FE8
:102E4000AA95E1F7E21BF30BE95CF84F958D913001
:102E500089F1E82FF0E09F01220F331F65E0EE0FAC
:102E6000FF1F6A95E1F7E21BF30BE95CF84F948DC5
:102E70009F5FE82FF0E09F01220F331F45E0EE0F28
:102E8000FF1F4A95E1F7E21BF30BE95CF84F948FC3
:102E90009F3F81F4E82FF0E0CF01880F991F25E0D4
:102EA000EE0FFF1F2A95E1F7E81BF90BE95CF84FDD
:102EB00081E0858F0895E82FF0E09F01220F331FF6
:102EC00075E0EE0FFF1F7A95E1F7E21BF30BE95C6B
:102ED000F84F958D913009F452C0E82FF0E09F0132
:102EE000220F331F55E0EE0FFF1F5A95E1F7E21B4B
:102EF000F30BE95CF84F148A158A168A178AE82FB3
:102F0000F0E09F01220F331F95E0EE0FFF1F9A950F
:102F1000E1F7E21BF30BE95CF84F20893189428924
:102F200053892F5F3F4F4F4F5F4FE82FF0E0BF01B6
:102F3000660F771FA5E0EE0FFF1FAA95E1F7E61BCE
:102F4000F70BE95CF84F208B318B428B538B2E3F74
:102F50009FEF39079FEF49079FEF590781F4E82F4B
:102F6000F0E0CF01880F991F25E0EE0FFF1F2A9593
:102F7000E1F7E81BF90BE95CF84F81E0858F0895D4
:102F8000EF92FF92CF93DF93A82FE82FF0E0CF01CD
:102F9000880F991F75E0EE0FFF1F7A95E1F7E81B88
:102FA000F90BE95CF84F858D813009F4B1C0EA2F47
:102FB000F0E0CF01880F991F45E0EE0FFF1F4A9503
:102FC000E1F7E81BF90BE95CF84FEA2EE7017E0117
:102FD00020E0F22EE701C701880F991F25E0CC0FF2
:102FE000DD1F2A95E1F7C81BD90BC95CD84F288D86
:102FF000398D4A8D5B8D2F5F3F4F4F4F5F4F208F35
:10300000318F428F538F70E080E090E0EA2FF0E044
:103010009F01220F331F55E0EE0FFF1F5A95E1F776
:10302000E21BF30BE95CF84FEA2EE7017E0120E09A
:10303000F22EE7019701220F331FB5E0CC0FDD1F01
:10304000BA95E1F7C21BD30BC95CD84F2C893D89D7
:103050004E895F89260F371F481F591F248B358BD8
:10306000468B578BEA2FF0E09F01220F331F45E07C
:10307000EE0FFF1F4A95E1F7E21BF30BE95CF84FF7
:10308000EA2EE7017E0120E0F22EE7019701220FF0
:10309000331F55E0CC0FDD1F5A95E1F7C21BD30B50
:1030A000C95CD84F288139814A815B81260F371F3F
:1030B000481F591F2083318342835383EA2FF0E056
:1030C000CF01880F991F35E0EE0FFF1F3A95E1F70A
:1030D000E81BF90BE95CF84F208D318D428D538D43
:1030E0002E3F8FEF38078FEF48078FEF580781F497
:1030F000EA2FF0E0CF01880F991FB5E0EE0FFF1F18
:10310000BA95E1F7E81BF90BE95CF84F81E0858F90
:10311000DF91CF91FF90EF900895EF92FF92CF93C0
:10312000DF93E82FA82FB0E0CD01880F991F75E03D
:10313000AA0FBB1F7A95E1F7A81BB90BA95CB84F82
:103140005D968C915D97813009F4FAC070E080E063
:1031500090E0AE2FB0E09D01220F331F45E0AA0F93
:10316000BB1F4A95E1F7A21BB30BA95CB84FEE2E2B
:10317000E7017E0120E0F22EE7019701220F331FC5
:1031800055E0CC0FDD1F5A95E1F7C21BD30BC95C8C
:10319000D84F2C893D894E895F89260F371F481FDC
:1031A000591F1C962D933D934D935C931F97AE2F03
:1031B000B0E09D01220F331FF5E0AA0FBB1FFA9567
:1031C000E1F7A21BB30BA95CB84FEE2EE7017E011D
:1031D00020E0F22EE7019701220F331F45E0CC0FCC
:1031E000DD1F4A95E1F7C21BD30BC95CD84F28817C
:1031F00039814A815B81260F371F481F591F2D9344
:103200003D934D935C931397AE2FB0E0CD01880FA3
:10321000991FF5E0AA0FBB1FFA95E1F7A81BB90BA0
:10322000A95CB84F14962D913D914D915C911797E3
:103230002115310541055105C9F0AE2FB0E0CD0192
:10324000880F991F65E0AA0FBB1F6A95E1F7A81BBD
:10325000B90BA95CB84F1C968D919D910D90BC91B6
:10326000A02D82179307A407B50750F58E2FEC0108
:103270007E0120E0F22EE701C701880F991F45E08B
:10328000CC0FDD1F4A95E1F7C81BD90BC95CD84F9D
:10329000AE2FB0E0CD01880F991F25E0AA0FBB1F0C
:1032A0002A95E1F7A81BB90BA95CB84F1C968D9124
:1032B0009D910D90BC91A02D8C839D83AE83BF8387
:1032C000AE2FB0E0CD01880F991F75E0AA0FBB1F8C
:1032D0007A95E1F7A81BB90BA95CB84F1C962D9104
:1032E0003D914D915C911F97AE2FB0E0CD01880FBD
:1032F000991FF5E0AA0FBB1FFA95E1F7A81BB90BC0
:10330000A95CB84F18966D917D918D919C911B97FA
:10331000621773078407950798F48E2F90E0BC011D
:10332000660F771FFC0185E0EE0FFF1F8A95E1F71E
:10333000E61BF70BE95CF84F2087318742875387FC
:10334000DF91CF91FF90EF9008958F929F92AF926F
:10335000BF92CF92DF92EF92FF921F93DF93CF93B2
:10336000CDB7DEB760970FB6F894DEBF0FBECDBF06
:10337000182F82E193E00E942F1100D000D0EDB70A
:10338000FEB7319687EA91E0ADB7BEB712969C932F
:103390008E931197128313820E946D4C0F900F90A1
:1033A0000F900F90112309F085C087EF92E00E94E3
:1033B0002F11CE0101960E94ED27EDB7FEB73A9787
:1033C0000FB6F894FEBF0FBEEDBF8DB69EB6089443
:1033D000811C911C3AEAA32E31E0B32EB282A18265
:1033E00089819A81AB81BC81F40182839383A48318
:1033F000B5836D817E818F81988520E4C22E22E481
:10340000D22E2FE0E22EF12CA70196010E946D4AE8
:10341000D40116962D933D934D935C9319970E947A
:103420006D4CEDB7FEB73A960FB6F894FEBF0FBEDF
:10343000EDBF86ED92E00E942F118DB79EB70A97DF
:103440000FB6F8949EBF0FBE8DBF8DB69EB6089482
:10345000811C911CADB7BEB71296BC92AE9211976B
:103460008091E6069091E706A091E806B091E90602
:10347000F40182839383A483B5836091EA067091FB
:10348000EB068091EC069091ED06A70196010E9453
:103490006D4AD40116962D933D934D935C931997E5
:1034A0000E946D4CEDB7FEB73A960FB6F894FEBF8A
:1034B0000FBEEDBF85EC92E00E942F11E12FF0E0EE
:1034C000CF01880F991FA5E0EE0FFF1FAA95E1F726
:1034D000E81BF90BE95CF84F60817181828193816F
:1034E0000E94F82929873A874B875C876D877E87FA
:1034F0008F87988BDE011196FE01399688E0019046
:103500000D928150E1F78DB79EB70A970FB6F894E8
:103510009EBF0FBE8DBFCDB6DEB60894C11CD11CB8
:103520008AEA91E0ADB7BEB712969C938E9311973D
:1035300089819A81AB81BC81F60182839383A483C4
:10354000B5836D817E818F81988520E432E44FE0E0
:1035500050E00E946D4AD60116962D933D934D93EF
:103560005C9319970E946D4CEDB7FEB73A960FB673
:10357000F894FEBF0FBEEDBF8AEA92E00E942F11C1
:10358000E12FF0E0CF01880F991F65E0EE0FFF1FDC
:103590006A95E1F7E81BF90BE95CF84F64817581E6
:1035A000868197810E94F82929873A874B875C8713
:1035B0006D877E878F87988BDE011196FE01399685
:1035C00088E001900D928150E1F78DB79EB70A9780
:1035D0000FB6F8949EBF0FBE8DBFCDB6DEB6089471
:1035E000C11CD11C8AEB91E0ADB7BEB712969C937B
:1035F0008E93119789819A81AB81BC81F601828378
:103600009383A483B5836D817E818F81988520E427
:1036100032E44FE050E00E946D4AD60116962D9399
:103620003D934D935C9319970E946D4CEDB7FEB797
:103630003A960FB6F894FEBF0FBEEDBFE12FF0E053
:10364000CF01880F991F45E0EE0FFF1F4A95E1F764
:10365000E81BF90BE95CF84F6485758586859785CD
:103660000E94F82929873A874B875C876D877E8778
:103670008F87988BDE011196FE01399688E00190C4
:103680000D928150E1F78DB79EB70A970FB6F89467
:103690009EBF0FBE8DBFCDB6DEB60894C11CD11C37
:1036A0008AEB91E0ADB7BEB712969C938E931197BB
:1036B00089819A81AB81BC81F60182839383A48343
:1036C000B5836D817E818F81988520E432E44FE05F
:1036D00050E00E946D4AD60116962D933D934D936E
:1036E0005C9319970E946D4CEDB7FEB73A960FB6F2
:1036F000F894FEBF0FBEEDBFE12FF0E0CF01880FC1
:10370000991F25E0EE0FFF1F2A95E1F7E81BF90B43
:10371000E95CF84F60857185828593850E94F82960
:1037200029873A874B875C876D877E878F87988B41
:10373000DE011196FE01399688E001900D928150CC
:10374000E1F78DB79EB70A970FB6F8949EBF0FBEEC
:103750008DBFCDB6DEB60894C11CD11C8AEA91E0BB
:10376000ADB7BEB712969C938E93119789819A81BB
:10377000AB81BC81F60182839383A483B5836D8181
:103780007E818F81988520E432E44FE050E00E94F2
:103790006D4AD60116962D933D934D935C931997E0
:1037A0000E946D4CEDB7FEB73A960FB6F894FEBF87
:1037B0000FBEEDBF8AE992E00E942F1100D000D029
:1037C00000D08CECC82E81E0D82EADB7BEB71296D3
:1037D000DC92CE921197E12FF0E0CF01880F991F74
:1037E000A5E0EE0FFF1FAA95E1F7E81BF90BE95CD6
:1037F000F84F80899189A289B389EDB7FEB7838399
:103800009483A583B6830E946D4C8DB79EB70696B0
:103810000FB6F8949EBF0FBE8DBF87E892E00E945E
:103820002F1100D000D000D0ADB7BEB71296DC92F9
:10383000CE921197E12FF0E0CF01880F991F65E03C
:10384000EE0FFF1F6A95E1F7E81BF90BE95CF84FF3
:10385000808D918DA28DB38DEDB7FEB78383948358
:10386000A583B6830E946D4C8DB79EB706960FB6A2
:10387000F8949EBF0FBE8DBF8EE692E00E942F117E
:1038800000D000D0ADB7BEB7119650EDC52E51E0B7
:10389000D52EEDB7FEB7D282C182E12FF0E0CF0185
:1038A000880F991F35E0EE0FFF1F3A95E1F7E81BEF
:1038B000F90BE95CF84F848D12968C93129713964E
:1038C0001C920E946D4C0F900F900F900F9081E50D
:1038D00092E00E942F1100D000D0ADB7BEB7119674
:1038E000EDB7FEB7D282C182E12FF0E0CF01880FA1
:1038F000991F15E0EE0FFF1F1A95E1F7E81BF90B72
:10390000E95CF84F858D12968C93129713961C9252
:103910000E946D4C0F900F900F900F908EE492E0EC
:103920000E942F1160960FB6F894DEBF0FBECDBF78
:10393000CF91DF911F91FF90EF90DF90CF90BF90DC
:10394000AF909F908F90089581E392E00E942F1195
:1039500080E00E94A51981E00E94A51982E00E94E2
:10396000A51983E00E94A51984E00E94A519089575
:10397000FB01853008F0CBC0A82FB0E09D01220FDD
:10398000331F55E0AA0FBB1F5A95E1F7A21BB30BDB
:10399000A95CB84F2D913D914D915C91208331836D
:1039A00042835383A82FB0E09D01220F331F95E07F
:1039B000AA0FBB1F9A95E1F7A21BB30BA95CB84FE6
:1039C00014962D913D914D915C91179724833583E9
:1039D00046835783A82FB0E09D01220F331F65E077
:1039E000AA0FBB1F6A95E1F7A21BB30BA95CB84FE6
:1039F00018962D913D914D915C911B9720873187B1
:103A000042875387A82FB0E09D01220F331F45E066
:103A1000AA0FBB1F4A95E1F7A21BB30BA95CB84FD5
:103A20001C962D913D914D915C911F972487358770
:103A300046875787A82FB0E09D01220F331F75E0FE
:103A4000AA0FBB1F7A95E1F7A21BB30BA95CB84F75
:103A500050962D913D914D915C915397208B318BD8
:103A6000428B538BA82FB0E09D01220F331F55E0EE
:103A7000AA0FBB1F5A95E1F7A21BB30BA95CB84F65
:103A800054962D913D914D915C915797248B358B98
:103A9000468B578BA82FB0E09D01220F331F95E076
:103AA000AA0FBB1F9A95E1F7A21BB30BA95CB84FF5
:103AB00058962D913D914D915C915B97208F318F60
:103AC000428F538FA82FB0E09D01220F331F65E076
:103AD000AA0FBB1F6A95E1F7A21BB30BA95CB84FF5
:103AE0005C969C91948FA82FB0E0CD01880F991F10
:103AF00045E0AA0FBB1F4A95E1F7A81BB90BA95CCB
:103B0000B84F5D968C915D97858F81E008958FEF1A
:103B10000895E091FB06F091FC0684870895E091FA
:103B2000FB06F091FC0684850895FF920F931F9386
:103B3000F82E062F80E092E00E94A6138F5F8093FC
:103B400058038F3F11F4109258032091580316E048
:103B5000219F90011124C9018F5F9D4F6F2D0E94FD
:103B6000A91380915803819FC00111248E5F9D4F3E
:103B7000602F0E94A91380915803819FC0011124D6
:103B80002091F2063091F3064091F4065091F5062B
:103B9000252F3327442755278D5F9D4F622F0E9485
:103BA000A91380915803819FC00111242091F2062E
:103BB0003091F3064091F4065091F5069A0144279E
:103BC00055278C5F9D4F622F0E94A9138091580347
:103BD000819FC00111242091F2063091F30640919B
:103BE000F4065091F506232F342F452F55278B5F70
:103BF0009D4F622F0E94A91380915803819FC0019D
:103C000011248A5F9D4F6091F2060E94A91380E003
:103C100092E0609158030E94A9131F910F91FF90A9
:103C2000089520914605222341F0FB012083209135
:103C3000EA03FC01208381E0089580E008958091EB
:103C40004605882309F49BC089E495E00E942F1162
:103C500000D000D0EDB7FEB7319683ED91E0ADB75F
:103C6000BEB712969C938E9311978091EA0382833C
:103C700013820E946D4C0F900F900F900F9085E46F
:103C800095E00E942F1180914605883110F0109226
:103C900046058091460590E001978631910508F030
:103CA0004BC08A5B9F4FFC01EE0FFF1F0590F49104
:103CB000E02D099489E095E041C082EE94E03EC099
:103CC0008EEC94E03BC088EB94E038C08DE994E042
:103CD00035C087E894E032C08FE694E02FC08CE5D1
:103CE00094E02CC089E494E029C08BE294E026C0E3
:103CF00086E094E023C08AEF93E020C08FED93E04C
:103D00001DC080ED93E01AC08CEB93E017C08BEAE6
:103D100093E014C087E993E011C087E793E00EC0F9
:103D20008FE593E00BC084E493E008C083E393E065
:103D300005C084E293E002C08DE193E00E942F1160
:103D40006091FB077091FC078DE090E00E94414C70
:103D50006091FB077091FC078AE090E00E94414C63
:103D600080914605803149F0833139F0843129F062
:103D70000E94B3300E944714FFCF1092460580E0A6
:103D800008951F93182F809346056093EA030E94BD
:103D9000951D0E941F1E103149F0133139F0143166
:103DA00029F00E94B3300E944714FFCF1F9108955D
:103DB00080934605E091FB06F091FC0660856093D8
:103DC000EA030E94951D0E941F1E0895DF93CF9362
:103DD0000F92CDB7DEB7198207C080ED97E00E9441
:103DE000D82E89818F5F898389818436B0F30F90C3
:103DF000CF91DF91089581E090E00E9434130E94FA
:103E0000E61E81E090E00E94FD120E94E61E0895E9
:103E100081E090E00E9434130E94E61E0E94E61E9C
:103E20000E94E61E81E090E00E94FD120E94E61EC4
:103E30000895FF920F931F93DF93CF9300D00F92BB
:103E4000CDB7DEB700D000D000D0EDB7FEB73196C9
:103E50008E010F5F1F4FADB7BEB712961C930E9326
:103E6000119723ED31E033832283848315820E94EE
:103E7000B64CEDB7FEB736960FB6F894FEBF0FBE40
:103E8000EDBFFF2472C0800F911FDC018C91843341
:103E9000D1F1853370F48133F9F0823320F480332B
:103EA00009F05CC016C0823311F1833309F056C0AB
:103EB00023C08733C9F1883330F4853369F1863301
:103EC00009F04CC02CC08833B1F1893309F046C0E9
:103ED0003BC00E94081F02C00E94FB1E0E94081FD8
:103EE0000E94081F0E94081F0E94081F37C00E94DE
:103EF000FB1E0E94FB1EF4CF0E94FB1E0E94FB1EB5
:103F00000E94FB1EEFCF0E94FB1E0E94FB1E0E9420
:103F1000FB1E0E94FB1EE8CF0E94FB1E02C00E94F7
:103F2000081F0E94FB1E04C00E94081F0E94081F59
:103F30000E94FB1E06C00E94081F0E94081F0E94CC
:103F4000081F0E94FB1E08C00E94081F0E94081F35
:103F50000E94081F0E94081F0E94FB1E0E94E61E6E
:103F60000E94E61E0E94E61EF394F80101900020D4
:103F7000E9F73197E01BF10B8F2D90E08E179F072B
:103F800008F481CF0F900F900F90CF91DF911F9188
:103F90000F91FF9008954F925F926F927F928F9250
:103FA0009F92AF92BF92CF92DF92EF92FF920F93C8
:103FB0001F93CF93DF9385E595E00E942F1100D0EA
:103FC00000D086ED91E0ADB7BEB712969C938E936C
:103FD0001197E091FB06F091FC068085992787FDFB
:103FE000909514969C938E9313970E946D4CE0913C
:103FF000FB06F091FC06C281D3818FED91E0EDB715
:10400000FEB792838183D483C3830E946D4CEDB746
:10401000FEB731964CEEE42E41E0F42EADB7BEB7BC
:104020001296FC92EE9211978881828313820E94ED
:104030006D4C39EFC32E31E0D32EEDB7FEB7D282EF
:10404000C182E091FB06F091FC0680819181ADB7C1
:10405000BEB714969C938E9313970E946D4C23E0E9
:10406000A22E22E0B22EEDB7FEB7B282A1828091DD
:10407000FB069091FC06948383830E946D4C0EE0B6
:1040800016E00F900F900F900F90C0E0D0E093E1FA
:10409000492E92E0592E9E2C6F2C7C2C8D2CC50124
:1040A000BA2CA92E87E2C82ED12CD8011296ED90F9
:1040B000FC90139700D000D000D0EDB7FEB731963A
:1040C000ADB7BEB712965C924E921197D383C2835E
:1040D000F582E4820E946D4C0F900F90EDB7FEB711
:1040E0003196ADB7BEB711969C92119712966C920D
:1040F000D7018C91828313820E946D4CEDB7FEB77D
:1041000071828282D8018D919C91948383830E94D5
:104110006D4CEDB7FEB7B182A282CC9DC001CD9DA2
:10412000900DDC9D900D1124825F994F94838383C1
:104130000E946D4C2196095D1F4F0F900F900F90BC
:104140000F90C530D10509F0B0CFDF91CF911F910D
:104150000F91FF90EF90DF90CF90BF90AF909F9026
:104160008F907F906F905F904F900895CF93DF93E3
:10417000E091FB06F091FC06C281D38188818535F0
:1041800039F00E94CB1F81E00E94D81E85E588830C
:10419000E091FB06F091FC068081918121E1803065
:1041A000920728F00E94CB1F82E10E94D81EDF9167
:1041B000CF910895992787FD909527E230E0829F5F
:1041C000F001839FF00D929FF00D1124E25FF94FF3
:1041D000A281B3818C91853519F085E58C9309C056
:1041E0008081918121E18030920728F082E10E9454
:1041F000D81E8FEF089581E0089560919604709124
:1042000097048091980490919904E0E0F0E09B017C
:10421000AC010E2E04C056954795379527950A9404
:10422000D2F720FD1AC021E030E040E050E00E2E31
:1042300004C0220F331F441F551F0A94D2F7262BA8
:10424000372B482B592B2093960430939704409397
:104250009804509399048E2F08953196E032F10519
:10426000B1F68FEF0895E091FB06F091FC066585AD
:104270007685878590890895DF92EF92FF920F935C
:104280001F93D82E81E0E82EF12C012D112D0D2C3D
:1042900004C0EE0CFF1C001F111F0A94D2F780917E
:1042A000960490919704A0919804B09199048E215E
:1042B0009F21A023B1230097A105B10509F45DC09A
:1042C0000E944714E5E1F6E0A8019701209530959A
:1042D0004095509563E081818F3F39F186819781C8
:1042E000A085B1858E159F05A007B10731F4128610
:1042F0001386148615861082628386819781A08535
:10430000B18582239323A423B52386839783A08733
:10431000B18782859385A485B58582239323A423C1
:10432000B52382879387A487B587B79686E0E83D53
:10433000F80789F62EEF3FEF4FEF5FEF04C0220F33
:10434000331F441F551FDA94D2F780919604909141
:104350009704A0919804B091990482239323A423F5
:10436000B5238093960490939704A0939804B093F8
:1043700099040E94491481E001C08FEF1F910F91B1
:10438000FF90EF90DF900895EF92FF920F931F93AD
:1043900021E030E040E050E004C0220F331F441F12
:1043A000551F8A95D2F7E091FB06F091FC068585B2
:1043B0009685A785B08979018A01E822F9220A2326
:1043C0001B23E114F10401051105D1F0209530956E
:1043D0004095509582239323A423B5238587968700
:1043E000A787B08B81899289A389B489822393237B
:1043F000A423B523818B928BA38BB48B81E001C066
:104400008FEF1F910F91FF90EF90089520919604E8
:10441000309197044091980450919904082E04C05B
:1044200056954795379527950A94D2F721703070A5
:1044300021153105E9F0E091FB06F091FC0621E041
:1044400030E040E050E004C0220F331F441F551FEE
:104450008A95D2F785859685A785B089822B932B7F
:10446000A42BB52B85879687A787B08B81E008950D
:104470008FEF0895EF92FF920F931F93DF93CF93E7
:104480000F92CDB7DEB791E0E92EF12C012D112D61
:1044900004C0EE0CFF1C001F111F8A95D2F78091FB
:1044A000960490919704A0919804B09199048E215C
:1044B0009F21A023B1230097A105B10511F481E04C
:1044C0003FC00E944714E5E1F6E020E033E0808140
:1044D0008130A9F482859385A485B5858E219F219D
:1044E000A023B1230097A105B10549F032831786B7
:1044F00016861082E286F3860487158721E0808184
:10450000823091F482859385A485B5858E159F05AB
:10451000A007B10749F432831786168610821286E7
:1045200013861486158621E0B79686E0E83DF807E5
:1045300071F629830E9449142981222329F482E0FB
:104540000E94891D8FEF01C081E00F90CF91DF9114
:104550001F910F91FF90EF900895E091FB06F0916D
:10456000FC06258536854785508926233723482331
:104570005923211531054105510521F1618B728BBC
:10458000838B948B21E027830090E30604C09695EB
:104590008795779567950A94D2F761707070611569
:1045A000710519F00E948E2604C080E090E00E9400
:1045B000B526E091FB06F091FC06218932894389FA
:1045C000548903C020E030E0A901B901CA0108956F
:1045D0004091FA06453008F100D000D000D0EDB788
:1045E000FEB7319684E292E0ADB7BEB712969C93C7
:1045F0008E9311974283138285E090E095838483A4
:104600000E946D4C8DB79EB706960FB6F8949EBF6C
:104610000FBE8DBF20E030E019C0E3EDF6E020E0F2
:1046200090819F3F21F02F5F33962530C9F730E00E
:10463000F901EE0FFF1FE20FF31FED52F94F8283D6
:10464000808361834F5F4093FA069F01C9010895FB
:10465000BC0120E030E0822FA901440F551F420F1A
:10466000531F4D52594F6417750731F02F5F3F4F5D
:104670002530310581F78FEF08950E9428238F3F61
:1046800011F481E003C0853029F482E00E94891D85
:104690008FEF0895992787FD9095FC01EE0FFF1F7E
:1046A000E80FF91FED52F94F8FEF808382838183EA
:1046B0008091FA0681508093FA0681E008950E9465
:1046C00028238F3F11F481E003C0853029F482E074
:1046D0000E94891D8FEF0895992787FD9095FC0111
:1046E000EE0FFF1FE80FF91FED52F94F8281089579
:1046F000E4EDF6E08FE7918197FD04C09081981773
:104700000CF4892F339696E0E33EF907A1F7992739
:1047100087FD90959093C8058093C70508950F93E2
:104720001F93DF93CF930F92CDB7DEB70E9428235C
:104730008F3F11F481E003C0853029F482E00E94AC
:10474000891D8FEF45C0282F332727FD309589011C
:10475000000F111F020F131F0D52194FD80112968F
:104760002C9112979C91291784F589830E944714F4
:10477000F80192819F5F9283E091FB06F091FC0625
:104780001482E5E1F6E08981992787FD9095A92FAC
:10479000B92F63E02081223089F422853385448556
:1047A0005585281739074A075B0741F46283178646
:1047B000168610821286138614861586B79626E012
:1047C000E83DF20739F70E9449140E94782381E0FE
:1047D0000F90CF91DF911F910F9108950F931F9329
:1047E000DF93CF930F92CDB7DEB70E9428238F3F80
:1047F00011F481E003C0853029F482E00E94891D14
:104800008FEF42C089830E9447148981082F1127A6
:1048100007FD1095F801EE0FFF1FE00FF11FED529D
:10482000F94F92819923B1F4E091FB06F091FC06D7
:10483000978192609783992787FD9095A92FB92F2B
:10484000818B928BA38BB48B0E94491480E090E003
:104850000E94B526F801EE0FFF1FE00FF11FED5289
:10486000F94F828181508283A091FB06B091FC06B2
:1048700081811B968C931B9781E014968C930E94E8
:1048800049140E94782381E00F90CF91DF911F910E
:104890000F910895E091F006F091F1064091C7055F
:1048A0005091C80527E230E08081682F70E0629F58
:1048B000D001639FB00D729FB00D1124A25FB94F5C
:1048C00091966C91919770E06417750724F00380BE
:1048D000F481E02DE9CF0895E091F006F091F10622
:1048E00003C00380F481E02D3097D9F70895CF926B
:1048F000DF92EF92FF920F931F93CF93DF93E0919C
:104900000C06F0910D06309709F491C02091F00645
:104910003091F1062115310509F44DC0D90167E246
:1049200070E0482F552747FD5095469FE001479F6F
:10493000D00D569FD00D1124C25FD94FAE014B5EF2
:104940005F4F9BE1E92EF12CEC0EFD1E0C91002334
:10495000A1F110E0069F6001079FD00C169FD00CBC
:104960001124CEE0D6E0CC0EDD1EE6010D891E89B5
:104970000115110581F4EA0108811981011511055C
:1049800099F4E70108811981E601CB8CDC8C0C15C8
:104990001D0550F412C0EA01C880D980C114D104A9
:1049A00061F0C016D10648F013960D90BC91A02D71
:1049B000109761F602C0A0E0B0E08083C381D4818B
:1049C000D0930D06C0930C06A217B307B1F410974D
:1049D00049F0B483A383128211821296FC93EE9362
:1049E000119706C01482138212821182FA83E9831E
:1049F000F093F106E093F0061AC011968D919C9108
:104A00001297AC17BD0759F092838183B483A383B7
:104A10001196CD91DC911297FC83EB8304C0148234
:104A20001382928381831296FC93EE931197DF9108
:104A3000CF911F910F91FF90EF90DF90CF9008954D
:104A4000CF93DF93E091F006F091F106309709F4EF
:104A500044C0992787FD9095208130E028173907B9
:104A600081F4A381B481B093F106A093F00612966D
:104A70001C921E92119718C00380F481E02D30978C
:104A800061F1208130E028173907B1F7C181D28167
:104A9000838194819C838B83A381B481109721F0BF
:104AA0001296DC93CE931197A0910C06B0910D064F
:104AB000109739F4F0930D06E0930C0614821382DC
:104AC0000AC0B483A3831296FC93EE931197F093DC
:104AD0000D06E0930C0612821182DF91CF910895AA
:104AE000EF92FF920F931F93CF93DF93EC016981B5
:104AF0007A814B815C818D819E810E94E630BC0170
:104B00008F81882369F04B815C81CE0120E030E009
:104B100000E010E0EE24FF240E94D0151F8215C093
:104B20002881332727FD309587E290E0289FF00108
:104B3000299FF00D389FF00D1124E25FF94F818518
:104B4000833009F04AC0718360832881332727FDB1
:104B5000309587E290E0289FF001299FF00D389F63
:104B6000F00D1124E25FF94F85899689009729F4A9
:104B700082E0818788810E947724DE01939680E01D
:104B800090E027E230E061E05D914881552381F0BB
:104B9000552747FD5095429FF001439FF00D529FCE
:104BA000F00D1124E25FF94FE80FF91F62A30FC067
:104BB000552747FD5095429FF001439FF00D529FAE
:104BC000F00D1124E25FF94FE80FF91F12A20196D0
:104BD00085309105C9F681E001C08FEFDF91CF915B
:104BE0001F910F91FF90EF9008951F93DF93CF9344
:104BF000CDB7DEB728970FB6F894DEBF0FBECDBF96
:104C000029833A834B835C836D837E838F8398876C
:104C10000E9447140E946F2F182FCE0101960E9408
:104C200069299C018330910560F0E091FB06F091C9
:104C3000FC06210F311D368B258B0E94491481E023
:104C400001C08FEF28960FB6F894DEBF0FBECDBF20
:104C5000CF91DF911F9108950E94DB30E091FB0618
:104C6000F091FC0685818823B9F70895FF920F9390
:104C70001F93DF93CF93CDB7DEB728970FB6F89485
:104C8000DEBF0FBECDBF29833A834B835C836D8328
:104C90007E838F8398870E94B6200E944714E091FC
:104CA000FB06F091FC0681E0858381E090E090A313
:104CB000878F0E946F2FF82ECE0101960E946929DE
:104CC000E091FB06F091FC060F2D10E09801280FF3
:104CD000391F368B258B8F2D883F78F40E94692FE2
:104CE0000F5F1F4F282F30E00217130734F48F2D6A
:104CF0008E5F809345050E946C2F0E9449140E948C
:104D00002C2681E028960FB6F894DEBF0FBECDBFEB
:104D1000CF91DF911F910F91FF9008951F930E94F3
:104D20004714E091FB06F091FC0681E085838683C1
:104D30000E946F2F182F883F88F40E94692F212F1F
:104D400030E02F5F3F4F482F50E02417350734F4F1
:104D5000812F8E5F809345050E946C2F0E9449141D
:104D60000E942C2681E01F9108951F93CF93DF931B
:104D7000EC010E944714E091FB06F091FC0681E0F3
:104D80008583D68BC58B0E946F2F182F883F88F4A0
:104D90000E94692F212F30E02F5F3F4F482F50E0B6
:104DA0002417350734F4812F8E5F809345050E94C8
:104DB0006C2F0E9449140E942C2681E0DF91CF9134
:104DC0001F910895EF92FF920F931F93DF93CF935C
:104DD0000F92CDB7DEB78C010E944714E091FB061D
:104DE000F091FC0681E085830E946F2FE091FB0625
:104DF000F091FC06E82EFF240E0D1F1D168B058B6F
:104E0000883F90F489830E94692F0894E11CF11C6B
:104E1000282F30E09981E216F30634F4892F8E5F53
:104E2000809345050E946C2F0E9449140E942C26F5
:104E300081E00F90CF91DF911F910F91FF90EF9044
:104E400008951F93CF93DF93EC010E94B620209723
:104E500011F4C1E0D0E00E944714E091FB06F0910C
:104E6000FC0681E08583D0A3C78F0E946F2F182F87
:104E7000883F88F40E94692F212F30E02F5F3F4F39
:104E8000482F50E02417350734F4812F8E5F80932C
:104E900045050E946C2F0E9449140E942C2681E037
:104EA000DF91CF911F9108951F930E94B6200E9419
:104EB0004714E091FB06F091FC0681E090E090A39E
:104EC000878F81E085830E946F2F182F883F88F499
:104ED0000E94692F212F30E02F5F3F4F482F50E075
:104EE0002417350734F4812F8E5F809345050E9487
:104EF0006C2F0E9449140E942C2681E01F91089576
:104F0000E091FB06F091FC0680850E942025E0914F
:104F1000FB06F091FC0684E081870E94542781E023
:104F200008958F929F92AF92BF92CF92DF92EF92AD
:104F3000FF920F931F93DF93CF93CDB7DEB76097A8
:104F40000FB6F894DEBF0FBECDBF29873A874B87D7
:104F50005C876D877E878F87988BCE0101960E9434
:104F6000ED27CE01099609851A852B853C854D854F
:104F70005E856F85788989809A80AB80BC80CD8082
:104F8000DE80EF80F8840E944B288F3F61F02985F6
:104F90003A854B855C856D857E858F8598890E94D5
:104FA000362681E001C08FEF60960FB6F894DEBF21
:104FB0000FBECDBFCF91DF911F910F91FF90EF906A
:104FC000DF90CF90BF90AF909F908F900895E09129
:104FD000FB06F091FC0680850895EF92FF920F93F7
:104FE0001F93CF93DF93EC011C821D821E821F82D0
:104FF0008091F2069091F306A091F406B091F50627
:1050000088839983AA83BB83E090F606F090F70625
:105010000091F8061091F906EC82FD820E831F8341
:105020000E946F2F682F70E080E090E023EB36EE57
:105030004EE050E00E943A4A6E0D7F1D801F911F86
:105040006C837D838E839F8313C080509A4CAA49C2
:10505000BB438C839D83AE83BF8388819981AA8162
:10506000BB810196A11DB11D88839983AA83BB834F
:105070008C819D81AE81BF8180302AEC92072AE924
:10508000A2072BE3B20708F7DF91CF911F910F9191
:10509000FF90EF9008958F929F92AF92BF92CF9220
:1050A000DF92EF92FF920F931F93DF93CF93CDB7D1
:1050B000DEB760970FB6F894DEBF0FBECDBFFC0120
:1050C00009831A832B833C834D835E836F837887A8
:1050D00089869A86AB86BC86CD86DE86EF86F88A80
:1050E000E980FA800B811C812D813E814F8158859A
:1050F000A984BA84CB84DC848D859E85AF85B889EC
:10510000EA14FB040C051D0508F440C0AE14BF04EE
:10511000C006D10691F4281739074A075B07B0F19A
:10512000281B390B4A0B5B0B24833583468357833B
:10513000108211821282138227C0281739074A076A
:105140005B0790F40894E108F10801091109EA18D5
:10515000FB080C091D09E082F182028313832050B1
:1051600036434546544C08C0EA18FB080C091D0993
:10517000E082F18202831383281B390B4A0B5B0BFD
:10518000248335834683578381E001C08FEF609687
:105190000FB6F894DEBF0FBECDBFCF91DF911F9148
:1051A0000F91FF90EF90DF90CF90BF90AF909F90C6
:1051B0008F900895FC0114C020503A4C4A495B433B
:1051C00024833583468357832081318142815381F3
:1051D0002F5F3F4F4F4F5F4F208331834283538375
:1051E000248135814681578120308AEC38078AE94D
:1051F00048078BE3580700F708958F929F92AF926C
:10520000BF92CF92DF92EF92FF920F931F93DF93A3
:10521000CF93CDB7DEB760970FB6F894DEBF0FBE61
:10522000CDBF09831A832B833C834D835E836F83B9
:10523000788789869A86AB86BC86CD86DE86EF86A1
:10524000F88A29853A854B855C85E980FA800B814F
:105250001C812E0D3F1D401F511FFC0120833183F7
:10526000428353832D853E854F855889ED80FE808E
:105270000F8118852E0D3F1D401F511F248335833C
:10528000468357830E94DA2881E060960FB6F8942F
:10529000DEBF0FBECDBFCF91DF911F910F91FF9069
:1052A000EF90DF90CF90BF90AF909F908F90089538
:1052B0006093F2067093F3068093F4069093F506DC
:1052C0002093F6063093F7064093F8065093F906BC
:1052D00008958F929F92AF92BF92CF92DF92EF92FA
:1052E000FF920F931F93FC012081318142815381F2
:1052F00064817581868197812115310541055105AC
:1053000009F461C0223431054105510508F062C03D
:105310005B016C01EE24FF24870160E038C08A2C19
:10532000AB2DA653F1E0AB1508F0F0E08C2D8656BE
:1053300091E08C1508F090E0F80F71E0F81708F094
:1053400070E0972B7D2D755CE1E07D1508F0E0E0C5
:10535000970F81E0971708F080E08E2B8E0DE1E02B
:105360008E1508F0E0E0EF0D71E0EF1508F070E049
:10537000700FB1E0701708F0B0E0B10FA82CBA2E92
:10538000CF2ED92EE82EFE2E072F1B2F6F5F862FD4
:1053900090E0A0E0B0E082179307A407B50708F4F7
:1053A000BECF9501A601B701C801A3EBAA2EF6EE68
:1053B000BF2EEEE0CE2EDD24EE24FF2400E010E030
:1053C0000E94BE3C09C023EB36EE4EE050E00E9446
:1053D0006D4A02C020E030E0C9011F910F91FF909B
:1053E000EF90DF90CF90BF90AF909F908F900895F7
:1053F000EF92FF920F931F93DF93CF93CDB7DEB75A
:1054000028970FB6F894DEBF0FBECDBF7B018C018D
:10541000BAE016950795F794E794BA95D1F7E98223
:10542000FA820B831C8373708070907023EB36EECE
:105430004EE050E00E943A4A6D837E838F839887C6
:105440002E2D3A814B815C8128960FB6F894DEBFF1
:105450000FBECDBFCF91DF911F910F91FF90EF90C5
:1054600008958F929F92AF92BF92CF92DF92EF9268
:10547000FF920F931F93FC01208131814281538160
:10548000648175818681978121153105410551051A
:1054900009F45BC05B016C01EE24FF24870160E02E
:1054A00038C08A2CAB2DA653F1E0AB1508F0F0E024
:1054B0008C2D865691E08C1508F090E0F80F71E085
:1054C000F81708F070E0972B7D2D755CE1E07D15F5
:1054D00008F0E0E0970F81E0971708F080E08E2B4E
:1054E0008E0DE1E08E1508F0E0E0EF0D71E0EF15B4
:1054F00008F070E0700FB1E0701708F0B0E0B10F85
:10550000A82CBA2ECF2ED92EE82EFE2E072F1B2F19
:105510006F5F862F90E0A0E0B0E082179307A407AA
:10552000B50708F4BECF9501A601B701C801E3EBAA
:10553000AE2E06EEB02E1EE0C12EDD24EE24FF249A
:1055400000E010E00E94BE3C06C023EB36EE4EE0C9
:1055500050E00E946D4AB901CA011F910F91FF905E
:10556000EF90DF90CF90BF90AF909F908F90089575
:105570000F931F9301E012E00E94B6200E94692F52
:10558000853128F40093EF060E94DB3008C08AE0E2
:1055900090E00E94D82E1093EF060E94CF308091A9
:1055A0004705853519F088E00E94D81E80917E104D
:1055B000853511F388E00E94D81EDECF4F925F92AE
:1055C0006F927F928F929F92AF92BF92CF92DF9213
:1055D000EF92FF920F931F93DF93CF930F92CDB76C
:1055E000DEB70E94682F0E9447148AEF0E946C2F3A
:1055F0000E94C8300E94682D00914505602F70E020
:1056000080E090E023EB36EE4EE050E00E943A4A14
:105610006B017C018091F6069091F706A091F80647
:10562000B091F906C80ED91EEA1EFB1EC701B601CD
:105630000E946D4AC61AD70AE80AF90AC092F6060D
:10564000D092F706E092F806F092F906E091FB0698
:10565000F091FC068085882381F58091EF068230E9
:1056600019F4802F0E94DB16E091FB06F091FC06F6
:105670008085609145050E94C017E091FB06F0917E
:10568000FC06808560E00E948D188091F206909162
:10569000F306A091F406B091F506C090F606D090FE
:1056A000F706E090F806F090F90663EB862E66EEBA
:1056B000962E6EE0A62EB12C1DC09581992311F077
:1056C000602FE1CF602F0E94C017DFCF80E096E30C
:1056D000A5E6B4ECC80ED91EEA1EFB1EC701B60132
:1056E000A50194010E946D4AC61AD70AE80AF90A70
:1056F000D301C2012C013D010894411C511C611CC5
:10570000711CE0E0CE16EAECDE06EAE9EE06EBE319
:10571000FE06E0F68093F2069093F306A093F4065B
:10572000B093F506C092F606D092F706E092F8061E
:10573000F092F906E091FB06F091FC068581882342
:10574000B9F081858430A1F08781823029F08823E7
:1057500041F08681882311F485E001C083E08187D0
:1057600004C083E081871782168280850E942025ED
:10577000E091FB06F091FC06858D968D0097E9F18E
:1057800080858823D1F191859430B9F1418D528D76
:105790002091450530E04217530788F40E941817FE
:1057A000E091FB06F091FC0682E060850E94C11E3C
:1057B000E091FB06F091FC06128E118E04C0421B94
:1057C000530B528F418FE091FB06F091FC06008550
:1057D000218D328D2115310581F4802F0E941817FB
:1057E00083E0602F0E94C11EE091FB06F091FC0651
:1057F00083E08187802F0E94202553E1652E56E0AB
:10580000752E00E61AEE20E041E0442E512C3AEFCE
:10581000C32ED12C92E0F92E81E0882E912CA12C60
:10582000B12CD30113968C9113978F3F09F4C4C008
:105830001C92882309F443C014968C9114978430E9
:10584000F1F150964D915C9151978091450590E012
:105850004817590738F0481B590B51965C934E93E3
:10586000509703C0F301118A108AD30152964D91CB
:105870005C9153974817590738F0481B590B5396BA
:105880005C934E93529712C0F3016689778986170D
:10589000970728F4681B790B738B628B07C00E94F3
:1058A000594AD30153969C938E935297F301828960
:1058B0009389009721F486899789938B828BD301F2
:1058C00014968C911497833009F076C050968D9180
:1058D0009C915197009709F066C012968C9112978F
:1058E0008823A9F011968C911197882381F0D50116
:1058F000C4010090E30604C0880F991FAA1FBB1FB4
:105900000A94D2F7F30184879587A687B787D301D6
:1059100012961C92129711961C9211971C925A96ED
:105920004D915C915B9756968D919C9157975896A7
:105930006D917C91599741305105D9F455967C93DE
:105940006E9354971496FC92149752964D915C91D5
:10595000539751965C934E935097009721F451962C
:10596000DC92CE925097822F29830E94772429813E
:105970001AC0F301758B648BBA0161507040689F47
:10598000A001699F500D789F500D1124518B408BC1
:10599000538B428B009711F4D18AC08AD3015B9656
:1059A0005C924E925A97F30180899189009721F079
:1059B0008017910708F48C012F5F87E290E0680E52
:1059C000791E253009F02DCFE091FB06F091FC0601
:1059D00080850E945B170E944A24F82E482F552785
:1059E00047FD509527E230E0429FF001439FF00DC4
:1059F000529FF00D1124E25FF94F82858093FD06DE
:105A0000F093E506E093E406FF2099F0258D368DAE
:105A10002115310551F0218D328D2A3F310528F4B1
:105A200020173107F8F489011DC00B3F1105D0F094
:105A300014C005311105B0F09801245130402A3FBF
:105A4000310538F489012331310560F403E110E0B8
:105A500009C091E00E30190719F00AEF10E002C0FA
:105A600006EE10E08093EE06F093FC06E093FB0652
:105A7000009345050E946F2F282F30E02F5F3F4F86
:105A80002017310740F00E946F2F082F10E00E5FA3
:105A90001F4F00934505FF2011F01092EF06802F55
:105AA0000E946C2F0E9430310E94933C0F90CF9146
:105AB000DF911F910F91FF90EF90DF90CF90BF90FB
:105AC000AF909F908F907F906F905F904F900895D0
:105AD0002F923F924F925F926F927F928F929F92FE
