:100000000C9438050C94562E0C9457050C945705F7
:100010000C9457050C9457050C9457050C945705F0
:100020000C9457050C94F92D0C9457050C94570516
:100030000C9457050C9457050C9457050C94752D8A
:100040000C94752D0C9457050C9457050C9457057A
:100050000C9457050C9457050C9457050C945705B0
:100060000C9457050C9457050C9457050C945705A0
:100070000C9457050C9457050C9457050C94570590
:100080000C9457050C9457050C945705FA1C001D49
:10009000031D061D091D0C1D121D0F1D151D181D0C
:1000A0001B1D241D271D2A1D2D1D211DF71CFD1C98
:1000B000301D331D1E1DF41C08000000BE92244993
:1000C000123EABAAAA2ABECDCCCC4C3E000000808A
:1000D000BEABAAAAAA3E00000000BF000000803FFD
:1000E0000000000000084178D3BB4387D1133D19BD
:1000F0000E3CC3BD4282AD2B3E68EC8276BED98FEA
:10010000E1A93E4C80EFFFBE01C4FF7F3F0000002D
:10011000000007634236B79BD8A71A39685618AE55
:10012000BAAB558C1D3CB7CC5763BD6DEDFD753E2C
:10013000F6177231BF000000803F0D0A4E616E6FEE
:100140002D524B205461736B205374617469737426
:100150006963733A0D0A000D0A000D0A2020204F32
:10016000766572666C6F77204572726F7220537479
:10017000617475733A20000D0A2020204B65726E61
:10018000656C2056696F6C6174696F6E733A2000FC
:100190000D0A202020507265656D7074696F6E7352
:1001A0003A20000D0A202020537761702D696E736C
:1001B0003A20000D0A20202054696D65205B4D69AE
:1001C0006E2C4C6173742C4D61785D3A20000D0AE1
:1001D000202020546F74616C204350553A20000D4C
:1001E0000A20202049646C65205461736B204465AB
:1001F000657020536C6565702054696D653A200008
:100200000D0A202020546F74616C2053797374653B
:100210006D20557074696D653A2000205461736BD0
:100220002049443A2000554E4B4F574E00457874B4
:1002300065726E616C2052657365740042726F77EF
:100240006E204F757420446574656374004661695F
:100250006C656420746F20637265617465205365FA
:100260006D6170686F7265004661696C65642074C9
:100270006F20637265617465205369676E616C00FD
:100280004B65726E656C2066756E6374696F6E2067
:100290006E6F7420696D706C656D656E7465640059
:1002A000446576696365204472697665722045729B
:1002B000726F72005761746368646F672052657370
:1002C00074617274005357205761746368646F6778
:1002D00020526573746172740054696D6572204FA9
:1002E000766572666C6F7700556E68616E646C65DA
:1002F0006420496E746572727570742056656374FB
:100300006F72004C6F7720566F6C746167650045A3
:1003100078747261205461736B20737461727465B8
:10032000642C206973206E726B5F6366672E682091
:100330006F6B3F0049646C65206F72204B65726E75
:10034000656C20537461636B204F766572666C6FC9
:100350007700556E657870656374656420526573C7
:1003600074617274004475706C69636174656420B3
:100370005461736B204944005363686564756C6510
:1003800072204D69737365642057616B65757000E9
:100390005461736B20526573657276652056696F80
:1003A0006C61746564005265736572766520457290
:1003B000726F7220696E205363686564756C657234
:1003C00000496E76616C696420537461636B2050E0
:1003D0006F696E746572005461736B20537461634E
:1003E0006B204F766572666C6F7700537461636B38
:1003F00020776173206E6F7420646566696E656432
:10040000206173206C6172676520656E6F75676827
:1004100021005461736B20706572696F6420746F82
:100420006F206C617267652E20506572696F642061
:100430006D757374206265206C65737320746861D8
:100440006E203631207365636F6E64732E00293A17
:1004500020002A4E524B204552524F5228000D0A7E
:10046000535441434B2044554D500D0A0008082A6F
:100470001C08081C2A080840444A514040514A447C
:100480004014741C171410207F01010000000000AC
:100490000000000000081C2C08087F010101010178
:1004A0000101017F7F40404040404040407F0000CC
:1004B000000000000000000000000000007911278B
:1004C00011790000000000000000000000000000A2
:1004D000007F01010103605048447E3E4949493E86
:1004E000700C030C706349494963017F017F01630C
:1004F0005549414106017E010608557F55080F10F8
:100500007F100F4E7101714E384444384400000092
:10051000000000005F00000300030000143E143ED2
:100520001426497F493262152A54233649562050F1
:100530000003000000001C2241000041221C0000BA
:10054000140E140008083E080800600000000808A7
:10055000080800004000000060100804033E41410C
:10056000413E04027F00006251494542224149490F
:10057000360C0B087E084F494949313E49494932FA
:1005800061110905033649494936264949493E0062
:10059000220000000061000000081414222214143C
:1005A000141414222214140806015905023E415D58
:1005B000555E7E0909097E7F494949363E414141E0
:1005C000227F4141413E7F494949417F0909090153
:1005D0003E414949327F0808087F00007F00002023
:1005E0004040403F7F081422417F404040007F024E
:1005F00004027F7F021C207F3E4141413E7F09096A
:1006000009063E4151617E7F09192946264949491B
:100610003201017F01013F4040403F1F2040201F29
:100620003F4030403F6314081463030478040361BF
:10063000514945437F4100000000000000000000D8
:1006400000417F060106000040404040400102009A
:10065000000020545454787F48484830384444447B
:1006600028384444447F3854545418087E090901FA
:100670000C5252523E7F04040478047D40402020F6
:100680004040443D007F102844203E5149467C04B0
:100690007C04787C0804047838444444387E121280
:1006A000120C0C1212127E0478040408485454549C
:1006B00024043F4444403C40403C401C2040201C1B
:1006C0003C4030403C4428102844264848483E449A
:1006D00064544C4400083E410000007F000000418B
:1006E0003E080000000000000000000000000000C4
:1006F00000000000000000000000000020483E094B
:10070000020000000000000000000004047F040458
:1007100000000000000000000000000000000000D9
:1007200000000000000000000000000000000000C9
:1007300000000000000000000000000000000000B9
:1007400000000000000000000000000002040102A0
:100750000000000000000018180000000000000069
:100760000000000000000000000000000000000089
:100770000000000000000000000000000000000079
:100780000000000000000000000000000000000069
:10079000000000007900000000000000487E494988
:1007A00042000000000015167C1615000000000035
:1007B0000A5555552800010001003E635D6B3E005F
:1007C0000000000008142A142200000000000000AD
:1007D0000000003E41754B3E010101010100020590
:1007E0000200000000000000000000000000000007
:1007F0000000000000000000000000060F7F017FE5
:1008000000000000000000000000000000000007E1
:100810000507000022142A14080F003C20780F005E
:1008200048645800000000003048454020000000A7
:100830000000000000000000000000007229292ACA
:10084000717825242578702A252A707E097F4949E8
:100850000E5151711100000000007C5456554400A7
:100860000000000000000000000000000000000088
:100870000000000000000000000000000000000078
:1008800000007A0911227900000000000000000039
:100890000000000000003A454546393D4242423DD5
:1008A00022140814225C322A261D000000000000D9
:1008B0000000000000000000003C4140413C0000FE
:1008C000000000000000000000000000002055565D
:1008D00054782054565578205655567822515556FE
:1008E000792055545578000000000024547854585D
:1008F0000C525272123855565418385456551838EE
:1009000056555618385554551800497A4000004835
:100910007A4100004A794200004A78420000000013
:1009200000007A11090A7130494A483030484A4972
:1009300030304A494A303249494A31304A484A30CF
:1009400008082A080818643C2618384142207838DC
:1009500040422178384241227838424022780000D3
:1009600000000000000000000C5150513C6E616E10
:1009700000696E660000407A10F35A00A0724E18AB
:10098000090010A5D4E80000E87648170000E40B41
:1009900054020000CA9A3B000000E1F50500008007
:1009A000969800000040420F000000A08601000061
:1009B00000102700000000E80300000000640000B1
:1009C0000000000A00000000000100000000002CF0
:1009D00076D888DC674F0823DFC1DFAE59E1B1B7B5
:1009E00096E5E3E453C63AE651997696E8E6C28482
:1009F00026EB898C9B62ED407C6FFCEFBC9C9F409A
:100A0000F2BAA56FA5F490055A2AF75C936B6CF9BE
:100A1000676DC11BFCE0E40D47FEF520E6B500D094
:100A2000ED902E0300943577050080841E080000A9
:100A3000204E0A000000C80C333333330F986E1277
:100A4000831141EF8D2114893BE65516CFFEE6DB7D
:100A500018D1844B381BF77C1D901DA4BBE42420C7
:100A60003284725E228100C9F124ECA1E53D2700A9
:100A700011241FBECFEFD0E1DEBFCDBF12E0A0E05A
:100A8000B1E0E8E2F9E900E00BBF02C007900D9287
:100A9000AE3DB107D9F717E0AEEDB2E001C01D924F
:100AA000AF3EB107E1F70E94B4060C94924C0C944F
:100AB0004B2D81E090E00E94ED110E942F25F9CF8F
:100AC0008FEF90E00E94ED110E942F25F9CFDF9368
:100AD000CF93CDB7DEB728970FB6F894DEBF0FBE21
:100AE000CDBF00D000D080E091E0EDB7FEB792839B
:100AF000818385E690E0948383830E94474A85E062
:100B000090E0A0E0B0E089839A83AB83BC831D8230
:100B10001E821F8218860F900F900F900F9080E01A
:100B200090E0BE016F5F7F4F40E050E00E94CA2B13
:100B300080E090E00E94522C80E090E00E94F42B34
:100B400080E090E00E94ED110E942F25F5CF82E019
:100B500090E00E94ED110E942F25F9CFCF92DF92F5
:100B6000EF92FF920F931F93CF93DF93C5E9D3E0EA
:100B7000CE0167E675E00E94A52ECE0167E674E01F
:100B800040E850E00E94EB2E03E000939D0311E04B
:100B900010939C0310939E0310939F031092A00345
:100BA0001092A1031092A2031092A30380E092EC92
:100BB000ABEEBBE08093A4039093A503A093A603A0
:100BC000B093A70380E8C82E80EFD82E8AEFE82ED6
:100BD00082E0F82EC092A803D092A903E092AA0363
:100BE000F092AB031092AC031092AD031092AE03DF
:100BF0001092AF031092B0031092B1031092B2039F
:100C00001092B3031092B4031092B5031092B6037E
:100C10001092B703CE010E947B23C2E8D6E0CE013A
:100C200060E675E00E94A52ECE0160EC73E040E81E
:100C300050E00E94EB2E10938A06109389061093C1
:100C40008B0610938C0610928D0610928E061092D1
:100C50008F061092900680E891EDA0EFB8E08093A7
:100C6000910690939206A0939306B0939406C09237
:100C70009506D0929606E0929706F092980610920A
:100C8000990610929A0610929B0610929C0610925A
:100C90009D0610929E0610929F061092A00610923A
:100CA000A1061092A2061092A3061092A406CE01ED
:100CB0000E947B23C4E4D4E0CE0169E575E00E9484
:100CC000A52ECE0163E173E040E850E00E94EB2ED8
:100CD00000934C0410934B0410934D0410934E0456
:100CE00010924F041092500410925104109252042A
:100CF00080E091EEA5EFB5E0809353049093540407
:100D0000A0935504B0935604C0925704D09258044F
:100D1000E0925904F0925A0410925B0410925C0421
:100D200010925D0410925E0410925F0410926004B1
:100D30001092610410926204109263041092640491
:100D40001092650410926604CE010E947B2385E018
:100D500091E00E94594ADF91CF911F910F91FF902E
:100D6000EF90DF90CF9008950E94131287E090E0FB
:100D70000E9462120E94511380E090E00E940012D3
:100D80008FEF90E00E94001281E090E00E9400123C
:100D900082E090E00E94001260E070E0CB0120E071
:100DA00030E0A9010E9433270E94AE050E9414146E
:100DB00080E090E00895BF92CF92DF92EF92FF9291
:100DC0000F931F93DF93CF93CDB7DEB72A970FB65C
:100DD000F894DEBF0FBECDBFB82E8E010F5F1F4F40
:100DE000F80180E081938F5F8A30E1F72BE0E22EFB
:100DF000F12CEC0EFD1E94E1C92E91E0D92ED80104
:100E00008D918D0100D000D0EDB7FEB73196ADB712
:100E1000BEB71296DC92CE921197828313820E9403
:100E2000474A0F900F900F900F900E151F0539F73E
:100E300000D000D0EDB7FEB7319628E131E0ADB774
:100E4000BEB712963C932E931197B28213820E94E2
:100E5000474A0F900F900F900F90BB2DB23020F0AB
:100E60008B2D81500E94DB0680E02A960FB6F89405
:100E7000DEBF0FBECDBFCF91DF911F910F91FF90CD
:100E8000EF90DF90CF90BF90089590E09C012B50A1
:100E90003040220F331F220F331F865A9E4B820F82
:100EA000931FF894C09828E12FB9779BFECF9FB984
:100EB000779BFECF8FB9779BFECFC09A7894089529
:100EC000F894C0981FB8779BFECF8FB1C09A7894E2
:100ED00086FFF6CF0895809141010E9445108091D0
:100EE00040010E948B100895809141010E9445109D
:100EF000809140010E9445100895F894C09887E0C1
:100F00008FB9779BFECFC09AC09886E08FB9779B48
:100F1000FECFC09A78940895F894C09881E08FB974
:100F2000779BFECFC09A88EE93E00E94B22C789413
:100F300008958091BA060895FC01C09889EC8FB994
:100F4000779BFECF80E88FB9779BFECF82E0815000
:100F5000DF01A80FB11D9C919FB9779BFECF88231D
:100F6000B1F7C09AC0988BEC8FB9779BFECF80E821
:100F70008FB9779BFECF82E08150DF01A80FB11DB2
:100F800012969C9112979FB9779BFECF8823A1F769
:100F9000C09A80818093BB0681818093BC06828148
:100FA0008093BD0683818093BE0608958F929F92A1
:100FB000AF92BF92CF92DF92EF92FF920F931F9367
:100FC000DF93CF9300D000D0CDB7DEB7E82E092F46
:100FD00084E690E00E94B22CF02E20E031E08E01F9
:100FE0000F5F1F4FF3E0CF2ED12CCC0EDD1EF7018B
:100FF00091907F018824808190E0882999299A83A3
:10100000898384E690E02B833C830E94B22CC098B5
:101010002B813C81822F80688FB9779BFECFC901DD
:1010200095958795807C8FB9779BFECF5801F80105
:1010300081918FB9779BFECFEC15FD05C9F7C09A5A
:101040002E5F3F4FF1E020313F0789F684E690E0C4
:101050000E94B22C20E431E080E191E01A821982F2
:10106000C098422F40684FB9779BFECFA901559594
:101070004795407C4FB9779BFECFF80141914FB91E
:10108000779BFECFEC15FD05C9F7C09AC098482F95
:1010900040684FB9779BFECFAC0155954795407C92
:1010A0004FB9779BFECFF80141914FB9779BFECFA7
:1010B000EC15FD05C9F7C09A02962E5F3F4F41E03F
:1010C0008E31940759F681E090E09A838983C09825
:1010D0008EEC8FB9779BFECF80E88FB9779BFECFE0
:1010E000C8010296F80121912FB9779BFECFE8172E
:1010F000F907C9F7C09AC0988EE98FB9779BFECFE0
:1011000080E88FB9779BFECF0E5F1F4FF50181916D
:101110005F018FB9779BFECFA016B106B9F7C09AD1
:101120000F900F900F900F90CF91DF911F910F9123
:10113000FF90EF90DF90CF90BF90AF909F908F90F7
:101140000895C09889E18FB9779BFECF83E08FB96E
:10115000779BFECF86E08FB9779BFECFC09AC09871
:101160008AE18FB9779BFECF8EE08FB9779BFECF58
:101170008EE08FB9779BFECFC09A81E08093AB065B
:101180000895C09889E18FB9779BFECF81E08FB930
:10119000779BFECF84EC8FB9779BFECFC09A1092DD
:1011A000AB0608958091A9069091AA06089590E053
:1011B0008F719070806E906AC09825E12FB9779BEF
:1011C000FECF9FB9779BFECF8FB9779BFECFC09A9A
:1011D00008950E94450708958091AC069091AD0650
:1011E00098609093AD068093AC06C09881E18FB96A
:1011F000779BFECF8091AD068FB9779BFECF809114
:10120000AC068FB9779BFECFC09A08958091AC064B
:101210009091AD06977F9093AD068093AC06C098F1
:1012200081E18FB9779BFECF8091AD068FB9779B17
:10123000FECF8091AC068FB9779BFECFC09A089500
:1012400081E08093B9068091AC069091AD068061F3
:101250009093AD068093AC06C09881E18FB9779BDF
:10126000FECF8091AD068FB9779BFECF8091AC0603
:101270008FB9779BFECFC09A08951092B9068091DE
:10128000AC069091AD068F7E9093AD068093AC0630
:10129000C09881E18FB9779BFECF8091AD068FB961
:1012A000779BFECF8091AC068FB9779BFECFC09A1B
:1012B0000895DF93CF9300D0CDB7DEB79A838983AB
:1012C0009093B5068093B40684EF91E00E94B22C0F
:1012D000C0988AEE8FB9779BFECF80E88FB9779B55
:1012E000FECFFE013196CE01039621912FB9779B57
:1012F000FECFE817F907C9F7C09A84EF91E00E9482
:10130000B22C0F900F90CF91DF910895CF93DF9380
:10131000EC01862FC09898E09FB9779BFECFC09ACA
:10132000C09898E09FB9779BFECFC09A0E9445076E
:10133000D093AF06C093AE06DF91CF910895DF92B0
:10134000EF92FF920F931F93DF93CF9300D0CDB70F
:10135000DEB78C01D62E5A8349837901DD9A88EE57
:1013600093E00E94A212DE9881E090E00E94A21217
:10137000DE9A84E690E00E94A212F894C09881E080
:101380008FB9779BFECFC09A82EE92E09093AD0624
:101390008093AC06C09881E18FB9779BFECF809196
:1013A000AD068FB9779BFECF8091AC068FB9779B46
:1013B000FECFC09AC09882E18FB9779BFECF85E0BF
:1013C0008FB9779BFECF1FB8779BFECFC09AC0988E
:1013D0008CE18FB9779BFECF1FB8779BFECF8FE74D
:1013E0008FB9779BFECFC09AC09889E18FB9779B60
:1013F000FECF81E08FB9779BFECF84EC8FB9779BCE
:10140000FECFC09AC09887E18FB9779BFECF8AE163
:101410008FB9779BFECF86E58FB9779BFECFC09AB9
:1014200084EF91E00E94B22CC09888EE8FB9779B30
:10143000FECF80E88FB9779BFECFFE013196CE01BB
:10144000039621912FB9779BFECFE817F907C9F7CB
:10145000C09A84EF91E00E94B22C78948D2D0E9466
:10146000450778941093AF060093AE0689819A8160
:101470009093B3068093B206F092B506E092B4065C
:101480001092B0061092B6060E9460071092B9063C
:101490001092AB061092BA060F900F90CF91DF9189
:1014A0001F910F91FF90EF90DF90089581E080935E
:1014B000B606C09883E08FB9779BFECFC09AC098DC
:1014C00088E08FB9779BFECFC09A1092BF0608952F
:1014D00081E08093B606C09883E08FB9779BFECFFA
:1014E000C09AC09888E08FB9779BFECFC09A1092BF
:1014F000BF0608951092B606C09886E08FB9779B14
:10150000FECFC09A1092BF060895BF92CF92DF928D
:10151000EF92FF920F931F93DF93CF9300D00F9220
:10152000CDB7DEB78C016B017A010E94492DC098BE
:1015300088E08FB9779BFECFC09AC09888E08FB9BA
:10154000779BFECFC09A0E99FECF8499FCCFF8947A
:10155000C09889E08FB9779BFECFC09AC09889E088
:101560008FB9779BFECFC09AD80112965C911297E3
:10157000252F332727FD3095BB2440E00AC0D80132
:101580001396ED91FC911497E80FF91F8081B80E26
:101590004F5F842F90E0821793078CF3545FC098BD
:1015A0008EE38FB9779BFECF5FB9779BFECFC09A52
:1015B000F8018681882319F081E698E802C081E469
:1015C00098E89A838983C0988EE38FB9779BFECF82
:1015D000FE013196CE01039621912FB9779BFECF64
:1015E000E817F907C9F7C09AC0988EE38FB9779BBF
:1015F000FECF8091B0068FB9779BFECFC09AC0987E
:101600008EE38FB9779BFECF80E090E0FC01E2553E
:10161000F94F24812FB9779BFECF01968230910537
:10162000A9F7C09AC0988EE38FB9779BFECF80E070
:1016300090E0F801E80FF91F20812FB9779BFECFCA
:10164000019682309105A9F7C09AC0988EE38FB9B0
:10165000779BFECF80E090E0FC01E255F94F2681B8
:101660002FB9779BFECF019682309105A9F7C09ADA
:10167000C601B7010E94D52CD80115968C911597FB
:101680008823A9F18091B606882331F4C09883E0BD
:101690008FB9779BFECFC09AC0981FB8779BFECFBB
:1016A0008FB1C09A81FFF8CF20E0A5E0EA2EC09864
:1016B000EFB8779BFECFC09AC0981FB8779BFECF3C
:1016C000CFB0C09A2F5F253649F478948091A9064F
:1016D0009091AA060E94A82180E060C084E690E074
:1016E0002B830E94A2122B81C3FEE1CF06C0C098BB
:1016F00084E08FB9779BFECFC09AC0988EE38FB9F4
:10170000779BFECF40E00CC0D8011396ED91FC9181
:101710001497E80FF91F80818FB9779BFECF4F5F39
:10172000842F90E0F8012281332727FD309582171E
:10173000930754F3C09AC0988EE38FB9779BFECF7E
:10174000BFB8779BFECFC09A849BFECFF894849954
:10175000FECFC09888E08FB9779BFECFC09AC09823
:1017600088E08FB9779BFECFC09AC09889E08FB987
:10177000779BFECFC09AC09889E08FB9779BFECF48
:10178000C09AC09886E08FB9779BFECFC09A7894B4
:101790008091B0068F5F8093B00681E00F900F902C
:1017A0000F90CF91DF911F910F91FF90EF90DF90FD
:1017B000CF90BF900895FF920F931F93DF93CF9325
:1017C00000D0CDB7DEB7FC018091AB06882331F0A5
:1017D000C0988DE08FB9779BFECFC09A3281432F9E
:1017E000552747FD509520E060E007C0A381B481F4
:1017F000A80FB91F8C91280F6F5F862F90E0841778
:101800009507A4F3832F845F9091AB0691118C5FB1
:10181000C09898E09FB9779BFECFC09AC09898E097
:101820009FB9779BFECFC09A0E99FECF8499FCCFCB
:10183000F894C09899E09FB9779BFECFC09AC09862
:1018400099E09FB9779BFECFC09AC0989EE39FB95D
:10185000779BFECF8FB9779BFECFC09A81E498E843
:101860009A8389838091B906882321F081E698E8DC
:101870009A8389838091AB06882329F089819A8194
:1018800088609A838983C0988EE38FB9779BFECF57
:10189000DE011196CE0103963D913FB9779BFECFB5
:1018A000A817B907C9F7C09AC0988EE38FB9779B7C
:1018B000FECF8091B0068FB9779BFECFC09AC098BB
:1018C0008EE38FB9779BFECF80E090E0DC01A255DC
:1018D000B94F14963C9114973FB9779BFECF019670
:1018E0008230910599F7C09AC0988EE38FB9779BA3
:1018F000FECF80E090E0DF01A80FB91F3C913FB917
:10190000779BFECF019682309105A9F7C09AC098C7
:101910008EE38FB9779BFECF80E090E0DC01A2558B
:10192000B94F16963C9116973FB9779BFECF01961B
:101930008230910599F7C09A8091AB06882381F097
:10194000C0988EE38FB9779BFECFABEBB6E08D915D
:101950008FB9779BFECF86E0AF3BB807C1F7C09A3F
:10196000C0988EE38FB9779BFECF30E009C0A3818A
:10197000B481A80FB91F8C918FB9779BFECF3F5FC1
:10198000832F90E04281552747FD50958417950796
:1019900074F3C09AC0988EE38FB9779BFECF2FB9AE
:1019A000779BFECFC09A8581882391F18091B606FE
:1019B000882331F4C09883E08FB9779BFECFC09A1B
:1019C000C0981FB8779BFECF8FB1C09A81FFF8CF28
:1019D00010E005E0C0980FB9779BFECFC09AC09881
:1019E0001FB8779BFECFFFB0C09A1F5F153649F432
:1019F00078948091A9069091AA060E94A82180E07F
:101A000043C084E690E00E94A212F3FEE3CF06C03A
:101A1000C09884E08FB9779BFECFC09A7894849B5E
:101A2000FECF8499FECF8091B9068823F9F084EA2D
:101A300092E00E94A212B79B0BC0C0988FE78FB9AB
:101A4000779BFECF1FB8779BFECF8FB1C09A0EC099
:101A5000C09888E08FB9779BFECFC09AC09888E085
:101A60008FB9779BFECFC09A80E001C081E0F894E7
:101A7000C09896E09FB9779BFECFC09A78949091DA
:101A8000B0069F5F9093B0060F900F90CF91DF91BB
:101A90001F910F91FF90089581E0849B80E008954D
:101AA00081E00E9B80E0089581E0849B80E00895B2
:101AB000DF93CF9300D000D0CDB7DEB70E9BC7C168
:101AC0001092BA060E9B1AC0B79918C0C0988FE73B
:101AD0008FB9779BFECF1FB8779BFECF8FB1C09A8F
:101AE000C09888E08FB9779BFECFC09AC09888E0F5
:101AF0008FB9779BFECFC09A8FEFAAC1C0988FE7AE
:101B00008FB9779BFECF1FB8779BFECF4FB1C09A9E
:101B10004F77C1F4C0988FE78FB9779BFECF1FB87E
:101B2000779BFECF8FB1C09AC09888E08FB9779B22
:101B3000FECFC09AC09888E08FB9779BFECFC09A3D
:101B40008EEF86C14C3084F0E091AE06F091AF0686
:101B5000842F992787FD90950B972481332727FDA4
:101B60003095281739077CF5C0988FE78FB9779B98
:101B7000FECF50E0842F992787FD909504C01FB8B1
:101B8000779BFECF5F5F252F30E02817390714F4CD
:101B9000B799F5CFC09AC0988FE78FB9779BFECFE2
:101BA0001FB8779BFECF8FB1C09AC09888E08FB9DD
:101BB000779BFECFC09AC09888E08FB9779BFECF05
:101BC000C09A8DEF45C1E091AE06F091AF064C5042
:101BD0004383C0988FE78FB9779BFECFFE01319684
:101BE000CE0103961FB8779BFECF2FB12193E81744
:101BF000F907C1F7C09AE091AE06F091AF0699815E
:101C000081E095FF80E08783C0988FE78FB9779B4D
:101C1000FECF1FB8779BFECFE091AE06F091AF06E6
:101C20008FB18083C09AC0988FE78FB9779BFECF22
:101C300084E005C01FB8779BFECF815011F0B799A3
:101C4000F9CFC09AC0988FE78FB9779BFECF80E01D
:101C500090E01FB8779BFECFE091AE06F091AF0603
:101C60002FB1E80FF91F218301968230910589F782
:101C7000C09A898183FF4DC0C0988FE78FB9779B49
:101C8000FECFE5EAF6E01FB8779BFECF8FB18193D8
:101C900086E0E93AF807B9F7C09AC09889E98FB9A0
:101CA000779BFECF80E88FB9779BFECF82E0815093
:101CB000E82FF0E0EB55F94F90819FB9779BFECF6D
:101CC0008823A9F7C09AC0988BE98FB9779BFECF7C
:101CD00080E88FB9779BFECF82E08150E82FF0E05B
:101CE000E955F94F90819FB9779BFECF8823A9F7DB
:101CF000C09AC0988CE08FB9779BFECFC09A81E0E4
:101D00008093BA06E091AE06F091AF0683818450CD
:101D10008383C0988FE78FB9779BFECF40E00FC0D9
:101D20001FB8779BFECFE091AE06F091AF068FB162
:101D30000580F681E02DE40FF11D80834F5FE09177
:101D4000AE06F091AF06242F30E08381992787FDFE
:101D500090952817390724F3C09AC0988FE78FB958
:101D6000779BFECF1FB8779BFECF6FB1C09AC0980C
:101D70008FE78FB9779BFECFFE013396CE01059694
:101D80001FB8779BFECF2FB12193E817F907C1F752
:101D9000C09AE091AE06F091AF068B81808750E04B
:101DA00040E00CC0E091AE06F091AF060580F681F0
:101DB000E02DE80FF91F8081480F5F5FE091AE06CC
:101DC000F091AF06852F90E02381332727FD3095D2
:101DD000821793073CF34617C1F0C0988FE78FB97D
:101DE000779BFECF1FB8779BFECF8FB1C09AC0986C
:101DF00088E08FB9779BFECFC09AC09888E08FB9F2
:101E0000779BFECFC09A8CEF23C08C8187FF07C0E1
:101E10008091BF068F5F8093BF0681E019C0C09894
:101E20008FE78FB9779BFECF1FB8779BFECF8FB11F
:101E3000C09AC09888E08FB9779BFECFC09AC098AF
:101E400088E08FB9779BFECFC09A8BEF01C080E00E
:101E50000F900F900F900F90CF91DF910895809188
:101E6000BF06882329F08091BF061092BF0608950F
:101E700080E00895C09888E08FB9779BFECFC09A24
:101E8000C09888E08FB9779BFECFC09A08959927B4
:101E900087FD9095982F88278068C09823E12FB9F7
:101EA000779BFECF9FB9779BFECF8FB9779BFECFF5
:101EB000C09A0895C09886E08FB9779BFECFC09AEC
:101EC000C09882E18FB9779BFECF85E08FB9779B71
:101ED000FECF88E08FB9779BFECFC09AC0988EE284
:101EE0008FB9779BFECF88E18FB9779BFECF1FB864
:101EF000779BFECFC09A0E943A0F0895C09886E063
:101F00008FB9779BFECFC09AC09882E18FB9779B3B
:101F1000FECF85E08FB9779BFECF1FB8779BFECFB2
:101F2000C09AC0988EE28FB9779BFECF1FB8779B7F
:101F3000FECF1FB8779BFECFC09A0E943A0F08953C
:101F4000C09886E08FB9779BFECFC09AC09882E197
:101F50008FB9779BFECF85E08FB9779BFECF81E06D
:101F60008FB9779BFECFC09A0E943A0F0895C09810
:101F700082E18FB9779BFECF85E08FB9779BFECF4B
:101F800084E08FB9779BFECFC09A0E943A0F0895E4
:101F900090E08F7090702091AC063091AD06207F5C
:101FA000822B932B9093AD068093AC06C09881E171
:101FB0008FB9779BFECF8091AD068FB9779BFECF0F
:101FC0008091AC068FB9779BFECFC09A089590E0C0
:101FD00026E0880F991F2A95E1F790702091AC06B2
:101FE0003091AD062F73822B932B9093AD06809387
:101FF000AC06C09881E18FB9779BFECF8091AD068A
:102000008FB9779BFECF8091AC068FB9779BFECFBF
:10201000C09A0895C09884E08FB9779BFECFC09A8C
:102020000895C09886E08FB9779BFECFC09A089537
:102030005F9BFECF5F988CB108955D9BFECF5D984E
:102040008CB908958FEF0895882311F48BB104C0E3
:10205000813031F480919B00881F8827881F089564
:1020600080E00895CF93DF93EC0107C06091E7070C
:102070007091E80790E00E941B4AFE01219684912E
:102080008823A1F7DF91CF9108958F3F09F43FC0D6
:10209000982F96959695969521E030E002C0220FF4
:1020A000331F9A95E2F790E0877090708230910527
:1020B000D9F08330910534F4009771F081309105A7
:1020C00041F50EC084309105C1F0843091058CF04B
:1020D00085309105F1F415C08BB3822B8BBB07C003
:1020E00088B3822B88BB03C085B3822B85BB81E07C
:1020F000089582B3822B82BBFACF83B1822B83B93E
:10210000F6CF80916200822B80936200F0CF8FEF38
:1021100008958FEF08958F3F09F440C0982F96954A
:102120009695969521E030E002C0220F331F9A95D4
:10213000E2F7209590E08770907082309105D9F099
:102140008330910534F4009771F08130910541F5A9
:102150000EC084309105C1F0843091058CF085303B
:102160009105F1F415C08BB382238BBB07C088B3F4
:10217000822388BB03C085B3822385BB81E0089599
:1021800082B3822382BBFACF83B1822383B9F6CF95
:1021900080916200822380936200F0CF8FEF0895D8
:1021A0008FEF08958F3F89F1282F30E0277030702E
:1021B00022303105C1F0233031053CF421153105C1
:1021C00071F02130310509F50CC02430310579F06A
:1021D0002430310554F025303105B9F40AC029B353
:1021E00009C026B307C023B305C020B303C021B183
:1021F00001C020B130E086958695869502C0359560
:1022000027958A95E2F7217001C02FEF822F08955C
:10221000882319F080B58B7F02C080B5846080BDB3
:1022200081E008958F3F09F43FC0982F96959695C9
:10223000969521E030E002C0220F331F9A95E2F715
:1022400090E08770907082309105D9F083309105CD
:1022500034F4009771F08130910541F50EC084305F
:102260009105C1F0843091058CF085309105F1F431
:1022700015C08BB382278BBB07C088B3822788BB6E
:1022800003C085B3822785BB81E0089582B382278E
:1022900082BBFACF83B1822783B9F6CF80916200E7
:1022A000822780936200F0CF8FEF08958FEF08951B
:1022B0008F3F09F48CC0982F96959695969521E0BE
:1022C00030E002C0220F331F9A95E2F790E06623B8
:1022D00009F04AC0322F3095877090708230910596
:1022E00019F1833091053CF4009781F0813091051C
:1022F00009F06DC012C08430910521F18430910540
:10230000D4F08530910509F062C023C08AB38323DD
:102310008ABB8BB3822B8BBB58C087B3832387BB0D
:1023200088B3822B88BB51C084B3832384BB85B31D
:10233000822B85BB4AC081B3832381BB82B3822BAE
:1023400082BB43C082B1832382B983B1822B83B91C
:102350003CC0809161008323809361008091620082
:10236000822B8093620031C087709070823091051B
:10237000D9F08330910534F4009771F081309105E4
:1023800041F50EC084309105B9F08430910584F098
:1023900085309105F1F414C08AB3822B8ABB15C035
:1023A00087B3822B87BB11C084B3822B84BB0DC043
:1023B00081B3822B81BB09C082B1822B82B905C057
:1023C00080916100822B8093610081E008958FEFFE
:1023D00008958FEF08958FEF0895009711F480E02E
:1023E00009C08130910511F488E004C08230910564
:1023F00029F480E10E94121181E008958FEF089581
:10240000009711F480E009C08130910511F488E053
:1024100004C08230910529F480E10E94451081E0DA
:1024200008958FEF089580B5846080BD87E087BBF5
:1024300088BB8FEF84BB15BA82E082B987E68ABB7E
:1024400080E48BBB80E58DB981E08EB980E090E0BF
:102450000E94001281E090E00E94001282E090E071
:102460000E94001283E090E00E94001208950097FD
:1024700011F480E009C08130910511F488E004C0B6
:102480008230910529F480E10E948B1081E008954B
:102490008FEF089590919B0095FFFCCF90919B004A
:1024A0009F7D90939B0080939C0008959093900053
:1024B00089B986E0809395005298599A8AB18861CB
:1024C0008AB908950F931F93CF93DF930E945612FA
:1024D000CDE1D0E108E110E1CE01B8010E948E49C2
:1024E0009093E8078093E707CE01B8010E948E49D8
:1024F0009093E6078093E507DF91CF911F910F91AD
:102500000895909398008093990086E080939D00B1
:10251000EAE9F0E080818B7F8083ABE9B0E08C91C9
:1025200082608C93808188618083089580919B0074
:1025300087FFFCCF80919B008F7780939B008091D9
:102540009C00089500000000000000000197D1F7F2
:1025500008950E941E4B08950E94264B80E0089526
:10256000EF92FF920F931F93CF93DF93E82EE70133
:102570007E01F92EE70180E090E00E941E4B082FBB
:102580008B8381E090E00E941E4BE82E8A8382E0DC
:1025900090E00E941E4BF82E898383E090E00E9419
:1025A0001E4B182F888384E090E00E941E4BFE0C87
:1025B000F00EF10E8F1511F481E001C08FEFDF9165
:1025C000CF911F910F91FF90EF900895CF93DF93DC
:1025D000EC0185E090E00E941E4B888381E0DF9152
:1025E000CF910895FC0186E090E060810E94264B27
:1025F00081E00895CF93DF93EC0186E090E00E94A4
:102600001E4B888381E0DF91CF9108950F931F9334
:10261000CF93DF93082F192FC8E0D0E0CE010E949E
:102620001E4BF80181938F012196C831D105B1F776
:1026300081E0DF91CF911F910F9108950F931F9328
:10264000CF93DF93082F192FC8E0D0E0F8016191F4
:102650008F01CE010E94264B2196C831D105B1F7DA
:1026600081E0DF91CF911F910F910895CF93DF9378
:10267000EC0187E090E00E941E4B888381E0DF91AF
:10268000CF910895FC0187E090E060810E94264B85
:1026900081E00895F8940895789408950E944A136B
:1026A000FFCF0F931F93DF93CF93CDB7DEB7A397E1
:1026B0000FB6F894DEBF0FBECDBF0E94901F80936F
:1026C0006D078F3F21F48EE060E00E945B1D0E9449
:1026D0002B2E0E949B2E8F3F31F40E94802E80E192
:1026E00060E00E945B1D0E948D2E10927007109278
:1026F0007E0710927D0710926F0710926E0710925E
:102700007F070E94431510927C078FEF8093690723
:1027100080936B0780936A0793E69093CC0680932F
:10272000CA069093ED068093EB0690930E07809374
:102730000C0790932F0780932D0790935007809359
:102740004E07ECEBF7E020E030E001C09A01A90170
:102750004F5F5F4FCA01880F991F880F991F840F21
:10276000951F8754984F91838083C901880F991FC3
:10277000880F991F820F931F8754984F94838383E8
:1027800035964530510511F71092BB071092BA07E4
:102790001092D6071092D507109273071092720705
:1027A00089EB97E09093C1068093C0068E010F5F7E
:1027B0001F4FC80163E978E20E94A52EC80162E8B4
:1027C00075E040E850E00E94EB2E85E5809382059D
:1027D00019861C861D861E861F86188A198A1A8AE3
:1027E0001B8A1C8A1D8A1E8A1F8A188E198E1A8EB1
:1027F0001B8E1C8E1D8E1E8E1F8E18A219A21AA251
:102800001BA281E0888792E09A878B87C8010E948B
:102810007B23A3960FB6F894DEBF0FBECDBFCF913A
:10282000DF911F910F910895CF92DF92FF920F9346
:102830001F93DF93CF9300D0CDB7DEB7BAECCB2E8A
:10284000B6E0DB2E90E0F601F080FF2DFF3FB1F007
:102850000AEC16E020E0921761F0F8018081F8168A
:1028600041F485E06F2D29839A830E945B1D9A8134
:1028700029812F5F0F5D1F4F253069F79F5F21E290
:1028800030E0C20ED31E9530F1F60E9478229927CF
:1028900087FD9095FC01A5E0EE0FFF1FAA95E1F7DB
:1028A000E80FF91FEE53F94F828580937F07F0936D
:1028B0007E07E0937D07F0936F07E0936E078093A8
:1028C00070070E94202F0E94112F0E946D3AFFCFA7
:1028D000EF92FF920F931F93CF93DF93EC017B0155
:1028E0008A018985823021F080916C07888301C03C
:1028F000188280916C07853020F087E060E00E94AC
:102900005B1D8985823029F080916C078F5F8093F1
:102910006C0780916C07882319F481E080936C0721
:102920008881992787FD9095FC01A5E0EE0FFF1F98
:10293000AA95E1F7E80FF91FEE53F94FF182E08213
:10294000888582878881992787FD9095FC0175E0AD
:10295000EE0FFF1F7A95E1F7E80FF91FEE53F94FDD
:1029600083E081872881822F992787FD9095FC013C
:1029700065E0EE0FFF1F6A95E1F7E80FF91FEE53D0
:10298000F94F20878881992787FD90957C0155E034
:10299000EE0CFF1C5A95E1F7E80EF91E82EC96E06A
:1029A000E80EF91EF7011582CE010B960E9444270E
:1029B000F701948F838F8B859C85AD85BE858E3383
:1029C0009105A105B10520F086E168810E945B1D9B
:1029D000E880FF24E7FCF094CE014B960E94442748
:1029E000F70145E0EE0FFF1F4A95E1F7EE0DFF1DE1
:1029F000EE53F94F968B858B8881992787FD9095AB
:102A00007C0135E0EE0CFF1C3A95E1F7E80EF91E6B
:102A100082EC96E0E80EF91EF70185899689238DF0
:102A2000348D820F931F908F878BCE0143960E9427
:102A30004427F701968F858F8881992787FD909588
:102A4000FC0125E0EE0FFF1F2A95E1F7E80FF91FC3
:102A5000EE53F94F858D968D928F818F81E090E0B6
:102A600090A3878F1383028381E08487DF91CF91C6
:102A70001F910F91FF90EF9008950E94B92808953B
:102A800085E690E008951092B8031092B903109271
:102A9000BA031092BB031092BC031092BD031092B4
:102AA000BE031092BF03EBEEF4E01082118212829B
:102AB000138210861186128613861482158216825E
:102AC00017821486158616861786108A118A128A2E
:102AD000138A108E118E128E138E148E158E7E9682
:102AE00085E0E138F80709F70895682F70E080E085
:102AF00090E023EB36EE4EE050E00E941448209127
:102B0000BC033091BD034091BE035091BF03620FDF
:102B1000731F841F951F6093BC037093BD03809344
:102B2000BE039093BF0388EB93E00E94B5260895FF
:102B3000FC012091B8033091B9034091BA03509140
:102B4000BB0320833183428353832091BC033091A4
:102B5000BD034091BE035091BF0324833583468358
:102B600057830895E82FF0E09F01220F331FA5E05F
:102B7000EE0FFF1FAA95E1F7E21BF30BE551FB4FA8
:102B8000958D913089F1E82FF0E09F01220F331FDE
:102B900065E0EE0FFF1F6A95E1F7E21BF30BE551CD
:102BA000FB4F948D9F5FE82FF0E09F01220F331FB2
:102BB00045E0EE0FFF1F4A95E1F7E21BF30BE551ED
:102BC000FB4F948F9F3F81F4E82FF0E0CF01880FF7
:102BD000991F25E0EE0FFF1F2A95E1F7E81BF90B7F
:102BE000E551FB4F81E0858F0895E82FF0E09F01CC
:102BF000220F331F75E0EE0FFF1F7A95E1F7E21BFE
:102C0000F30BE551FB4F958D913009F452C0E82F3D
:102C1000F0E09F01220F331F55E0EE0FFF1F5A9582
:102C2000E1F7E21BF30BE551FB4F148A158A168A74
:102C3000178AE82FF0E09F01220F331F95E0EE0F77
:102C4000FF1F9A95E1F7E21BF30BE551FB4F20893B
:102C50003189428953892F5F3F4F4F4F5F4FE82F94
:102C6000F0E0BF01660F771FA5E0EE0FFF1FAA95EA
:102C7000E1F7E61BF70BE551FB4F208B318B428BC5
:102C8000538B2E3F9FEF39079FEF49079FEF59075F
:102C900081F4E82FF0E0CF01880F991F25E0EE0FB7
:102CA000FF1F2A95E1F7E81BF90BE551FB4F81E087
:102CB000858F0895EF92FF92CF93DF93A82FE82F8F
:102CC000F0E0CF01880F991F75E0EE0FFF1F7A9596
:102CD000E1F7E81BF90BE551FB4F858D813009F4D5
:102CE000B1C0EA2FF0E0CF01880F991F45E0EE0F49
:102CF000FF1F4A95E1F7E81BF90BE551FB4FEA2E60
:102D0000E7017E0120E0F22EE701C701880F991F3D
:102D100025E0CC0FDD1F2A95E1F7C81BD90BC55163
:102D2000DB4F288D398D4A8D5B8D2F5F3F4F4F4F85
:102D30005F4F208F318F428F538F70E080E090E0A3
:102D4000EA2FF0E09F01220F331F55E0EE0FFF1F27
:102D50005A95E1F7E21BF30BE551FB4FEA2EE70131
:102D60007E0120E0F22EE7019701220F331FB5E02C
:102D7000CC0FDD1FBA95E1F7C21BD30BC551DB4F5A
:102D80002C893D894E895F89260F371F481F591F9F
:102D9000248B358B468B578BEA2FF0E09F01220F57
:102DA000331F45E0EE0FFF1F4A95E1F7E21BF30BDF
:102DB000E551FB4FEA2EE7017E0120E0F22EE7010C
:102DC0009701220F331F55E0CC0FDD1F5A95E1F715
:102DD000C21BD30BC551DB4F288139814A815B81EE
:102DE000260F371F481F591F208331834283538387
:102DF000EA2FF0E0CF01880F991F35E0EE0FFF1F9B
:102E00003A95E1F7E81BF90BE551FB4F208D318D29
:102E1000428D538D2E3F8FEF38078FEF48078FEF8E
:102E2000580781F4EA2FF0E0CF01880F991FB5E031
:102E3000EE0FFF1FBA95E1F7E81BF90BE551FB4FC9
:102E400081E0858FDF91CF91FF90EF900895EF9211
:102E5000FF92CF93DF93E82FA82FB0E0CD01880F2A
:102E6000991F75E0AA0FBB1F7A95E1F7A81BB90B54
:102E7000A551BB4F5D968C915D97813009F4FAC0E6
:102E800070E080E090E0AE2FB0E09D01220F331F94
:102E900045E0AA0FBB1F4A95E1F7A21BB30BA55152
:102EA000BB4FEE2EE7017E0120E0F22EE7019701F5
:102EB000220F331F55E0CC0FDD1F5A95E1F7C21BDF
:102EC000D30BC551DB4F2C893D894E895F89260F75
:102ED000371F481F591F1C962D933D934D935C93AC
:102EE0001F97AE2FB0E09D01220F331FF5E0AA0F10
:102EF000BB1FFA95E1F7A21BB30BA551BB4FEE2EFA
:102F0000E7017E0120E0F22EE7019701220F331F37
:102F100045E0CC0FDD1F4A95E1F7C21BD30BC5512D
:102F2000DB4F288139814A815B81260F371F481F7B
:102F3000591F2D933D934D935C931397AE2FB0E0A3
:102F4000CD01880F991FF5E0AA0FBB1FFA95E1F795
:102F5000A81BB90BA551BB4F14962D913D914D91D6
:102F60005C9117972115310541055105C9F0AE2F28
:102F7000B0E0CD01880F991F65E0AA0FBB1F6A95CD
:102F8000E1F7A81BB90BA551BB4F1C968D919D91E4
:102F90000D90BC91A02D82179307A407B50750F59B
:102FA0008E2FEC017E0120E0F22EE701C701880F91
:102FB000991F45E0CC0FDD1F4A95E1F7C81BD90BDF
:102FC000C551DB4FAE2FB0E0CD01880F991F25E032
:102FD000AA0FBB1F2A95E1F7A81BB90BA551BB4F40
:102FE0001C968D919D910D90BC91A02D8C839D83FD
:102FF000AE83BF83AE2FB0E0CD01880F991F75E07F
:10300000AA0FBB1F7A95E1F7A81BB90BA551BB4FBF
:103010001C962D913D914D915C911F97AE2FB0E084
:10302000CD01880F991FF5E0AA0FBB1FFA95E1F7B4
:10303000A81BB90BA551BB4F18966D917D918D9131
:103040009C911B97621773078407950798F48E2F3E
:1030500090E0BC01660F771FFC0185E0EE0FFF1FBB
:103060008A95E1F7E61BF70BE551FB4F2087318787
:1030700042875387DF91CF91FF90EF9008958F9211
:103080009F92AF92BF92CF92DF92EF92FF921F93E7
:10309000DF93CF93CDB7DEB760970FB6F894DEBF5E
:1030A0000FBECDBF182F8BE192E00E94321000D0EE
:1030B00000D0EDB7FEB731968AE491E0ADB7BEB768
:1030C00012969C938E931197128313820E94474A03
:1030D0000F900F900F900F90112309F085C080E0A2
:1030E00092E00E943210CE0101960E94C825EDB7F1
:1030F000FEB73A970FB6F894FEBF0FBEEDBF8DB680
:103100009EB60894811C911C3DE4A32E31E0B32EA1
:10311000B282A18289819A81AB81BC81F4018283D0
:103120009383A483B5836D817E818F81988520E40C
:10313000C22E22E4D22E2FE0E22EF12CA70196011E
:103140000E944748D40116962D933D934D935C936E
:1031500019970E94474AEDB7FEB73A960FB6F89412
:10316000FEBF0FBEEDBF8FED91E00E9432108DB714
:103170009EB70A970FB6F8949EBF0FBE8DBF8DB64F
:103180009EB60894811C911CADB7BEB71296BC9236
:10319000AE9211978091B8039091B903A091BA03B0
:1031A000B091BB03F40182839383A483B5836091C0
:1031B000BC037091BD038091BE039091BF03A70132
:1031C00096010E944748D40116962D933D934D9346
:1031D0005C9319970E94474AEDB7FEB73A960FB62F
:1031E000F894FEBF0FBEEDBF8EEC91E00E9432104E
:1031F000E12FF0E0CF01880F991FA5E0EE0FFF1F30
:10320000AA95E1F7E81BF90BE551FB4F608171814D
:10321000828193810E94D32729873A874B875C87D5
:103220006D877E878F87988BDE011196FE01399618
:1032300088E001900D928150E1F78DB79EB70A9713
:103240000FB6F8949EBF0FBE8DBFCDB6DEB6089404
:10325000C11CD11C8DE491E0ADB7BEB712969C9312
:103260008E93119789819A81AB81BC81F60182830B
:103270009383A483B5836D817E818F81988520E4BB
:1032800032E44FE050E00E944748D60116962D9355
:103290003D934D935C9319970E94474AEDB7FEB753
:1032A0003A960FB6F894FEBF0FBEEDBF83EB91E0E8
:1032B0000E943210E12FF0E0CF01880F991F65E0E6
:1032C000EE0FFF1F6A95E1F7E81BF90BE551FB4F85
:1032D00064817581868197810E94D32729873A87E7
:1032E0004B875C876D877E878F87988BDE01119671
:1032F000FE01399688E001900D928150E1F78DB77B
:103300009EB70A970FB6F8949EBF0FBE8DBFCDB67D
:10331000DEB60894C11CD11C8DE591E0ADB7BEB7F7
:1033200012969C938E93119789819A81AB81BC816F
:10333000F60182839383A483B5836D817E818F811F
:10334000988520E432E44FE050E00E944748D601DF
:1033500016962D933D934D935C9319970E94474A7F
:10336000EDB7FEB73A960FB6F894FEBF0FBEEDBFAD
:10337000E12FF0E0CF01880F991F45E0EE0FFF1F0E
:103380004A95E1F7E81BF90BE551FB4F648575851C
:10339000868597850E94D32729873A874B875C8744
:1033A0006D877E878F87988BDE011196FE01399697
:1033B00088E001900D928150E1F78DB79EB70A9792
:1033C0000FB6F8949EBF0FBE8DBFCDB6DEB6089483
:1033D000C11CD11C8DE591E0ADB7BEB712969C9390
:1033E0008E93119789819A81AB81BC81F60182838A
:1033F0009383A483B5836D817E818F81988520E43A
:1034000032E44FE050E00E944748D60116962D93D3
:103410003D934D935C9319970E94474AEDB7FEB7D1
:103420003A960FB6F894FEBF0FBEEDBFE12FF0E065
:10343000CF01880F991F25E0EE0FFF1F2A95E1F7B6
:10344000E81BF90BE551FB4F6085718582859385FB
:103450000E94D32729873A874B875C876D877E87B1
:103460008F87988BDE011196FE01399688E00190D6
:103470000D928150E1F78DB79EB70A970FB6F89479
:103480009EBF0FBE8DBFCDB6DEB60894C11CD11C49
:103490008DE491E0ADB7BEB712969C938E931197D1
:1034A00089819A81AB81BC81F60182839383A48355
:1034B000B5836D817E818F81988520E432E44FE071
:1034C00050E00E944748D60116962D933D934D93A8
:1034D0005C9319970E94474AEDB7FEB73A960FB62C
:1034E000F894FEBF0FBEEDBF83EA91E00E94321058
:1034F00000D000D000D08FE6C82E81E0D82EADB726
:10350000BEB71296DC92CE921197E12FF0E0CF0178
:10351000880F991FA5E0EE0FFF1FAA95E1F7E81BA2
:10352000F90BE551FB4F80899189A289B389EDB7E9
:10353000FEB783839483A583B6830E94474A8DB7E1
:103540009EB706960FB6F8949EBF0FBE8DBF80E95A
:1035500091E00E94321000D000D000D0ADB7BEB7CD
:103560001296DC92CE921197E12FF0E0CF01880FF6
:10357000991F65E0EE0FFF1F6A95E1F7E81BF90B55
:10358000E551FB4F808D918DA28DB38DEDB7FEB7C8
:1035900083839483A583B6830E94474A8DB79EB7E1
:1035A00006960FB6F8949EBF0FBE8DBF87E791E0D9
:1035B0000E94321000D000D0ADB7BEB7119653E7CD
:1035C000C52E51E0D52EEDB7FEB7D282C182E12FD4
:1035D000F0E0CF01880F991F35E0EE0FFF1F3A95FD
:1035E000E1F7E81BF90BE551FB4F848D12968C93A4
:1035F000129713961C920E94474A0F900F900F90BB
:103600000F908AE591E00E94321000D000D0ADB753
:10361000BEB71196EDB7FEB7D282C182E12FF0E0BE
:10362000CF01880F991F15E0EE0FFF1F1A95E1F7E4
:10363000E81BF90BE551FB4F858D12968C93129781
:1036400013961C920E94474A0F900F900F900F9074
:1036500087E591E00E94321060960FB6F894DEBFC5
:103660000FBECDBFCF91DF911F91FF90EF90DF9004
:10367000CF90BF90AF909F908F9008958AE391E094
:103680000E94321080E00E943F1881E00E943F18A3
:1036900082E00E943F1883E00E943F1884E00E946D
:1036A0003F180895FB01853008F0CBC0A82FB0E08B
:1036B0009D01220F331F55E0AA0FBB1F5A95E1F75A
:1036C000A21BB30BA551BB4F2D913D914D915C9128
:1036D0002083318342835383A82FB0E09D01220FC2
:1036E000331F95E0AA0FBB1F9A95E1F7A21BB30BFE
:1036F000A551BB4F14962D913D914D915C9117971B
:103700002483358346835783A82FB0E09D01220F81
:10371000331F65E0AA0FBB1F6A95E1F7A21BB30B2D
:10372000A551BB4F18962D913D914D915C911B97E2
:103730002087318742875387A82FB0E09D01220F51
:10374000331F45E0AA0FBB1F4A95E1F7A21BB30B3D
:10375000A551BB4F1C962D913D914D915C911F97AA
:103760002487358746875787A82FB0E09D01220F11
:10377000331F75E0AA0FBB1F7A95E1F7A21BB30BAD
:10378000A551BB4F50962D913D914D915C91539712
:10379000208B318B428B538BA82FB0E09D01220FE1
:1037A000331F55E0AA0FBB1F5A95E1F7A21BB30BBD
:1037B000A551BB4F54962D913D914D915C915797DA
:1037C000248B358B468B578BA82FB0E09D01220FA1
:1037D000331F95E0AA0FBB1F9A95E1F7A21BB30B0D
:1037E000A551BB4F58962D913D914D915C915B97A2
:1037F000208F318F428F538FA82FB0E09D01220F71
:10380000331F65E0AA0FBB1F6A95E1F7A21BB30B3C
:10381000A551BB4F5C969C91948FA82FB0E0CD0131
:10382000880F991F45E0AA0FBB1F4A95E1F7A81B17
:10383000B90BA551BB4F5D968C915D97858F81E04B
:1038400008958FEF0895E0917D07F0917E078487BA
:103850000895E0917D07F0917E0784850895FF9299
:103860000F931F93F82E062F80E092E00E94A9127A
:103870008F5F8093DE028F3F11F41092DE02209161
:10388000DE0216E0219F90011124C9018F5F9D4F38
:103890006F2D0E94AC128091DE02819FC001112425
:1038A0008E5F9D4F602F0E94AC128091DE02819F3F
:1038B000C00111242091740730917507409176075B
:1038C00050917707252F3327442755278D5F9D4F2C
:1038D000622F0E94AC128091DE02819FC0011124F0
:1038E00020917407309175074091760750917707C2
:1038F0009A01442755278C5F9D4F622F0E94AC127E
:103900008091DE02819FC0011124209174073091C3
:1039100075074091760750917707232F342F452F55
:1039200055278B5F9D4F622F0E94AC128091DE0263
:10393000819FC00111248A5F9D4F609174070E948E
:10394000AC1280E092E06091DE020E94AC121F9106
:103950000F91FF90089520918105222341F0FB01F2
:10396000208320919303FC01208381E0089580E06F
:10397000089580918105882309F49BC082E594E035
:103980000E94321000D000D0EDB7FEB7319686E726
:1039900091E0ADB7BEB712969C938E93119780912C
:1039A0009303828313820E94474A0F900F900F90D7
:1039B0000F908EE494E00E9432108091810588314E
:1039C00010F0109281058091810590E00197863179
:1039D000910508F04BC08A5B9F4FFC01EE0FFF1F63
:1039E0000590F491E02D099482E194E041C08BEEC2
:1039F00093E03EC087ED93E03BC081EC93E038C09C
:103A000086EA93E035C080E993E032C088E793E02E
:103A10002FC085E693E02CC082E593E029C084E3C3
:103A200093E026C08FE093E023C083E093E020C0C2
:103A300088EE92E01DC089ED92E01AC085EC92E01C
:103A400017C084EB92E014C080EA92E011C080E8D5
:103A500092E00EC088E692E00BC08DE492E008C0D0
:103A60008CE392E005C08DE292E002C086E292E033
:103A70000E9432106091E7077091E8078DE090E0B6
:103A80000E941B4A6091E7077091E8078AE090E086
:103A90000E941B4A80918105803149F0833139F0C1
:103AA000843129F00E948D2E0E944A13FFCF10927C
:103AB000810580E008951F93182F809381056093FE
:103AC00093030E942F1C0E94B91C103149F013313E
:103AD00039F0143129F00E948D2E0E944A13FFCF35
:103AE0001F91089580938105E0917D07F0917E07F5
:103AF0006085609393030E942F1C0E94B91C089557
:103B0000DF93CF930F92CDB7DEB7198207C080ED58
:103B100097E00E94B22C89818F5F898389818436E6
:103B2000B0F30F90CF91DF91089581E090E00E9473
:103B300037120E94801D81E090E00E9400120E94D6
:103B4000801D089581E090E00E9437120E94801D40
:103B50000E94801D0E94801D81E090E00E94001262
:103B60000E94801D0895FF920F931F93DF93CF93C0
:103B700000D00F92CDB7DEB700D000D000D0EDB7A7
:103B8000FEB731968E010F5F1F4FADB7BEB71296CD
:103B90001C930E93119726E731E0338322838483AD
:103BA00015820E94904AEDB7FEB736960FB6F8948C
:103BB000FEBF0FBEEDBFFF2472C0800F911FDC015E
:103BC0008C918433D1F1853370F48133F9F08233F1
:103BD00020F4803309F05CC016C0823311F18333C6
:103BE00009F056C023C08733C9F1883330F48533D8
:103BF00069F1863309F04CC02CC08833B1F18933A8
:103C000009F046C03BC00E94A21D02C00E94951D43
:103C10000E94A21D0E94A21D0E94A21D0E94A21D20
:103C200037C00E94951D0E94951DF4CF0E94951DDE
:103C30000E94951D0E94951DEFCF0E94951D0E9428
:103C4000951D0E94951D0E94951DE8CF0E94951D0F
:103C500002C00E94A21D0E94951D04C00E94A21DC8
:103C60000E94A21D0E94951D06C00E94A21D0E94D6
:103C7000A21D0E94A21D0E94951D08C00E94A21DA7
:103C80000E94A21D0E94A21D0E94A21D0E94951DBD
:103C90000E94801D0E94801D0E94801DF394F801E7
:103CA00001900020E9F73197E01BF10B8F2D90E098
:103CB0008E179F0708F481CF0F900F900F90CF9130
:103CC000DF911F910F91FF9008956F927F928F92D5
:103CD0009F92AF92BF92CF92DF92EF92FF920F939B
:103CE0001F93CF93DF938EE594E00E94321000D0B3
:103CF00000D089E791E0ADB7BEB712969C938E9342
:103D00001197E0917D07F0917E078085992787FDC7
:103D1000909514969C938E9313970E94474AE09136
:103D20007D07F0917E07C281D38182E891E0EDB7F3
:103D3000FEB792838183D483C3830E94474AEDB741
:103D4000FEB731966FE8E62E61E0F62EADB7BEB74E
:103D50001296FC92EE9211978881828313820E94C0
:103D6000474A5CE9C52E51E0D52EEDB7FEB7D282A9
:103D7000C182E0917D07F0917E0780819181ADB78E
:103D8000BEB714969C938E9313970E94474A46EAB7
:103D9000A42E41E0B42EEDB7FEB7B282A18280918D
:103DA0007D0790917E07948383830E94474A02ECAB
:103DB00016E00F900F900F900F90C0E0D0E036EB20
:103DC000632E31E0732E4701C601DC2CC92EC501DC
:103DD000BA2CA92ED8011296ED90FC90139700D022
:103DE00000D000D0EDB7FEB73196ADB7BEB7129692
:103DF0007C926E921197D383C283F582E4820E94F3
:103E0000474A0F900F90EDB7FEB73196ADB7BEB7EA
:103E100011968C92119712969C92D7018C91828365
:103E200013820E94474AEDB7FEB7D182C282D80101
:103E30008D919C91948383830E94474AEDB7FEB78E
:103E4000B182A282CE0125E0880F991F2A95E1F761
:103E50008C0F9D1F8E53994F948383830E94474AF2
:103E600021960F5D1F4F0F900F900F900F90C53050
:103E7000D10509F0AFCFDF91CF911F910F91FF9046
:103E8000EF90DF90CF90BF90AF909F908F907F90FA
:103E90006F900895CF93DF93E0917D07F0917E07B7
:103EA000C281D3818881853539F00E94651E81E009
:103EB0000E94721D85E58883E0917D07F0917E0761
:103EC0008081918121E18030920728F00E94651E57
:103ED00082E10E94721DDF91CF910895992787FD9D
:103EE0009095FC0175E0EE0FFF1F7A95E1F7E80F62
:103EF000F91FEE53F94FA281B3818C91853519F0EA
:103F000085E58C9309C08081918121E18030920701
:103F100028F082E10E94721D8FEF089581E00895DC
:103F20006091400470914104809142049091430457
:103F3000E0E0F0E09B01AC010E2E04C056954795E1
:103F4000379527950A94D2F720FD1AC021E030E07A
:103F500040E050E00E2E04C0220F331F441F551FB7
:103F60000A94D2F7262B372B482B592B2093400449
:103F70003093410440934204509343048E2F08959C
:103F80003196E032F105B1F68FEF0895E0917D07AB
:103F9000F0917E0765857685878590890895DF9203
:103FA000EF92FF920F931F93D82E81E0E82EF12C11
:103FB000012D112D0D2C04C0EE0CFF1C001F111F34
:103FC0000A94D2F78091400490914104A091420458
:103FD000B09143048E219F21A023B1230097A10516
:103FE000B10509F45DC00E944A13E9ECF6E0A801AE
:103FF0009701209530954095509563E081818F3FE2
:1040000039F186819781A085B1858E159F05A0071E
:10401000B10731F4128613861486158610826283E6
:1040200086819781A085B18582239323A423B5231C
:1040300086839783A087B18782859385A485B5857C
:1040400082239323A423B52382879387A487B587EC
:10405000B19687E0EE36F80789F62EEF3FEF4FEF87
:104060005FEF04C0220F331F441F551FDA94D2F7AD
:104070008091400490914104A0914204B091430486
:1040800082239323A423B523809340049093410477
:10409000A0934204B09343040E944C1381E001C0FA
:1040A0008FEF1F910F91FF90EF90DF900895EF92A7
:1040B000FF920F931F9321E030E040E050E004C0F6
:1040C000220F331F441F551F8A95D2F7E0917D07B9
:1040D000F0917E0785859685A785B08979018A014B
:1040E000E822F9220A231B23E114F104010511053A
:1040F000D1F0209530954095509582239323A423A9
:10410000B52385879687A787B08B81899289A389F4
:10411000B48982239323A423B523818B928BA38B11
:10412000B48B81E001C08FEF1F910F91FF90EF9052
:1041300008952091400430914104409142045091EF
:104140004304082E04C056954795379527950A9441
:10415000D2F72170307021153105E9F0E0917D072B
:10416000F0917E0721E030E040E050E004C0220FF3
:10417000331F441F551F8A95D2F785859685A785DD
:10418000B089822B932BA42BB52B85879687A78785
:10419000B08B81E008958FEF0895EF92FF920F9317
:1041A0001F93DF93CF930F92CDB7DEB791E0E92E47
:1041B000F12C012D112D04C0EE0CFF1C001F111F4E
:1041C0008A95D2F78091400490914104A0914204D5
:1041D000B09143048E219F21A023B1230097A10514
:1041E000B10511F481E03FC00E944A13E9ECF6E00A
:1041F00020E033E080818130A9F482859385A48515
:10420000B5858E219F21A023B1230097A105B1057B
:1042100049F03283178616861082E286F386048779
:10422000158721E08081823091F482859385A48571
:10423000B5858E159F05A007B10749F4328317860F
:1042400016861082128613861486158621E0B19692
:1042500087E0EE36F80771F629830E944C13298116
:10426000222329F482E00E94231C8FEF01C081E009
:104270000F90CF91DF911F910F91FF90EF900895D4
:10428000E0917D07F0917E07258536854785508929
:10429000262337234823592321153105410551058C
:1042A00021F1618B728B838B948B21E027830090AB
:1042B0006D0704C096958795779567950A94D2F710
:1042C000617070706115710519F00E94692404C055
:1042D00080E090E00E949024E0917D07F0917E07BD
:1042E000218932894389548903C020E030E0A90143
:1042F000B901CA01089580E090E0089527E0893669
:10430000920711F480E008958FEF08950E947E21B6
:104310008F3F11F481E003C0813029F482E00E94D4
:10432000231C8FEF0895992787FD9095FC01EE0FD0
:10433000FF1FE80FF91FE759F84F8FEF8083828343
:10434000818380917C07815080937C0781E0089570
:104350000F931F93DF93CF930F92CDB7DEB70E94D9
:104360007E218F3F11F481E003C0813029F482E087
:104370000E94231C8FEF43C0282F332727FD309541
:104380008901000F111F020F131F0759184FD80181
:1043900012962C9112979C91291784F589830E947B
:1043A0004A13F80192819F5F9283E0917D07F0911B
:1043B0007E071482E9ECF6E08981992787FD9095C4
:1043C000A92FB92F63E02081223089F4228533851B
:1043D00044855585281739074A075B0741F46283EE
:1043E0001786168610821286138614861586B19655
:1043F00027E0EE36F20739F70E944C1381E00F9068
:10440000CF91DF911F910F9108950F931F93DF9329
:10441000CF930F92CDB7DEB70E947E218F3F11F46C
:1044200081E003C0813029F482E00E94231C8FEFD9
:1044300040C089830E944A138981082F112707FDF4
:104440001095F801EE0FFF1FE00FF11FE759F84F2D
:1044500092819923B1F4E0917D07F0917E079781D5
:1044600092609783992787FD9095A92FB92F818B0B
:10447000928BA38BB48B0E944C1380E090E00E943F
:104480009024F801EE0FFF1FE00FF11FE759F84FDE
:10449000828181508283A0917D07B0917E078181C6
:1044A0001B968C931B9781E014968C930E944C135F
:1044B00081E00F90CF91DF911F910F9108950E949D
:1044C0007E218F3F11F481E003C0813029F482E026
:1044D0000E94231C8FEF0895992787FD9095FC017A
:1044E000EE0FFF1FE80FF91FE759F84F828108957B
:1044F000E0917207F091730780810895E09172074F
:10450000F091730703C00380F481E02D3097D9F751
:104510000895EF92FF920F931F93CF93DF93E09153
:10452000C006F091C106309709F48EC04091720721
:10453000509173074115510509F44AC0DA01682FFB
:10454000772767FD70959B0115E0220F331F1A95A1
:10455000E1F7260F371F2E53394FB9016B5E7F4F9E
:10456000255E3F4F0C910023A9F110E0780195E002
:10457000EE0CFF1C9A95E1F7E00EF11EC2ECD6E0BE
:10458000EC0EFD1EE7010D891E890115110581F450
:10459000EB01088119810115110599F4E9010881E0
:1045A0001981E701EB8CFC8C0E151F0550F412C02D
:1045B000EB01E880F980E114F10419F0E016F1064E
:1045C00048F013960D90BC91A02D109759F602C09B
:1045D000A0E0B0E08083C381D481D093C106C093B2
:1045E000C006A417B507B1F4109749F0B483A383AC
:1045F000128211821296FC93EE93119706C01482D8
:10460000138212821182FA83E983F0937307E09395
:1046100072071AC011968D919C911297AC17BD0725
:1046200059F092838183B483A3831196CD91DC9159
:104630001297FC83EB8304C01482138292838183DC
:104640001296FC93EE931197DF91CF911F910F91EA
:10465000FF90EF900895CF93DF93E0917207F09170
:104660007307309709F444C0992787FD90952081FE
:1046700030E02817390781F4A381B481B093730720
:10468000A093720712961C921E92119718C0038075
:10469000F481E02D309761F1208130E0281739074F
:1046A000B1F7C181D281838194819C838B83A38163
:1046B000B481109721F01296DC93CE931197A091BC
:1046C000C006B091C106109739F4F093C106E0938B
:1046D000C006148213820AC0B483A3831296FC938B
:1046E000EE931197F093C106E093C00612821182F7
:1046F000DF91CF910895EF92FF920F931F93CF9385
:10470000DF93EC0169817A814B815C818D819E818F
:104710000E94C02EBC018F81882369F04B815C818F
:10472000CE0120E030E000E010E0EE24FF240E9403
:1047300068141F8213C08881992787FD9095FC011A
:1047400025E0EE0FFF1F2A95E1F7E80FF91FEE5362
:10475000F94F81858330D1F47183608388819927F3
:1047600087FD9095FC0105E0EE0FFF1F0A95E1F72C
:10477000E80FF91FEE53F94F85899689009741F4A8
:1047800082E0818788810E94892202C08FEF01C068
:1047900081E0DF91CF911F910F91FF90EF900895ED
:1047A0001F93DF93CF93CDB7DEB728970FB6F8945A
:1047B000DEBF0FBECDBF29833A834B835C836D83FD
:1047C0007E838F8398870E944A130E94492D182F59
:1047D000CE0101960E9444279C018330910560F030
:1047E000E0917D07F0917E07210F311D368B258BDF
:1047F0000E944C1381E001C08FEF28960FB6F89409
:10480000DEBF0FBECDBFCF91DF911F9108950E94F3
:10481000B52EE0917D07F0917E0785818823B9F759
:104820000895FF920F931F93DF93CF93CDB7DEB719
:1048300028970FB6F894DEBF0FBECDBF29833A8309
:104840004B835C836D837E838F8398870E944A1F8E
:104850000E944A13E0917D07F0917E0781E08583F5
:1048600081E090E090A3878F0E94492DF82ECE0121
:1048700001960E944427E0917D07F0917E070F2D5D
:1048800010E09801280F391F368B258B8F2D883F1C
:1048900078F40E94432D0F5F1F4F282F30E002173E
:1048A000130734F48F2D8E5F8093EA040E94462D07
:1048B0000E944C130E94072481E028960FB6F894BA
:1048C000DEBF0FBECDBFCF91DF911F910F91FF9043
:1048D00008951F930E944A13E0917D07F0917E078F
:1048E00081E0858386830E94492D182F883F88F4B4
:1048F0000E94432D212F30E02F5F3F4F482F50E083
:104900002417350734F4812F8E5F8093EA040E94C8
:10491000462D0E944C130E94072481E01F910895A8
:104920001F93CF93DF93EC010E944A13E0917D0720
:10493000F0917E0781E08583D68BC58B0E94492D3F
:10494000182F883F88F40E94432D212F30E02F5FDD
:104950003F4F482F50E02417350734F4812F8E5FE6
:104960008093EA040E94462D0E944C130E94072463
:1049700081E0DF91CF911F910895EF92FF920F9305
:104980001F93DF93CF930F92CDB7DEB78C010E94B8
:104990004A13E0917D07F0917E0781E085830E94B4
:1049A000492DE0917D07F0917E07E82EFF240E0D42
:1049B0001F1D168B058B883F90F489830E94432D21
:1049C0000894E11CF11C282F30E09981E216F306CF
:1049D00034F4892F8E5F8093EA040E94462D0E9452
:1049E0004C130E94072481E00F90CF91DF911F911B
:1049F0000F91FF90EF9008951F93CF93DF93EC01F9
:104A00000E944A1F209711F4C1E0D0E00E944A138F
:104A1000E0917D07F0917E0781E08583D0A3C78F69
:104A20000E94492D182F883F88F40E94432D212F82
:104A300030E02F5F3F4F482F50E02417350734F404
:104A4000812F8E5F8093EA040E94462D0E944C13B2
:104A50000E94072481E0DF91CF911F9108951F9359
:104A60000E944A1F0E944A13E0917D07F0917E0741
:104A700081E090E090A3878F81E085830E94492D9B
:104A8000182F883F88F40E94432D212F30E02F5F9C
:104A90003F4F482F50E02417350734F4812F8E5FA5
:104AA0008093EA040E94462D0E944C130E94072422
:104AB00081E01F910895E0917D07F0917E07808548
:104AC0000E942B23E0917D07F0917E0784E081878F
:104AD0000E942F2581E008958F929F92AF92BF92FE
:104AE000CF92DF92EF92FF920F931F93DF93CF93BA
:104AF000CDB7DEB760970FB6F894DEBF0FBECDBF5F
:104B000029873A874B875C876D877E878F87988B4D
:104B1000CE0101960E94C825CE01099609851A8505
:104B20002B853C854D855E856F85788989809A8047
:104B3000AB80BC80CD80DE80EF80F8840E9426268A
:104B40008F3F61F029853A854B855C856D857E8533
:104B50008F8598890E94112481E001C08FEF6096B3
:104B60000FB6F894DEBF0FBECDBFCF91DF911F917E
:104B70000F91FF90EF90DF90CF90BF90AF909F90FC
:104B80008F900895E0917D07F0917E0780850895CC
:104B9000EF92FF920F931F93CF93DF93EC011C8250
:104BA0001D821E821F828091740790917507A091CB
:104BB0007607B091770788839983AA83BB83E090B7
:104BC0007807F090790700917A0710917B07EC82C3
:104BD000FD820E831F830E94492D682F70E080E0C4
:104BE00090E023EB36EE4EE050E00E9414486E0D4C
:104BF0007F1D801F911F6C837D838E839F8313C0D5
:104C000080509A4CAA49BB438C839D83AE83BF835B
:104C100088819981AA81BB810196A11DB11D8883DC
:104C20009983AA83BB838C819D81AE81BF818030B3
:104C30002AEC92072AE9A2072BE3B20708F7DF91D3
:104C4000CF911F910F91FF90EF9008958F929F92B7
:104C5000AF92BF92CF92DF92EF92FF920F931F938A
:104C6000DF93CF93CDB7DEB760970FB6F894DEBF72
:104C70000FBECDBFFC0109831A832B833C834D8378
:104C80005E836F83788789869A86AB86BC86CD865D
:104C9000DE86EF86F88AE980FA800B811C812D81FF
:104CA0003E814F815885A984BA84CB84DC848D856C
:104CB0009E85AF85B889EA14FB040C051D0508F430
:104CC00040C0AE14BF04C006D10691F428173907BE
:104CD0004A075B07B0F1281B390B4A0B5B0B248397
:104CE000358346835783108211821282138227C034
:104CF000281739074A075B0790F40894E108F10880
:104D000001091109EA18FB080C091D09E082F1826A
:104D100002831383205036434546544C08C0EA189A
:104D2000FB080C091D09E082F18202831383281B12
:104D3000390B4A0B5B0B248335834683578381E011
:104D400001C08FEF60960FB6F894DEBF0FBECDBFE7
:104D5000CF91DF911F910F91FF90EF90DF90CF9057
:104D6000BF90AF909F908F900895FC0114C0205089
:104D70003A4C4A495B4324833583468357832081D9
:104D80003181428153812F5F3F4F4F4F5F4F2083CF
:104D9000318342835383248135814681578120307A
:104DA0008AEC38078AE948078BE3580700F708952B
:104DB0008F929F92AF92BF92CF92DF92EF92FF922B
:104DC0000F931F93DF93CF93CDB7DEB760970FB6E6
:104DD000F894DEBF0FBECDBF09831A832B833C83BB
:104DE0004D835E836F83788789869A86AB86BC867F
:104DF000CD86DE86EF86F88A29853A854B855C85E7
:104E0000E980FA800B811C812E0D3F1D401F511F30
:104E1000FC0120833183428353832D853E854F855A
:104E20005889ED80FE800F8118852E0D3F1D401F93
:104E3000511F24833583468357830E94B52681E022
:104E400060960FB6F894DEBF0FBECDBFCF91DF9155
:104E50001F910F91FF90EF90DF90CF90BF90AF9098
:104E60009F908F9008956093740770937507809357
:104E700076079093770720937807309379074093CC
:104E80007A0750937B0708958F929F92AF92BF92BB
:104E9000CF92DF92EF92FF920F931F93FC0120813C
:104EA0003181428153816481758186819781211589
:104EB00031054105510509F461C022343105410530
:104EC000510508F062C05B016C01EE24FF248701EC
:104ED00060E038C08A2CAB2DA653F1E0AB1508F08A
:104EE000F0E08C2D865691E08C1508F090E0F80FDC
:104EF00071E0F81708F070E0972B7D2D755CE1E00C
:104F00007D1508F0E0E0970F81E0971708F080E04A
:104F10008E2B8E0DE1E08E1508F0E0E0EF0D71E0D4
:104F2000EF1508F070E0700FB1E0701708F0B0E016
:104F3000B10FA82CBA2ECF2ED92EE82EFE2E072F79
:104F40001B2F6F5F862F90E0A0E0B0E082179307E1
:104F5000A407B50708F4BECF9501A601B701C801A3
:104F6000A3EBAA2EF6EEBF2EEEE0CE2EDD24EE242D
:104F7000FF2400E010E00E94983A09C023EB36EECF
:104F80004EE050E00E94474802C020E030E0C901F6
:104F90001F910F91FF90EF90DF90CF90BF90AF9057
:104FA0009F908F900895EF92FF920F931F93DF933E
:104FB000CF93CDB7DEB728970FB6F894DEBF0FBEFC
:104FC000CDBF7B018C01BAE016950795F794E79465
:104FD000BA95D1F7E982FA820B831C8373708070D3
:104FE000907023EB36EE4EE050E00E9414486D8343
:104FF0007E838F8398872E2D3A814B815C81289602
:105000000FB6F894DEBF0FBECDBFCF91DF911F91D9
:105010000F91FF90EF9008958F929F92AF92BF9261
:10502000CF92DF92EF92FF920F931F93FC012081AA
:1050300031814281538164817581868197812115F7
:1050400031054105510509F45BC05B016C01EE249B
:10505000FF24870160E038C08A2CAB2DA653F1E015
:10506000AB1508F0F0E08C2D865691E08C1508F019
:1050700090E0F80F71E0F81708F070E0972B7D2DA5
:10508000755CE1E07D1508F0E0E0970F81E097178F
:1050900008F080E08E2B8E0DE1E08E1508F0E0E048
:1050A000EF0D71E0EF1508F070E0700FB1E07017D0
:1050B00008F0B0E0B10FA82CBA2ECF2ED92EE82ED2
:1050C000FE2E072F1B2F6F5F862F90E0A0E0B0E031
:1050D00082179307A407B50708F4BECF9501A60170
:1050E000B701C801E3EBAE2E06EEB02E1EE0C12ED6
:1050F000DD24EE24FF2400E010E00E94983A06C070
:1051000023EB36EE4EE050E00E944748B901CA0159
:105110001F910F91FF90EF90DF90CF90BF90AF90D5
:105120009F908F9008950F931F9301E012E00E94CB
:105130004A1F0E94432D853128F4009371070E9475
:10514000B52E08C08AE090E00E94B22C109371073F
:105150000E94A92E80918205853519F088E00E9471
:10516000721D80917E10853511F388E00E94721DBA
:10517000DECF4F925F926F927F928F929F92AF920B
:10518000BF92CF92DF92EF92FF920F931F93DF9324
:10519000CF930F92CDB7DEB70E94422D0E944A13E3
:1051A0008AEF0E94462D0E94A22E0E94422B00915F
:1051B000EA04602F70E080E090E023EB36EE4EE0F2
:1051C00050E00E9414486B017C0180917807909117
:1051D0007907A0917A07B0917B07C80ED91EEA1E05
:1051E000FB1EC701B6010E944748C61AD70AE80A43
:1051F000F90AC0927807D0927907E0927A07F09284
:105200007B07E0917D07F0917E078085882381F5FB
:1052100080917107823019F4802F0E947515E091FA
:105220007D07F0917E0780856091EA040E945A16FE
:10523000E0917D07F0917E07808560E00E9427174E
:105240008091740790917507A0917607B0917707C8
:10525000C0907807D0907907E0907A07F0907B07AC
:1052600073EB872E76EE972E7EE0A72EB12C1DC015
:105270009581992311F0602FE1CF602F0E945A167B
:10528000DFCF80E096E3A5E6B4ECC80ED91EEA1E97
:10529000FB1EC701B601A50194010E944748C61A2A
:1052A000D70AE80AF90AD301C2012C013D0108948A
:1052B000411C511C611C711CE0E0CE16EAECDE06BC
:1052C000EAE9EE06EBE3FE06E0F6809374079093BE
:1052D0007507A0937607B0937707C0927807D092AE
:1052E0007907E0927A07F0927B07E0917D07F091D1
:1052F0007E0785818823B9F081858430A1F087817C
:10530000823029F0882341F08681882311F485E0DA
:1053100001C083E0818704C083E081871782168201
:1053200080850E942B23E0917D07F0917E07858D7B
:10533000968D0097E9F180858823D1F1918594308D
:10534000B9F1418D528D2091EA0430E042175307A4
:1053500088F40E94B215E0917D07F0917E0782E00B
:1053600060850E945B1DE0917D07F0917E07128EA3
:10537000118E04C0421B530B528F418FE0917D0769
:10538000F0917E070085218D328D2115310581F444
:10539000802F0E94B21583E0602F0E945B1DE09178
:1053A0007D07F0917E0783E08187802F0E942B2369
:1053B00067EC662E66E0762E00E61AEE20E051E0FD
:1053C000452E512C4AEFC42ED12C32E0F32E91E021
:1053D000892E912CA12CB12CD30113968C9113976B
:1053E0008F3F09F4C4C01C92882309F443C014966B
:1053F0008C9114978430F1F150964D915C915197B6
:105400008091EA0490E04817590738F0481B590B7F
:1054100051965C934E93509703C0F301118A108A02
:10542000D30152964D915C9153974817590738F024
:10543000481B590B53965C934E93529712C0F3013D
:10544000668977898617970728F4681B790B738B11
:10545000628B07C00E943348D30153969C938E936E
:105460005297F30182899389009721F4868997895D
:10547000938B828BD30114968C911497833009F00F
:1054800076C050968D919C915197009709F066C017
:1054900012968C9112978823A9F011968C911197EE
:1054A000882381F0D501C40100906D0704C0880FE6
:1054B000991FAA1FBB1F0A94D2F7F301848795870F
:1054C000A687B787D30112961C92129711961C9249
:1054D00011971C925A964D915C915B9756968D91BF
:1054E0009C91579758966D917C91599741305105F1
:1054F000D9F455967C936E9354971496FC92149716
:1055000052964D915C91539751965C934E93509760
:10551000009721F45196DC92CE925097822F2983E6
:105520000E94892229811AC0F301758B648BBA010C
:1055300061507040689FA001699F500D789F500D89
:105540001124518B408B538B428B009711F4D18ADD
:10555000C08AD3015B965C924E925A97F301808980
:105560009189009721F08017910708F48C012F5F33
:1055700081E290E0680E791E253009F02DCFE09190
:105580007D07F0917E0780850E94F5150E947822A4
:10559000F82E282F332727FD3095F90185E0EE0FEF
:1055A000FF1F8A95E1F7E20FF31FEE53F94F828553
:1055B00080937F07F0936F07E0936E07FF2099F0C9
:1055C000258D368D2115310551F0218D328D2A3FE3
:1055D000310528F420173107F8F489011DC00B3F6D
:1055E0001105D0F014C005311105B0F09801245117
:1055F00030402A3F310538F489012331310560F408
:1056000003E110E009C091E00E30190719F00AEF2C
:1056100010E002C006EE10E080937007F0937E0762
:10562000E0937D070093EA040E94492D282F30E083
:105630002F5F3F4F2017310740F00E94492D082F60
:1056400010E00E5F1F4F0093EA04FF2011F010924C
:105650007107802F0E94462D0E940A2F0E946D3AEA
:105660000F90CF91DF911F910F91FF90EF90DF90FE
:10567000CF90BF90AF909F908F907F906F905F90F2
:105680004F9008952F923F924F925F926F927F9228
:105690008F929F92AF92BF92CF92DF92EF92FF9242
:1056A0000F931F93DF93CF93CDB7DEB760970FB6FD
:1056B000F894DEBF0FBECDBFCE0101960E94C82573
:1056C00090E8492E97E0592E6624772489E0282E09
:1056D000312C2C0E3D1ED20112968C9112978130E6
:1056E00071F583E190E0689EF001699EF00D789E6F
:1056F000F00D1124E557F84FC1010081118122817D
:105700003381448155816681778189809A80AB801D
:10571000BC80CD80DE80EF80F8840E9426268F3FFB
:1057200071F485E1662D0E945B1DD201ED91FC9123
:105730001197309719F40E944E1301C009950894EF
:10574000611C711CE3E1F0E04E0E5F1EF3E06F168A
:10575000710409F660960FB6F894DEBF0FBECDBF98
:10576000CF91DF911F910F91FF90EF90DF90CF903D
:10577000BF90AF909F908F907F906F905F904F9071
:105780003F902F90089510928207109295071092E3
:10579000A8070895CF93DF93FB01833008F590E0CD
:1057A00023E130E0829FE001839FD00D929FD00DD6
:1057B0001124C058D84F5983488380819181A28198
:1057C000B3818B839C83AD83BE8384819581A681C5
:1057D000B7818F839887A987BA871A8281E001C031
:1057E0008FEFDF91CF910895CF92DF92EF92FF92EA
:1057F0000F931F93DF93CF93CDB7DEB728970FB6E4
:10580000F894DEBF0FBECDBF082F8330D8F5CE0190
:1058100001960E94C825402F50E023E130E0429FCE
:10582000C001439F900D529F900D11248C01005890
:10583000184FF8012381348145815681C980DA806F
:10584000EB80FC802C0D3D1D4E1D5F1D2387348792
:10585000458756872781308541855285CD80DE80FA
:10586000EF80F8842C0D3D1D4E1D5F1D2787308B6A
:10587000418B528B8557984F0E94B52681E0F801E5
:10588000828301C08FEF28960FB6F894DEBF0FBE5B
:10589000CDBFCF91DF911F910F91FF90EF90DF90DF
:1058A000CF9008951F93DF93CF93CDB7DEB728979E
:1058B0000FB6F894DEBF0FBECDBF182F8330A0F512
:1058C000CE0101960E94C825812F90E023E130E0AF
:1058D000829FF001839FF00D929FF00D1124E058FC
:1058E000F84F83819481A581B68129813A814B81CA
:1058F0005C81820F931FA41FB51F83879487A587A0
:10590000B68787819085A185B2852D813E814F81A3
:105910005885820F931FA41FB51F8787908BA18B7B
:10592000B28B81E0828301C08FEF28960FB6F89486
:10593000DEBF0FBECDBFCF91DF911F9108958330A1
:1059400078F490E023E130E0829FF001839FF00D36
:10595000929FF00D1124E058F84F128281E00895D3
:105960008FEF089500000000000000000197D1F7BC
:1059700008951EBC089581E08EBD089580B58160B4
:1059800080BD1DBC1CBC0895DF93CF9300D0CDB764
:10599000DEB78CB59DB59A83898329813A81C90187
:1059A0000F900F90CF91DF910895EF92FF920F9398
:1059B0001F93CF93DF93EC018FEFC937D80710F017
:1059C000C0E0D0E07E0100E010E080E090E0E60E74
:1059D000F71E081F191F91E0E91690E0F90691E003
:1059E000090790E0190768F080E090E0AFEFBFEFA3
:1059F000E80EF91E0A1F1B1F0E94C42CC817D907E6
:105A0000D8F30E94C42C8E159F05D8F3DF91CF9157
:105A10001F910F91FF90EF90089582BF089513BEDC
:105A200087B78D7F87BF87B78E7F87BF08958BE04D
:105A300083BF87B7836087BF089580B5826080BDCC
:105A400012BE109294031092EA0408958EEF809390
:105A5000EA0498E090BF81BF83E086BF8BE083BFFC
:105A600080B5876080BD1FBC81E08EBD1DBC1CBCA5
:105A700080B5816080BD0E941D2D0E94172D10925F
:105A800094030895089581B78F5F0895815081BF71
:105A9000089582B708951F920F920FB60F920BB61A
:105AA0000F9211242F933F934F935F936F937F93A4
:105AB0008F939F93AF93BF93EF93FF938AE060E040
:105AC0000E945B1DFF91EF91BF91AF919F918F91CC
:105AD0007F916F915F914F913F912F910F900BBEEE
