:100000000C9440050C94332F0C945F050C945F0501
:100010000C945F050C945F050C945F050C945F05D0
:100020000C945F050C94AC2E0C945F050C945F054A
:100030000C945F050C945F050C945F050C94272EBF
:100040000C94272E0C945F050C945F050C945F05AF
:100050000C945F050C945F050C945F050C945F0590
:100060000C945F050C945F050C945F050C945F0580
:100070000C945F050C945F050C945F050C945F0570
:100080000C945F050C945F050C945F059F1EA51EE4
:10009000A81EAB1EAE1EB11EB71EB41EBA1EBD1EDC
:1000A000C01EC91ECC1ECF1ED21EC61E9C1EA21E66
:1000B000D51ED81EC31E991E08000000BE922449FA
:1000C000123EABAAAA2ABECDCCCC4C3E000000808A
:1000D000BEABAAAAAA3E00000000BF000000803FFD
:1000E0000000000000084178D3BB4387D1133D19BD
:1000F0000E3CC3BD4282AD2B3E68EC8276BED98FEA
:10010000E1A93E4C80EFFFBE01C4FF7F3F0000002D
:10011000000007634236B79BD8A71A39685618AE55
:10012000BAAB558C1D3CB7CC5763BD6DEDFD753E2C
:10013000F6177231BF000000803F4E616E6F2D5286
:100140004B2056657273696F6E20000D0A4E616E0A
:100150006F2D524B205461736B205374617469731B
:10016000746963733A0D0A000D0A000D0A202020FD
:100170004F766572666C6F77204572726F7220538E
:1001800074617475733A20000D0A2020204B65724B
:100190006E656C2056696F6C6174696F6E733A207E
:1001A000000D0A202020507265656D7074696F6EB5
:1001B000733A20000D0A202020537761702D696E5C
:1001C000733A20000D0A20202054696D65205B4D94
:1001D000696E2C4C6173742C4D61785D3A20000D72
:1001E0000A202020546F74616C204350553A20003F
:1001F0000D0A20202049646C65205461736B2044F3
:1002000065657020536C6565702054696D653A2092
:10021000000D0A202020546F74616C205379737490
:10022000656D20557074696D653A200020546173C6
:100230006B2049443A2000554E4B4F574E004578AD
:100240007465726E616C2052657365740042726FE2
:10025000776E204F75742044657465637400466141
:10026000696C656420746F206372656174652053E6
:10027000656D6170686F7265004661696C656420C8
:10028000746F20637265617465205369676E616C79
:10029000004B65726E656C2066756E6374696F6E77
:1002A000206E6F7420696D706C656D656E74656429
:1002B00000446576696365204472697665722045FD
:1002C00072726F72005761746368646F6720526561
:1002D0007374617274005357205761746368646F5C
:1002E0006720526573746172740054696D65722081
:1002F0004F766572666C6F7700556E68616E646CE0
:10030000656420496E7465727275707420566563F9
:10031000746F72004C6F7720566F6C746167650064
:100320004578747261205461736B207374617274C8
:1003300065642C206973206E726B5F6366672E683C
:10034000206F6B3F0049646C65206F72204B6572B3
:100350006E656C20537461636B204F766572666CBA
:100360006F7700556E6578706563746564205265BB
:100370007374617274004475706C69636174656450
:10038000205461736B204944005363686564756C45
:100390006572204D69737365642057616B65757074
:1003A000005461736B2052657365727665205669DF
:1003B0006F6C617465640052657365727665204583
:1003C00072726F7220696E205363686564756C6524
:1003D0007200496E76616C696420537461636B20AE
:1003E000506F696E746572005461736B2053746151
:1003F000636B204F766572666C6F77005374616330
:100400006B20776173206E6F7420646566696E651A
:1004100064206173206C6172676520656E6F75671B
:100420006821005461736B20706572696F64207479
:100430006F6F206C617267652E20506572696F6402
:10044000206D757374206265206C65737320746809
:10045000616E203631207365636F6E64732E0029E0
:100460003A20002A4E524B204552524F5228000D3E
:100470000A535441434B2044554D500D0A0008087F
:100480002A1C08081C2A080840444A514040514A86
:10049000444014741C171410207F01010000000058
:1004A000000000000000081C2C08087F0101010169
:1004B000010101017F7F40404040404040407F00BB
:1004C00000000000000000000000000000007911A2
:1004D000271179000000000000000000000000006B
:1004E00000007F01010103605048447E3E494949B4
:1004F0003E700C030C706349494963017F017F0121
:10050000635549414106017E010608557F55080F94
:10051000107F100F4E7101714E3844443844000072
:1005200000000000005F00000300030000143E1400
:100530003E1426497F493262152A542336495620F3
:10054000500003000000001C2241000041221C005A
:1005500000140E140008083E08080060000000089F
:1005600008080800004000000060100804033E4135
:1005700041413E04027F0000625149454222414907
:1005800049360C0B087E084F494949313E494949D3
:100590003261110905033649494936264949493E20
:1005A0000022000000006100000008141422221440
:1005B00014141414222214140806015905023E4191
:1005C0005D555E7E0909097E7F494949363E4141B4
:1005D00041227F4141413E7F494949417F09090903
:1005E000013E414949327F0808087F00007F000032
:1005F000204040403F7F081422417F404040007F20
:100600000204027F7F021C207F3E4141413E7F0960
:100610000909063E4151617E7F091929462649494B
:10062000493201017F01013F4040403F1F204020EF
:100630001F3F4030403F63140814630304780403F1
:1006400061514945437F4100000000000000000067
:100650000000417F0601060000404040404001028A
:1006600000000020545454787F48484830384444AF
:100670004428384444447F3854545418087E0909A7
:10068000010C5252523E7F04040478047D40402005
:10069000204040443D007F102844203E5149467C84
:1006A000047C04787C0804047838444444387E127E
:1006B00012120C0C1212127E0478040408485454CE
:1006C0005424043F4444403C40403C401C204020D3
:1006D0001C3C4030403C4428102844264848483EB2
:1006E0004464544C4400083E410000007F00000078
:1006F000413E080000000000000000000000000073
:100700000000000000000000000000000020483E43
:1007100009020000000000000000000004047F0443
:1007200004000000000000000000000000000000C5
:1007300000000000000000000000000000000000B9
:1007400000000000000000000000000000000000A9
:100750000000000000000000000000000002040192
:100760000200000000000000181800000000000057
:100770000000000000000000000000000000000079
:100780000000000000000000000000000000000069
:100790000000000000000000000000000000000059
:1007A00000000000007900000000000000487E49C1
:1007B0004942000000000015167C161500000000DC
:1007C000000A5555552800010001003E635D6B3E4F
:1007D000000000000008142A14220000000000009D
:1007E000000000003E41754B3E0101010101000285
:1007F00005020000000000000000000000000000F2
:10080000000000000000000000000000060F7F0153
:100810007F00000000000000000000000000000059
:10082000070507000022142A14080F003C20780F47
:100830000048645800000000003048454020000097
:1008400000000000000000000000000000722929E4
:100850002A717825242578702A252A707E097F49F7
:10086000490E5151711100000000007C545655444E
:100870000000000000000000000000000000000078
:100880000000000000000000000000000000000068
:100890000000007A09112279000000000000000029
:1008A000000000000000003A454546393D42424202
:1008B0003D22140814225C322A261D00000000008C
:1008C000000000000000000000003C4140413C00EE
:1008D00000000000000000000000000000002055A3
:1008E00056547820545655782056555678225155EE
:1008F000567920555455780000000000245478544F
:10090000580C5252721238555654183854565518BD
:100910003856555618385554551800497A40000035
:10092000487A4100004A794200004A7842000000BB
:100930000000007A11090A7130494A483030484AAB
:100940004930304A494A303249494A31304A484AA6
:100950003008082A080818643C26183841422078D4
:10096000384042217838424122783842402278008B
:100970000000000000000000000C5150513C6E616E
:100980006E00696E660000407A10F35A00A0724E45
:1009900018090010A5D4E80000E87648170000E424
:1009A0000B54020000CA9A3B000000E1F50500006C
:1009B00080969800000040420F000000A0860100D1
:1009C0000000102700000000E803000000006400A1
:1009D000000000000A00000000000100000000000C
:1009E0002C76D888DC674F0823DFC1DFAE59E1B130
:1009F000B796E5E3E453C63AE651997696E8E6C23F
:100A00008426EB898C9B62ED407C6FFCEFBC9C9F45
:100A100040F2BAA56FA5F490055A2AF75C936B6C67
:100A2000F9676DC11BFCE0E40D47FEF520E6B5005B
:100A3000D0ED902E0300943577050080841E0800C9
:100A400000204E0A000000C80C333333330F986E79
:100A500012831141EF8D2114893BE65516CFFEE636
:100A6000DB18D1844B381BF77C1D901DA4BBE424FC
:100A7000203284725E228100C9F124ECA1E53D2779
:100A800011241FBECFEFD0E1DEBFCDBF13E0A0E049
:100A9000B1E0E2EEFDE900E00BBF02C007900D926D
:100AA000A837B107D9F718E0A8E7B3E001C01D9255
:100AB000A938B107E1F70E9457080C94EF4E0C9447
:100AC000DE2EAF92BF92DF92EF92FF920F931F93B1
:100AD000DF93CF93CDB7DEB72A970FB6F894DEBF7A
:100AE0000FBECDBFD82E7E010894E11CF11C8701FA
:100AF0009E01255F3F4F802F8E19D8018D938D0168
:100B0000A217B307C1F780E0A82E81E0B82E00D06D
:100B100000D0EDB7FEB73196ADB7BEB71296BC9216
:100B2000AE921197D7018D917D01828313820E942D
:100B3000114D0F900F900F900F90E016F10639F7BE
:100B400000D000D0EDB7FEB7319684E091E0ADB7AC
:100B5000BEB712969C938E931197D28213820E94F5
:100B6000114D0F900F900F900F90B1E0BD1520F434
:100B70008D2D81500E94610580E02A960FB6F89471
:100B8000DEBF0FBECDBFCF91DF911F910F91FF90C0
:100B9000EF90DF90BF90AF9008956F927F928F9209
:100BA0009F92BF92CF92DF92EF92FF920F931F938B
:100BB0000FE214E0C80168EC77E00E94822FC801C0
:100BC00061E075E040E850E00E94E32FBB24B3945D
:100BD000B0923704B0923604B0923804B09239041F
:100BE00010923A0410923B0410923C0410923D047F
:100BF00080E892EBA6EEBEE080933E0490933F0423
:100C0000A0934004B093410421E0622E712C812C0A
:100C1000912C60924204709243048092440490921A
:100C2000450480E890EFAAEFB2E0809346049093E9
:100C30004704A0934804B093490410924A041092C8
:100C40004B0410924C0410924D0410924E041092DA
:100C50004F041092500410925104C8010E9454266F
:100C60000CE117E0C80163E977E00E94822FC80118
:100C70006AE574E040E850E00E94E32F82E0809350
:100C80002407B0922307B0922507B092260710924E
:100C90002707109228071092290710922A0780E050
:100CA00095E6ADECBDE180932B0790932C07A093C4
:100CB0002D07B0932E0710922F0710923007109235
:100CC000310710923207C12C91EED92E95EFE92E03
:100CD00095E0F92EC0923307D0923407E0923507A1
:100CE000F0923607109237071092380710923907A2
:100CF00010923A0710923B0710923C0710923D0762
:100D000010923E07C8010E9454260EED14E0C8015F
:100D10006EE577E00E94822FC8016DEA73E040E83B
:100D200050E00E94E32F83E08093E604B092E50454
:100D3000B092E704B092E8046092E9047092EA0489
:100D40008092EB049092EC041092ED041092EE0469
:100D50001092EF041092F0041092F1041092F20439
:100D60001092F3041092F404C092F504D092F604A9
:100D7000E092F704F092F8041092F9041092FA0449
:100D80001092FB041092FC041092FD041092FE04D9
:100D90001092FF0410920005C8010E94542608E832
:100DA00013E0C80169E277E00E94822FC8016CE974
:100DB00076E040E850E00E94E32F84E080939003C7
:100DC000B0928F03B0929103B092920382E090E0D0
:100DD000A0E0B0E08093930390939403A0939503D5
:100DE000B093960310929703109298031092990370
:100DF00010929A0310929B0310929C0310929D03F1
:100E000010929E03C0929F03D092A003E092A10390
:100E1000F092A2031092A3031092A4031092A503D0
:100E20001092A6031092A7031092A8031092A90390
:100E30001092AA03C8010E9454261F910F91FF909F
:100E4000EF90DF90CF90BF909F908F907F906F90AA
:100E500008950F931F93CF93DF930E94702400D0C7
:100E600000D0EDB7FEB7319623E131E0ADB7BEB7A4
:100E700012963C932E931197828313820E94114DF8
:100E8000C0E0D0E00F900F900F900F9002E211E0C1
:100E900082E090E00E94321300D000D0EDB7FEB7A0
:100EA00012830183D483C3830E94114D0F900F904E
:100EB0000F900F900E9418262196EACF0F931F9350
:100EC000CF93DF930E94702400D000D0EDB7FEB71F
:100ED000319621E331E0ADB7BEB712963C932E9325
:100EE0001197828313820E94114DC0E0D0E00F90D1
:100EF0000F900F900F9000E411E081E090E00E94CD
:100F0000321300D000D0EDB7FEB712830183D48333
:100F1000C3830E94114D0F900F900F900F900E946D
:100F200018262196EACF0F931F93CF93DF930E9449
:100F3000702400D000D0EDB7FEB731962FE431E039
:100F4000ADB7BEB712963C932E931197828313824E
:100F50000E94114DC0E0D0E00F900F900F900F90C5
:100F60000EE511E08FEF90E00E94321300D000D028
:100F7000EDB7FEB712830183D483C3830E94114D62
:100F80000F900F900F900F900E9418262197EACF94
:100F9000EF92FF920F931F93DF93CF93CDB7DEB7FE
:100FA00028970FB6F894DEBF0FBECDBF8AE391E05D
:100FB0000E94FE1300D000D084E791E0ADB7BEB729
:100FC00012969C938E93119785E690E014969C93CD
:100FD0008E9313970E94114D89E791E0EDB7FEB70C
:100FE00092838183148213820E94114D0F900F907F
:100FF0000F900F900E94702400D000D0EDB7FEB784
:10100000319623E931E0ADB7BEB712963C932E93EB
:101010001197828313820E94114D85E090E0A0E039
:10102000B0E089839A83AB83BC831D821E821F82BA
:1010300018860F900F900F900F9080E090E0BE0107
:101040006F5F7F4F40E050E00E941F2C80E090E0F7
:101050000E945E2C00E010E032EAE32E31E0F32E35
:1010600080E090E00E94AB2C80E090E00E94321380
:1010700000D000D000D0EDB7FEB73196ADB7BEB707
:101080001296FC92EE9211971383028314821582BA
:101090000E94114DEDB7FEB736960FB6F894FEBF1D
:1010A0000FBEEDBF0E9418260F5F1F4FD9CF0E94C1
:1010B0005C1387E090E00E94D4130E943E1680E00B
:1010C00090E00E9447138FEF90E00E94471381E069
:1010D00090E00E94471382E090E00E94471360E096
:1010E00070E080E090E020E030E040E050E00E94DE
:1010F000CF270E94CD050E94E11580E090E0089581
:1011000090E00B979C012B593E4B880F991F880F3D
:10111000991F280F391FF894C09888E18FB9779BE1
:10112000FECF3FB9779BFECF2FB9779BFECFC09AFA
:1011300078940895F894C0981FB8779BFECF8FB12C
:10114000C09A789486FFF6CF0895F894C09887E007
:101150008FB9779BFECFC09AC09886E08FB9779BF6
:10116000FECFC09A78940895809154070895DC01C9
:10117000C09889EC8FB9779BFECF80E88FB9779BB9
:10118000FECF92E09150FD01E90FF11D80818FB9F2
:10119000779BFECF9923B1F7C09AC0988BEC8FB99B
:1011A000779BFECF80E88FB9779BFECF92E091507E
:1011B000FD01E90FF11D82818FB9779BFECF992345
:1011C000B1F7C09A8C918093550711968C91119725
:1011D0008093560712968C91129780935707139617
:1011E0008C91809358070895C09889E18FB9779BB7
:1011F000FECF83E08FB9779BFECF86E08FB9779BD8
:10120000FECFC09AC0988AE18FB9779BFECF8EE05F
:101210008FB9779BFECF8EE08FB9779BFECFC09AB8
:1012200081E0809345070895C09889E18FB9779B45
:10123000FECF81E08FB9779BFECF84EC8FB9779B8F
:10124000FECFC09A10924507089580914307909170
:1012500044070895282F30E02F713070206E306AD7
:10126000C09885E18FB9779BFECF3FB9779BFECFC2
:101270002FB9779BFECFC09A0895209146073091F1
:10128000470738603093470720934607C09881E1AD
:101290008FB9779BFECF3FB9779BFECF2FB9779B56
:1012A000FECFC09A08952091460730914707377FB7
:1012B0003093470720934607C09881E18FB9779B09
:1012C000FECF3FB9779BFECF2FB9779BFECFC09A59
:1012D000089581E080935307209146073091470796
:1012E00020613093470720934607C09881E18FB96A
:1012F000779BFECF3FB9779BFECF2FB9779BFECF71
:10130000C09A0895109253072091460730914707DD
:101310002F7E3093470720934607C09881E18FB90D
:10132000779BFECF3FB9779BFECF2FB9779BFECF40
:10133000C09A089581E080935007C09883E08FB9E8
:10134000779BFECFC09AC09888E08FB9779BFECF7D
:10135000C09A10925907089581E080935007C09871
:1013600083E08FB9779BFECFC09AC09888E08FB991
:10137000779BFECFC09A109259070895109250079C
:10138000C09886E08FB9779BFECFC09A109259071C
:10139000089580B390E024E0969587952A95E1F72B
:1013A0008170089581B190E036E0969587953A95E1
:1013B000E1F78170089580B390E044E096958795B9
:1013C0004A95E1F781700895DF93CF9300D000D064
:1013D0000F92CDB7DEB70E9902C080E0D1C1109256
:1013E00054070E9B1AC0B79918C0C0988FE78FB9E1
:1013F000779BFECF1FB8779BFECF8FB1C09AC09866
:1014000088E08FB9779BFECFC09AC09888E08FB9EB
:10141000779BFECFC09A8FEFB3C1C0988FE78FB98B
:10142000779BFECF1FB8779BFECF4FB1C09A4F7707
:10143000C1F4C0988FE78FB9779BFECF1FB8779B19
:10144000FECF8FB1C09AC09888E08FB9779BFECF4E
:10145000C09AC09888E08FB9779BFECFC09A8EEF74
:101460008FC14C308CF0E0914807F0914907242F50
:10147000332727FD30952B5030408481992787FDF5
:101480009095821793077CF5C0988FE78FB9779B6B
:10149000FECF50E0242F332727FD309504C01FB81E
:1014A000779BFECF5F5F852F90E08217930714F440
:1014B000B799F5CFC09AC0988FE78FB9779BFECFC9
:1014C0001FB8779BFECF8FB1C09AC09888E08FB9C4
:1014D000779BFECFC09AC09888E08FB9779BFECFEC
:1014E000C09A8DEF4DC1E0914807F09149074C50EB
:1014F0004383C0988FE78FB9779BFECFFE0132966A
:101500009F012E5F3F4F1FB8779BFECF8FB1819316
:10151000E217F307C1F7C09AE0914807F091490735
:101520008A819B8155E0969587955A95E1F7817060
:101530008783C0988FE78FB9779BFECF1FB8779BC3
:10154000FECFE0914807F09149078FB18083C09AA0
:10155000C0988FE78FB9779BFECF80E006C01FB899
:10156000779BFECF8F5F843011F0B799F8CFC09A88
:10157000C0988FE78FB9779BFECF20E030E01FB88F
:10158000779BFECFE0914807F09149078FB1E20FBA
:10159000F31F81832F5F3F4F2230310581F7C09ABF
:1015A0008A8183FF4DC0C0988FE78FB9779BFECFAC
:1015B000EFE3F7E01FB8779BFECF8FB1819387E011
:1015C000E334F807B9F7C09AC09889E98FB9779BD7
:1015D000FECF80E88FB9779BFECF92E09150E92F44
:1015E000F0E0E15CF84F80818FB9779BFECF9923C3
:1015F000A9F7C09AC0988BE98FB9779BFECF80E896
:101600008FB9779BFECF92E09150E92FF0E0EF5B2E
:10161000F84F80818FB9779BFECF9923A9F7C09AA5
:10162000C0988CE08FB9779BFECFC09A81E0809301
:101630005407E0914807F0914907838184508383E0
:10164000C0988FE78FB9779BFECF40E00FC01FB8DF
:10165000779BFECFE0914807F09149078FB1058055
:10166000F681E02DE40FF11D80834F5FE091480784
:10167000F0914907242F30E08381992787FD9095C9
:101680002817390724F3C09AC0988FE78FB9779B42
:10169000FECF1FB8779BFECF9FB1C09AC0988FE74F
:1016A0008FB9779BFECF9983FE0134969E012A5F06
:1016B0003F4F1FB8779BFECF8FB18193E217F3079F
:1016C000C1F7C09AE0914807F09149078C81808763
:1016D00050E040E00CC0E0914807F09149070580D8
:1016E000F681E02DE20FF31F8081580F4F5FE091EC
:1016F0004807F0914907242F30E08381992787FD1F
:101700009095281739073CF389815817C1F0C09884
:101710008FE78FB9779BFECF1FB8779BFECF8FB136
:10172000C09AC09888E08FB9779BFECFC09AC098C6
:1017300088E08FB9779BFECFC09A8CEF21C08D8156
:1017400087FF07C0809159078F5F8093590781E019
:1017500017C0C0988FE78FB9779BFECF1FB8779BD4
:10176000FECF8FB1C09AC09888E08FB9779BFECF2B
:10177000C09AC09888E08FB9779BFECFC09A8BEF54
:101780000F900F900F900F900F90CF91DF910895D1
:1017900080915907882321F08091590710925907A9
:1017A0000895C09888E08FB9779BFECFC09AC09803
:1017B00088E08FB9779BFECFC09A0895992787FD5F
:1017C0009095382F22272068C09883E18FB9779BA6
:1017D000FECF3FB9779BFECF2FB9779BFECFC09A44
:1017E0000895C09886E08FB9779BFECFC09AC098C5
:1017F00082E18FB9779BFECF85E08FB9779BFECFD3
:1018000088E08FB9779BFECFC09AC0988EE28FB9DF
:10181000779BFECF88E18FB9779BFECF1FB8779B70
:10182000FECFC09A0E94D10B0895C09886E08FB970
:10183000779BFECFC09AC09882E18FB9779BFECF8D
:1018400085E08FB9779BFECF1FB8779BFECFC09AFC
:10185000C0988EE28FB9779BFECF1FB8779BFECFE3
:101860001FB8779BFECFC09A0E94D10B0895C098F5
:1018700086E08FB9779BFECFC09AC09882E18FB97E
:10188000779BFECF85E08FB9779BFECF81E08FB944
:10189000779BFECFC09A0E94D10B0895C09882E139
:1018A0008FB9779BFECF85E08FB9779BFECF84E021
:1018B0008FB9779BFECFC09A0E94D10B0895282F35
:1018C00030E02F7030708091460790914707807FFD
:1018D000282B392B3093470720934607C09881E186
:1018E0008FB9779BFECF3FB9779BFECF2FB9779B00
:1018F000FECFC09A0895282F30E076E0220F331FE4
:101900007A95E1F7307080914607909147078F7381
:10191000282B392B3093470720934607C09881E145
:101920008FB9779BFECF3FB9779BFECF2FB9779BBF
:10193000FECFC09A0895C09884E08FB9779BFECF00
:10194000C09A0895C09886E08FB9779BFECFC09A61
:101950000895FF920F931F93DF93CF9300D000D091
:10196000CDB7DEB7DC0140914507442331F0C09884
:101970008DE08FB9779BFECFC09A1A8212962C9178
:101980001297622F772767FD709530E00BC0139692
:10199000ED91FC911497E80FF91F8A819081890FCE
:1019A0008A833F5F832F90E08617970784F3245F35
:1019B00029832C50442311F0205F2983C09888E0AC
:1019C0008FB9779BFECFC09AC09888E08FB9779B7C
:1019D000FECFC09A0E99FECF8499FCCFF894C098A0
:1019E00089E08FB9779BFECFC09AC09889E08FB904
:1019F000779BFECFC09AC0988EE38FB9779BFECFBE
:101A000089818FB9779BFECFC09A81E498E89C8347
:101A10008B8380915307882321F081E698E89C838B
:101A20008B83442329F08B819C8188609C838B83EA
:101A3000C0988EE38FB9779BFECFFE0133969E014F
:101A40002B5F3F4F80818FB9779BFECF3196E21796
:101A5000F307C1F7C09AC0988EE38FB9779BFECF8A
:101A600080914A078FB9779BFECFC09AC0988EE3CA
:101A70008FB9779BFECF20E030E0F901E85BF84FAB
:101A800084818FB9779BFECF2F5F3F4F2230310586
:101A9000A1F7C09AC0988EE38FB9779BFECFFD0166
:101AA0009D012E5F3F4F80818FB9779BFECF31968E
:101AB000E217F307C1F7C09AC0988EE38FB9779BFE
:101AC000FECF20E030E0F901E85BF84F86818FB966
:101AD000779BFECF2F5F3F4F22303105A1F7C09A91
:101AE000442389F0C0988EE38FB9779BFECFE5E55C
:101AF000F7E080818FB9779BFECF319687E0E9359B
:101B0000F807B9F7C09AC0988EE38FB9779BFECFDC
:101B100020E00BC01396ED91FC911497E80FF91F8C
:101B200080818FB9779BFECF2F5F822F90E0861741
:101B3000970784F3C09AC0988EE38FB9779BFECF46
:101B40008A818FB9779BFECFC09A15968C91882396
:101B500099F180915007882331F4C09883E08FB9C0
:101B6000779BFECFC09AC0981FB8779BFECF8FB1EE
:101B7000C09A81FFF8CF10E0E5E0FE2EC098FFB8D4
:101B8000779BFECFC09AC0981FB8779BFECF0FB14E
:101B9000C09A1F5F153649F478948091430790915D
:101BA00044070E94A72190E042C084E690E00E9492
:101BB000111403FFE3CF06C0C09884E08FB9779B70
:101BC000FECFC09A7894849BFECF8499FECF8091FB
:101BD0005307882381F084EA92E00E941114B79B96
:101BE0000CC0C0988FE78FB9779BFECF1FB8779B4B
:101BF000FECF8FB1C09A91E00DC0C09888E08FB938
:101C0000779BFECFC09AC09888E08FB9779BFECFB4
:101C1000C09A90E0F894C09886E08FB9779BFECF89
:101C2000C09A789480914A078F5F80934A07892FE2
:101C30000F900F900F900F90CF91DF911F910F9108
:101C4000FF900895CF92DF92EF92FF920F931F9330
:101C5000DF93CF9300D000D0CDB7DEB77C018B01EE
:101C60006A010E94252EC09888E08FB9779BFECF2D
:101C7000C09AC09888E08FB9779BFECFC09A0E9922
:101C8000FECF8499FCCFF894C09889E08FB9779BF8
:101C9000FECFC09AC09889E08FB9779BFECFC09ADB
:101CA0001A82D70112963C91432F552747FD509534
:101CB00020E00CC0D7011396ED91FC911497E80F2A
:101CC000F91F8A819081890F8A832F5F822F90E08C
:101CD000841795077CF3932F945F9983C0988EE3C4
:101CE0008FB9779BFECF9FB9779BFECFC09AF70144
:101CF0008681882319F481E498E802C081E698E897
:101D00009C838B83C0988EE38FB9779BFECFFE01B7
:101D100033969E012B5F3F4F80818FB9779BFECF1B
:101D20003196E217F307C1F7C09AC0988EE38FB9D6
:101D3000779BFECF80914A078FB9779BFECFC09AE1
:101D4000C0988EE38FB9779BFECF20E030E0F90199
:101D5000E85BF84F84818FB9779BFECF2F5F3F4FB1
:101D600022303105A1F7C09AC0988EE38FB9779BD6
:101D7000FECFF70197012E5F3F4F80818FB9779B90
:101D8000FECF3196E217F307C1F7C09AC0988EE3F1
:101D90008FB9779BFECF20E030E0F901E85BF84F88
:101DA00086818FB9779BFECF2F5F3F4F2230310561
:101DB000A1F7C09AC801B6010E94BB2DD7011596A4
:101DC0008C91882399F180915007882331F4C09831
:101DD00083E08FB9779BFECFC09AC0981FB8779BDE
:101DE000FECF8FB1C09A81FFF8CF10E0F5E0DF2E73
:101DF000C098DFB8779BFECFC09AC0981FB8779B7A
:101E0000FECF0FB1C09A1F5F153649F478948091C8
:101E10004307909144070E94A72180E060C084E6B8
:101E200090E00E94111403FFE3CF06C0C09884E045
:101E30008FB9779BFECFC09AC0988EE38FB9779BFE
:101E4000FECFF7018281482F552747FD509520E0AE
:101E50000CC0D7011396ED91FC911497E80FF91F70
:101E600080818FB9779BFECF2F5F822F90E0841700
:101E700095077CF3C09AC0988EE38FB9779BFECF0D
:101E80008A818FB9779BFECFC09A849BFECFF8944E
:101E90008499FECFC09888E08FB9779BFECFC09A17
:101EA000C09888E08FB9779BFECFC09AC09889E030
:101EB0008FB9779BFECFC09AC09889E08FB9779B86
:101EC000FECFC09AC09886E08FB9779BFECFC09AAC
:101ED000789480914A078F5F80934A0781E00F9042
:101EE0000F900F900F90CF91DF911F910F91FF9066
:101EF000EF90DF90CF900895DF93CF9300D0CDB7D0
:101F0000DEB79A83898390934F0780934E0784EFBF
:101F100091E00E94892DC0988AEE8FB9779BFECF01
:101F200080E88FB9779BFECFFE0131969E012D5F31
:101F30003F4F80818FB9779BFECF3196E217F30731
:101F4000C1F7C09A84EF91E00E94892D0F900F9005
:101F5000CF91DF9108954F925F926F927F928F920F
:101F60009F92AF92BF92CF92DF92EF92FF920F9328
:101F70001F93DF93CF9300D0CDB7DEB7182F092F73
:101F800084E690E00E94892D212F302FC9016C0139
:101F900000E011E03E010894611C711C33E0432E07
:101FA000512C4C0E5D1EF601F080EE24818190E0F4
:101FB0008E299F299A83898384E690E00E94892D47
:101FC000C098802F80688FB9779BFECFC801959508
:101FD0008795807C8FB9779BFECF43015301F50134
:101FE00080818FB9779BFECF0894A11CB11C4A1445
:101FF0005B04A9F7C09A0894C11CD11C0E5F1F4F47
:10200000F1E000311F0779F684E690E00E94892D07
:1020100020E131E040E451E01A821982C098842F17
:1020200080688FB9779BFECFCA0195958795807C94
:102030008FB9779BFECFF30180818FB9779BFECF5D
:102040003196EA15FB05C1F7C09AC098822F8068C7
:102050008FB9779BFECFC90195958795807C8FB905
:10206000779BFECFF30180818FB9779BFECF3196AE
:10207000EA15FB05C1F7C09A2E5F3F4F4E5F5F4FD9
:1020800081E02E31380741F681E090E09A83898320
:10209000C0988EEC8FB9779BFECF80E88FB9779B85
:1020A000FECFF30180818FB9779BFECF31964E161C
:1020B0005F06C1F7C09AC0988EE98FB9779BFECFB3
:1020C00080E88FB9779BFECFF40180818FB9779B31
:1020D000FECF0894811C911C48145904A9F7C09A9A
:1020E0000F900F90CF91DF911F910F91FF90EF9084
:1020F000DF90CF90BF90AF909F908F907F906F9028
:102100005F904F900895F894C09881E08FB9779BC5
:10211000FECFC09A88EE93E00E94892D78940895AE
:10212000CF93DF93EC01C09888E08FB9779BFECF07
:10213000C09AC09888E08FB9779BFECFC09A862F4F
:102140000E948008D0934907C0934807DF91CF9140
:1021500008950E9480080895DF92EF92FF920F93F6
:102160001F93DF93CF9300D0CDB7DEB78C01D62E6F
:102170005A8349837901DD9A88EE93E00E94111415
:10218000DE9881E090E00E941114DE9A84E690E0EF
:102190000E941114F894C09881E08FB9779BFECF0C
:1021A000C09A82EE92E09093470780934607C098CA
:1021B00081E18FB9779BFECF82E08FB9779BFECF0D
:1021C00082EE8FB9779BFECFC09AC09882E18FB91B
:1021D000779BFECF85E08FB9779BFECF1FB8779BAB
:1021E000FECFC09AC0988CE18FB9779BFECF1FB805
:1021F000779BFECF8FE78FB9779BFECFC09AC098B1
:1022000089E18FB9779BFECF81E08FB9779BFECFB5
:1022100084EC8FB9779BFECFC09AC09887E18FB9C5
:10222000779BFECF8AE18FB9779BFECF86E58FB98A
:10223000779BFECFC09A84EF91E00E94892DC098D1
:1022400088EE8FB9779BFECF80E88FB9779BFECF62
:10225000FE0131969E012D5F3F4F80818FB9779BA4
:10226000FECF3196E217F307C1F7C09A84EF91E0F1
:102270000E94892D78948D2D0E9480087894109367
:1022800049070093480789819A8190934D0780936D
:102290004C07F0924F07E0924E0710924A071092B7
:1022A00050070E949A081092530710924507109207
:1022B00054070F900F90CF91DF911F910F91FF90D6
:1022C000EF90DF9008958091DB010E948D11809145
:1022D000DA010E948D1108958091DB010E948D1119
:1022E0008091DA010E94D51108958FEF0895882317
:1022F00029F48BB1881F8827881F0895813011F039
:1023000080E0089580919B00881F8827881F08958A
:102310005F9BFECF5F988CB10895382F8F3F09F4F3
:1023200042C0282F26952695269581E090E002C090
:10233000880F991F2A95E2F7982F232F30E02770F6
:10234000307022303105E1F0233031053CF42115A5
:10235000310571F02130310531F50EC024303105E1
:10236000B9F02430310584F025303105E1F414C092
:102370008BB3982B9BBB15C088B3982B98BB11C00F
:1023800085B3982B95BB0DC082B3982B92BB09C027
:1023900083B1982B93B905C080916200982B9093DC
:1023A000620081E008958FEF0895382F8F3F09F480
:1023B00043C0282F26952695269581E090E002C0FF
:1023C000880F991F2A95E2F7982F9095232F30E0D8
:1023D0002770307022303105E1F0233031053CF4B4
:1023E0002115310571F02130310531F50EC0243051
:1023F0003105B9F02430310584F025303105E1F4A0
:1024000014C08BB398239BBB15C088B3982398BB8B
:1024100011C085B3982395BB0DC082B3982392BB9E
:1024200009C083B1982393B905C0809162009823B5
:102430009093620081E008958FEF0895282F8F3FD9
:1024400069F190E08770907082309105A9F0833037
:1024500091052CF4009761F0019701F50BC08430D1
:10246000910571F0843091054CF00597B9F40AC0DC
:1024700089B309C086B307C083B305C080B303C066
:1024800081B101C080B190E026952695269502C0C5
:10249000959587952A95E2F7817008958FEF0895B5
:1024A000882319F080B58B7F02C080B5846080BD21
:1024B00081E00895382F8F3F09F442C0282F2695D8
:1024C0002695269581E090E002C0880F991F2A95F5
:1024D000E2F7982F232F30E027703070223031053B
:1024E000E1F0233031053CF42115310571F0213044
:1024F000310531F50EC024303105B9F024303105F5
:1025000084F025303105E1F414C08BB398279BBBD0
:1025100015C088B3982798BB11C085B3982795BB81
:102520000DC082B3982792BB09C083B1982793B995
:1025300005C08091620098279093620081E0089521
:102540008FEF0895982F8F3F09F488C08695869560
:10255000869521E030E002C0220F331F8A95E2F712
:10256000422F892F90E0662309F047C0209587709D
:1025700090708230910509F18330910534F4009711
:1025800071F0019709F06AC011C08430910519F10A
:1025900084309105CCF0059709F060C023C08AB360
:1025A00028232ABB8BB3482B4BBB56C087B32823A9
:1025B00027BB88B3482B48BB4FC084B3282324BB18
:1025C00085B3482B45BB48C081B3282321BB82B3C8
:1025D000482B42BB41C082B1282322B983B1482B8A
:1025E00043B93AC080916100282320936100809113
:1025F0006200482B409362002FC087709070823039
:102600009105C9F0833091052CF4009761F0019792
:1026100029F50DC084309105B1F0843091057CF02E
:102620000597E1F414C08AB3482B4ABB15C087B3A1
:10263000482B47BB11C084B3482B44BB0DC081B3AA
:10264000482B41BB09C082B1482B42B905C08091DB
:102650006100482B4093610081E008958FEF089559
:102660008FEF0895009711F480E004C08130910548
:1026700029F488E00E945A1281E00895029711F02F
:102680008FEF089580E10E945A1281E0089500972B
:1026900011F480E004C08130910529F488E00E94A3
:1026A0008D1181E00895029711F08FEF089580E178
:1026B0000E948D1181E0089580B5846080BD87E01F
:1026C00087BB88BB8FEF84BB15BA82E082B987E6EF
:1026D0008ABB80E48BBB80E58DB981E08EB980E058
:1026E00090E00E94471381E090E00E94471382E04F
:1026F00090E00E94471383E090E00E944713089502
:10270000009711F480E004C08130910529F488E03D
:102710000E94D51181E00895029711F08FEF08957E
:1027200080E10E94D51181E008955D9BFECF5D9808
:102730008CB90895982F80919B0085FFFCCF8091E4
:102740009B008F7D80939B0090939C0008959093B5
:10275000900089B986E0809395005298599A8AB181
:1027600088618AB90895909398008093990086E0D3
:1027700080939D00EAE9F0E080818B7F8083ABE964
:10278000B0E08C9182608C93808188618083089511
:1027900080919B0087FFFCCF80919B008F77809377
:1027A0009B0080919C000895EF92FF920F931F93DE
:1027B0009093900089B986E0809395005298599A39
:1027C0008AB188618AB905E913E188E8E82E81E1D8
:1027D000F82EC801B7010E94574C9093820880934D
:1027E0008108C801B7010E94574C909380088093DC
:1027F0007F081F910F91FF90EF900895CF93DF9383
:10280000EC0107C0609181087091820890E00E94FD
:10281000E54CFE01219684918823A1F7DF91CF91A9
:10282000089500000000000000000197D1F708950E
:10283000FC0187E090E060810E94BA4D81E008953C
:102840000F931F93CF93DF938C01C8E0D0E0CE01AC
:10285000F80161918F010E94BA4D2196C831D105CE
:10286000B1F781E0DF91CF911F910F910895FC01A5
:1028700086E090E060810E94BA4D81E008950E9458
:10288000BA4D80E008950F931F938C0187E090E08C
:102890000E94B24DF801808381E01F910F9108954D
:1028A0000F931F93CF93DF938C01C8E0D0E0CE014C
:1028B0000E94B24DF80181938F012196C831D10554
:1028C000B1F781E0DF91CF911F910F9108950F93A0
:1028D0001F938C0186E090E00E94B24DF801808346
:1028E00081E01F910F9108950F931F938C0185E054
:1028F00090E00E94B24DF801808381E01F910F911A
:102900000895FF920F931F938C0180E090E00E9446
:10291000B24DF801838381E090E00E94B24DF8014E
:10292000828382E090E00E94B24DF801818383E0CF
:1029300090E00E94B24DF82EF801808384E090E090
:102940000E94B24DF80191812281920F9F0D238147
:10295000920F891711F08FEF01C081E01F910F9145
:10296000FF9008950E94B24D0895F89408957894C8
:102970000895F894FFCF85E690E008950E94C72956
:102980000895EF92FF920F931F93CF93DF93EC0183
:102990008B017A018985823021F080910608888335
:1029A00001C0188280910608853020F087E060E041
:1029B0000E947E1F8985823029F0809106088F5FF2
:1029C0008093060880910608882319F481E080939B
:1029D00006088881992787FD9095FC0145E0EE0F58
:1029E000FF1F4A95E1F7E80FF91FE45AF84F1183EA
:1029F00000838881992787FD9095FC0135E0EE0FD3
:102A0000FF1F3A95E1F7E80FF91FE45AF84F888560
:102A100082878881992787FD9095FC0125E0EE0F3C
:102A2000FF1F2A95E1F7E80FF91FE45AF84F83E0FA
:102A300081872881822F992787FD9095FC0105E0E9
:102A4000EE0FFF1F0A95E1F7E80FF91FE45AF84F60
:102A500020878881992787FD9095FC0115E0EE0F6E
:102A6000FF1F1A95E1F7E80FF91FE45AF84F158296
:102A70000881112707FD1095CE010B960E94E027D3
:102A8000F801B5E0EE0FFF1FBA95E1F7E00FF11F77
:102A9000E45AF84F948F838F8B859C85AD85BE85D6
:102AA000CE97A105B10520F086E168810E947E1FC6
:102AB0000881112707FD1095CE014B960E94E02753
:102AC000F801A5E0EE0FFF1FAA95E1F7E00FF11F57
:102AD000E45AF84F968B858B8881992787FD9095CE
:102AE000FC0175E0EE0FFF1F7A95E1F7E80FF91F83
:102AF000E45AF84F85899689238D348D820F931F70
:102B0000908F878B0881112707FD1095CE01439682
:102B10000E94E027F80165E0EE0FFF1F6A95E1F7DC
:102B2000E00FF11FE45AF84F968F858F888199271F
:102B300087FD9095FC0155E0EE0FFF1F5A95E1F7D8
:102B4000E80FF91FE45AF84F858D968D928F818F8B
:102B50008881992787FD9095FC0145E0EE0FFF1FC6
:102B60004A95E1F7E80FF91FE45AF84F81E090E049
:102B700090A3878F8881992787FD9095FC0135E088
:102B8000EE0FFF1F3A95E1F7E80FF91FE45AF84FEF
:102B9000F382E2828881992787FD9095FC0125E0E8
:102BA000EE0FFF1F2A95E1F7E80FF91FE45AF84FDF
:102BB00081E08487DF91CF911F910F91FF90EF907B
:102BC0000895CF92DF92EF92FF920F931F93DF93BE
:102BD000CF930F92CDB7DEB774E6E72E77E0F72EEE
:102BE00090E0F70100810F3FC1F064E6C62E67E078
:102BF000D62E10E0911751F0F6018081081731F4BC
:102C000085E0602F99830E947E1F99811F5F21E2DA
:102C100030E0C20ED31E153069F79F5FE1E2F0E0AD
:102C2000EE0EFF1E9530E9F60E944E23282F332723
:102C300027FD3095F90155E0EE0FFF1F5A95E1F79A
:102C4000E20FF31FE45AF84F32853093190821E25E
:102C50008202C0011124845A984F909318088093DF
:102C60001708909309088093080830930A080E9477
:102C7000DE2F0E94CF2F0E94143DFFCF0F931F9392
:102C8000DF93CF93CDB7DEB7A3970FB6F894DEBF2F
:102C90000FBECDBF0E94C220809307088F3F21F452
:102CA0008EE060E00E947E1F0E94082F0E945D2F30
:102CB0008F3F31F40E94742F80E160E00E947E1FFC
:102CC0000E94662F10920A08109218081092170896
:102CD0001092090810920808109219080E94DD1637
:102CE000109216088FEF8093030880930508809355
:102CF0000408E4E6F7E093E692838083B19628E047
:102D0000E930F207C9F7E3E5F8E0CF0105969483CF
:102D10008383F783E683FC0188E0EC36F807A9F7A4
:102D200010925508109254081482138210920D08C4
:102D300010920C087997F0935B07E0935A078E0185
:102D40000F5F1F4FC80161EA79E20E94822FC8011C
:102D50006CE176E040E850E00E94E32F85E5809347
:102D60001C0619861C861D861E861F86188A198ACF
:102D70001A8A1B8A1C8A1D8A1E8A1F8A188E198E1F
:102D80001A8E1B8E1C8E1D8E1E8E1F8E18A219A2CF
:102D90001AA21BA291E0988782E08A879B87C801CC
:102DA0000E945426A3960FB6F894DEBF0FBECDBF87
:102DB000CF91DF911F910F910895109252041092BC
:102DC0005304109254041092550410925604109219
:102DD00057041092580410925904E5E8F5E0108267
:102DE0001182128213821086118612861386148233
:102DF0001582168217821486158616861786108A03
:102E0000118A128A138A108E118E128E138E148ECE
:102E1000158E7E9686E0EB31F80709F70895FC01E0
:102E20008091520490915304A0915404B0915504A0
:102E300080839183A283B383809156049091570439
:102E4000A0915804B091590484839583A683B783D5
:102E50000895382F90E0FC01B5E0EE0FFF1FBA9502
:102E6000E1F7880F991FE81BF90BEB57FA4F858D97
:102E7000813089F1832F90E0FC0175E0EE0FFF1F98
:102E80007A95E1F7880F991FE81BF90BEB57FA4F7A
:102E9000248D2F5F832F90E0FC0155E0EE0FFF1F84
:102EA0005A95E1F7880F991FE81BF90BEB57FA4F7A
:102EB000248F2F3F81F4832F90E0FC0135E0EE0F4B
:102EC000FF1F3A95E1F7880F991FE81BF90BEB57A5
:102ED000FA4F81E0858F0895682F90E0FC0175E03E
:102EE000EE0FFF1F7A95E1F7880F991FE81BF90B8A
:102EF000EB57FA4F858D813009F44FC0862F90E053
:102F0000FC0145E0EE0FFF1F4A95E1F7880F991F7E
:102F1000E81BF90BEB57FA4F148A158A168A178AA1
:102F2000862F90E0FC0125E0EE0FFF1F2A95E1F7C8
:102F3000880F991FE81BF90BEB57FA4F208931894D
:102F4000428953892F5F3F4F4F4F5F4F862F90E04D
:102F5000FC01A5E0EE0FFF1FAA95E1F7880F991F6E
:102F6000E81BF90BEB57FA4F208B318B428B538BBD
:102F70002E5F3F4F4F4F5F4F81F4862F90E0FC0153
:102F800035E0EE0FFF1F3A95E1F7880F991FE81B18
:102F9000F90BEB57FA4F81E0858F08951F93182F97
:102FA00090E0FC01A5E0EE0FFF1FAA95E1F7880F66
:102FB000991FE81BF90BEB57FA4F858D813009F407
:102FC000A5C0812F90E09C0155E0220F331F5A9538
:102FD000E1F7880F991F281B390B2B573A4F812F88
:102FE00090E0FC01B5E0EE0FFF1FBA95E1F7880F06
:102FF000991FE81BF90BEB57FA4F808D918DA28D2D
:10300000B38D0196A11DB11DF901808F918FA28F03
:10301000B38F462F50E060E070E0812F90E09C017C
:10302000F5E0220F331FFA95E1F7880F991F281B4F
:10303000390B2B573A4F812F90E0FC01B5E0EE0F92
:10304000FF1FBA95E1F7880F991FE81BF90BEB57A3
:10305000FA4F84899589A689B789840F951FA61F81
:10306000B71FF901848B958BA68BB78B812F90E0CE
:103070009C01F5E0220F331FFA95E1F7880F991FA5
:10308000281B390B2B573A4F812F90E0FC01B5E0FC
:10309000EE0FFF1FBA95E1F7880F991FE81BF90B98
:1030A000EB57FA4F80819181A281B381480F591F5C
:1030B0006A1F7B1FF9014083518362837383812FD1
:1030C00090E0FC0135E0EE0FFF1F3A95E1F7880F25
:1030D000991FE81BF90BEB57FA4F808D918DA28D4C
:1030E000B38D8E5F9F4FAF4FBF4F81F4812F90E024
:1030F000FC01B5E0EE0FFF1FBA95E1F7880F991FAD
:10310000E81BF90BEB57FA4F81E0858F1F9108956B
:103110001F93182F90E0FC01B5E0EE0FFF1FBA954A
:10312000E1F7880F991FE81BF90BEB57FA4F858DD4
:10313000813009F4E4C0462F50E060E070E0812F58
:1031400090E09C01F5E0220F331FFA95E1F7880F1C
:10315000991F281B390B2B573A4F812F90E0FC0108
:10316000B5E0EE0FFF1FBA95E1F7880F991FE81B36
:10317000F90BEB57FA4F84899589A689B789840F93
:10318000951FA61FB71FF90184879587A687B78764
:10319000812F90E09C01F5E0220F331FFA95E1F7B3
:1031A000880F991F281B390B2B573A4F812F90E01E
:1031B000FC01B5E0EE0FFF1FBA95E1F7880F991FEC
:1031C000E81BF90BEB57FA4F80819181A281B38103
:1031D000480F591F6A1F7B1FF90140835183628387
:1031E0007383812F90E0FC0135E0EE0FFF1F3A95CD
:1031F000E1F7880F991FE81BF90BEB57FA4F248171
:103200003581468157812115310541055105B9F0B8
:10321000812F90E0FC01B5E0EE0FFF1FBA95E1F7BA
:10322000880F991FE81BF90BEB57FA4F848595859A
:10323000A685B78582179307A407B50728F5812FC0
:1032400090E09C0175E0220F331F7A95E1F7880F1B
:10325000991F281B390B2B573A4F812F90E0FC0107
:1032600055E0EE0FFF1F5A95E1F7880F991FE81BF5
:10327000F90BEB57FA4F84859585A685B785F9013B
:1032800084839583A683B783812F90E0FC01B5E00A
:10329000EE0FFF1FBA95E1F7880F991FE81BF90B96
:1032A000EB57FA4F2485358546855785812F90E069
:1032B000FC0175E0EE0FFF1F7A95E1F7880F991F6B
:1032C000E81BF90BEB57FA4F80859185A285B385F2
:1032D00082179307A407B50790F4812F90E0FC01B3
:1032E00015E0EE0FFF1F1A95E1F7880F991FE81BF5
:1032F000F90BEB57FA4F20873187428753871F918D
:103300000895CF93DF93282FEB01853010F08FEFD6
:10331000BAC090E0FC0155E0EE0FFF1F5A95E1F7AF
:10332000880F991FE81BF90BEB57FA4F80819181A9
:10333000A281B38188839983AA83BB83822F90E083
:10334000FC0135E0EE0FFF1F3A95E1F7880F991F5A
:10335000E81BF90BEB57FA4F84819581A681B78161
:103360008C839D83AE83BF83822F90E0FC01A5E018
:10337000EE0FFF1FAA95E1F7880F991FE81BF90BC5
:10338000EB57FA4F80859185A285B3858887998709
:10339000AA87BB87822F90E0FC0165E0EE0FFF1F3C
:1033A0006A95E1F7880F991FE81BF90BEB57FA4F65
:1033B00084859585A685B7858C879D87AE87BF87D1
:1033C000822F90E0FC0145E0EE0FFF1F4A95E1F7E8
:1033D000880F991FE81BF90BEB57FA4F80899189E9
:1033E000A289B389888B998BAA8BBB8B822F90E0A3
:1033F000FC01B5E0EE0FFF1FBA95E1F7880F991FAA
:10340000E81BF90BEB57FA4F84899589A689B78990
:103410008C8B9D8BAE8BBF8B822F90E0FC0175E077
:10342000EE0FFF1F7A95E1F7880F991FE81BF90B44
:10343000EB57FA4F808D918DA28DB38D888F998F28
:10344000AA8FBB8F822F90E0FC0155E0EE0FFF1F8B
:103450005A95E1F7880F991FE81BF90BEB57FA4FC4
:10346000848D8C8F822F90E0FC0135E0EE0FFF1FE2
:103470003A95E1F7880F991FE81BF90BEB57FA4FC4
:10348000858D8D8F81E0DF91CF910895DF92EF924E
:10349000FF920F931F93DF93CF93CDB7DEB7609763
:1034A0000FB6F894DEBF0FBECDBFD82E8CE292E0EF
:1034B0000E94FE1300D000D0EDB7FEB7319684EE27
:1034C00091E0ADB7BEB712969C938E931197D282BE
:1034D00013820E94114D0F900F900F900F90DD20DE
:1034E00009F080C081E192E00E94FE13CE010196B6
:1034F0000E944229EDB7FEB73A970FB6F894FEBF87
:103500000FBEEDBF0DB71EB70F5F1F4F67EEE62E64
:1035100061E0F62EF282E18289819A81AB81BC81E1
:10352000F80182839383A483B5836D817E818F812B
:10353000988520E432E44FE050E00E94104BD8011F
:1035400016962D933D934D935C9319970E94114DC0
:10355000EDB7FEB73A960FB6F894FEBF0FBEEDBFBB
:1035600080EF91E00E94FE138DB79EB70A970FB6C9
:10357000F8949EBF0FBE8DBF0DB71EB70F5F1F4FD4
:10358000ADB7BEB71296FC92EE921197809152049D
:1035900090915304A0915404B0915504F801828392
:1035A0009383A483B58360915604709157048091EE
:1035B00058049091590420E432E44FE050E00E9416
:1035C000104BD80116962D933D934D935C9319970C
:1035D0000E94114DEDB7FEB73A960FB6F894FEBFB4
:1035E0000FBEEDBF8FED91E00E94FE138D2D90E098
:1035F000FC0155E0EE0FFF1F5A95E1F7880F991F68
:10360000E81BF90BEB57FA4F60817181828193813E
:103610000E94782829873A874B875C876D877E8749
:103620008F87988BDE011196FE01399688E0019014
:103630000D928150E1F78DB79EB70A970FB6F894B7
:103640009EBF0FBE8DBF0DB71EB70F5F1F4F87EE1A
:1036500091E0ADB7BEB712969C938E931197898176
:103660009A81AB81BC81F80182839383A483B58363
:103670006D817E818F81988520E432E44FE050E0B7
:103680000E94104BD80116962D933D934D935C9359
:1036900019970E94114DEDB7FEB73A960FB6F89400
:1036A000FEBF0FBEEDBF84EC91E00E94FE138D2D96
:1036B00090E0FC0135E0EE0FFF1F3A95E1F7880F2F
:1036C000991FE81BF90BEB57FA4F648175818681CE
:1036D00097810E94782829873A874B875C876D8776
:1036E0007E878F87988BDE011196FE01399688E0E0
:1036F00001900D928150E1F78DB79EB70A970FB6F2
:10370000F8949EBF0FBE8DBF0DB71EB70F5F1F4F42
:1037100087EF91E0ADB7BEB712969C938E93119749
:1037200089819A81AB81BC81F80182839383A483D0
:10373000B5836D817E818F81988520E432E44FE0EE
:1037400050E00E94104BD80116962D933D934D9357
:103750005C9319970E94114DEDB7FEB73A960FB6DC
:10376000F894FEBF0FBEEDBF8D2D90E0FC0105E08B
:10377000EE0FFF1F0A95E1F7880F991FE81BF90B61
:10378000EB57FA4F64857585868597850E94782862
:1037900029873A874B875C876D877E878F87988BD1
:1037A000DE011196FE01399688E001900D9281505C
:1037B000E1F78DB79EB70A970FB6F8949EBF0FBE7C
:1037C0008DBF0DB71EB70F5F1F4F87EF91E0ADB7ED
:1037D000BEB712969C938E93119789819A81AB8183
:1037E000BC81F80182839383A483B5836D817E813C
:1037F0008F81988520E432E44FE050E00E94104B26
:10380000D80116962D933D934D935C9319970E9482
:10381000114DEDB7FEB73A960FB6F894FEBF0FBE46
:10382000EDBF8D2D90E0FC01B5E0EE0FFF1FBA95C6
:10383000E1F7880F991FE81BF90BEB57FA4F6085EA
:103840007185828593850E94782829873A874B87DE
:103850005C876D877E878F87988BDE011196FE01CE
:10386000399688E001900D928150E1F78DB79EB7AF
:103870000A970FB6F8949EBF0FBE8DBF0DB71EB747
:103880000F5F1F4F87EE91E0ADB7BEB712969C93C6
:103890008E93119789819A81AB81BC81F8018283D3
:1038A0009383A483B5836D817E818F81988520E485
:1038B00032E44FE050E00E94104BD80116962D9351
:1038C0003D934D935C9319970E94114DEDB7FEB750
:1038D0003A960FB6F894FEBF0FBEEDBF84EB91E0B1
:1038E0000E94FE1300D000D000D009E012E0ADB776
:1038F000BEB712961C930E9311978D2D90E0FC018C
:1039000075E0EE0FFF1F7A95E1F7880F991FE81B0E
:10391000F90BEB57FA4F80899189A289B389EDB7EA
:10392000FEB783839483A583B6830E94114D8DB720
:103930009EB706960FB6F8949EBF0FBE8DBF81EA64
:1039400091E00E94FE1300D000D000D0ADB7BEB70A
:1039500012961C930E9311978D2D90E0FC0155E06B
:10396000EE0FFF1F5A95E1F7880F991FE81BF90B1F
:10397000EB57FA4F808D918DA28DB38DEDB7FEB7C9
:1039800083839483A583B6830E94114D8DB79EB720
:1039900006960FB6F8949EBF0FBE8DBF88E891E0E3
:1039A0000E94FE1300D000D0ADB7BEB711960DE057
:1039B00012E0EDB7FEB7128301838D2D90E0FC017C
:1039C00035E0EE0FFF1F3A95E1F7880F991FE81BCE
:1039D000F90BEB57FA4F848D12968C93129713962E
:1039E0001C920E94114D0F900F900F900F908BE63C
:1039F00091E00E94FE1300D000D0ADB7BEB7119683
:103A0000EDB7FEB7128301838D2D90E0FC0175E0C8
:103A1000EE0FFF1F7A95E1F7880F991FE81BF90B4E
:103A2000EB57FA4F858D12968C93129713961C9232
:103A30000E94114D0F900F900F900F9088E691E02B
:103A40000E94FE1360960FB6F894DEBF0FBECDBF86
:103A5000CF91DF911F910F91FF90EF90DF9008952C
:103A60001F938BE491E00E94FE1310E0812F0E94CF
:103A7000461A1F5F1530D1F71F91089590E0A0E01E
:103A8000B0E0BC01CD0123EB36EE4EE050E00E94E9
:103A9000DD4A2091560430915704409158045091CA
:103AA0005904260F371F481F591F2093560430937F
:103AB0005704409358045093590482E594E00E94BF
:103AC000AD270895E0911708F091180884870895AC
:103AD000E0911708F091180884850895DC01FB0136
:103AE00080911B06882329F0808380912D048C937C
:103AF00081E00895DF93CF930F92CDB7DEB719829F
:103B000007C080ED97E00E94892D89818F5F8983AE
:103B100089818436B0F30F90CF91DF91089581E0D1
:103B200090E00E9480130E947A1D81E090E00E9444
:103B300047130E947A1D089581E090E00E9480134F
:103B40000E947A1D0E947A1D0E947A1D81E090E0F9
:103B50000E9447130E947A1D0895FF920F931F93AE
:103B6000DF93CF9300D00F92CDB7DEB700D000D057
:103B700000D0EDB7FEB731968E010F5F1F4FADB786
:103B8000BEB712961C930E93119720E132E0338357
:103B90002283848315820E94234DFF248DB79EB714
:103BA00006960FB6F8949EBF0FBE8DBF71C0A00FD2
:103BB000B11F8C918433D1F1853370F48133F9F0E6
:103BC000823320F4803309F05CC016C0823311F1D7
:103BD000833309F056C023C08733C9F1883330F4EA
:103BE000853369F1863309F04CC02CC08833B1F1BC
:103BF000893309F046C03BC00E949C1D02C00E9450
:103C00008F1D0E949C1D0E949C1D0E949C1D0E9455
:103C10009C1D37C00E948F1D0E948F1DF4CF0E94F3
:103C20008F1D0E948F1D0E948F1DEFCF0E948F1D40
:103C30000E948F1D0E948F1D0E948F1DE8CF0E9441
:103C40008F1D02C00E949C1D0E948F1D04C00E94F7
:103C50009C1D0E949C1D0E948F1D06C00E949C1DE1
:103C60000E949C1D0E949C1D0E948F1D08C00E94E6
:103C70009C1D0E949C1D0E949C1D0E949C1D0E94D8
:103C80008F1D0E947A1D0E947A1D0E947A1DF39456
:103C9000F80101900020E9F73197E01BF10BAF2DFF
:103CA000B0E0AE17BF0708F482CF0F900F900F90CF
:103CB000CF91DF911F910F91FF90089580911B0686
:103CC000882309F49BC083E694E00E94FE1300D091
:103CD00000D0EDB7FEB7319680E192E0ADB7BEB748
:103CE00012969C938E93119780912D048283138258
:103CF0000E94114D0F900F900F900F908FE594E060
:103D00000E94FE1380911B06883110F010921B0652
:103D100080911B0690E0FC013197E631F10508F037
:103D20004AC0EA5BFF4FEE0FFF1F0590F491E02DB4
:103D3000099483E294E041C08CEF93E03EC088EEAA
:103D400093E03BC082ED93E038C087EB93E035C051
:103D500081EA93E032C089E893E02FC086E793E0E0
:103D60002CC083E693E029C085E493E026C080E27E
:103D700093E023C084E193E020C089EF92E01DC06E
:103D80008AEE92E01AC086ED92E017C085EC92E0D0
:103D900014C081EB92E011C081E992E00EC089E786
:103DA00092E00BC08EE592E008C08DE492E005C081
:103DB0008EE392E002C087E392E00E94FE136091DE
:103DC0008108709182088DE090E00E94E54C60913E
:103DD0008108709182088AE090E00E94E54C809111
:103DE0001B06803149F0833139F0843129F00E947B
:103DF000662F0E94B514FFCF10921B0680E0089535
:103E0000FF920F931F93082FF62E80E092E00E94FE
:103E1000B2148F5F809378038F3F11F41092780370
:103E20008091780316E0819FC00111248F5F9D4F20
:103E3000602F0E943F1480917803819FC00111245C
:103E40008E5F9D4F6F2D0E943F148091780323E079
:103E5000829FC0011124880F991F20910E08309174
:103E60000F084091100850911108252F332744273F
:103E700055278D5F9D4F622F0E943F1480917803DC
:103E8000819FC001112420910E0830910F084091AC
:103E90001008509111089A01442755278C5F9D4FB7
:103EA000622F0E943F1480917803819FC0011124EA
:103EB00020910E0830910F08409110085091110880
:103EC000232F342F452F55278B5F9D4F622F0E9444
:103ED0003F1480917803819FC00111248A5F9D4F18
:103EE00060910E080E943F1480E092E06091780398
:103EF0000E943F141F910F91FF9008951F93182F58
:103F000080931B0660932D040E94001F0E945E1E7A
:103F1000103149F0133139F0143129F00E94662F25
:103F20000E94B514FFCF1F91089580931B06E09166
:103F30001708F0911808608560932D040E94001FF7
:103F40000E945E1E0895992787FD9095FC0125E04B
:103F5000EE0FFF1F2A95E1F7E80FF91FE45AF84F1B
:103F6000A281B3818C91853521F085E58C938FEF0B
:103F70000895808191818050914110F481E00895ED
:103F800082E10E94951F8FEF08956F927F928F922A
:103F90009F92AF92BF92CF92DF92EF92FF920F93D8
:103FA0001F93CF93DF938FE694E00E94FE1300D01F
:103FB00000D083E192E0ADB7BEB712969C938E938A
:103FC0001197E0911708F09118088085992787FDCF
:103FD000909514969C938E9313970E94114DE091A7
:103FE0001708F0911808028113818CE192E0EDB777
:103FF000FEB792838183148303830E94114DEDB732
:10400000FEB7319659E2C52E52E0D52EADB7BEB7F8
:104010001296DC92CE921197D8018C9182831382F2
:104020000E94114D46E3E42E42E0F42EEDB7FEB7B8
:10403000F282E182E0911708F09118088081918165
:10404000ADB7BEB714969C938E9313970E94114DF3
:1040500000E412E0EDB7FEB71283018380911708E8
:1040600090911808948383830E94114DCCE5D7E08A
:10407000AA24BB240F900F900F900F9030E5632E71
:1040800032E0732E4601670178010A811B8100D05E
:1040900000D000D0EDB7FEB73196ADB7BEB71296DF
:1040A0007C926E921197B382A282158304830E9440
:1040B000114D0F900F90EDB7FEB73196ADB7BEB76B
:1040C00011968C92119712969C92D8018C918283B2
:1040D00013820E94114DEDB7FEB7C182D282888152
:1040E0009981948383830E94114DADB7BEB7119619
:1040F000EC9211971296FC9212971496DC93CE9341
:1041000013970E94114D0894A11CB11CA1960F9009
:104110000F900F900F90B5E0AB16B10409F0B5CF3A
:10412000DF91CF911F910F91FF90EF90DF90CF9093
:10413000BF90AF909F908F907F906F900895CF9396
:10414000DF93E0911708F0911808C281D38188812C
:10415000853539F00E94C51F81E00E94951F85E5D5
:104160008883E0911708F091180880819181805030
:10417000914128F00E94C51F82E10E94951FDF91A6
:10418000CF9108954091DA045091DB046091DC04F2
:104190007091DD0420E030E0DB01CA01022E04C092
:1041A000B695A795979587950A94D2F781709070E8
:1041B000892BD1F481E090E0A0E0B0E0022E04C0B1
:1041C000880F991FAA1FBB1F0A94D2F7842B952B27
:1041D000A62BB72B8093DA049093DB04A093DC0426
:1041E000B093DD04822F08952F5F3F4F20323105B9
:1041F00099F68FEF0895E0911708F09118086585FA
:104200007685878590890895EF92FF920F931F938B
:1042100021E030E040E050E004C0220F331F441F93
:10422000551F8A95D2F7E0911708F0911808E58498
:10423000F68407851089DA01C9018E219F21A02308
:10424000B1230097A105B10511F48FEF19C0209596
:10425000309540955095E222F32204231523E586FC
:10426000F6860787108B81899289A389B489822376
:104270009323A423B523818B928BA38BB48B81E0F2
:104280001F910F91FF90EF900895682F772767FD9A
:1042900070958091DA049091DB04A091DC04B091D8
:1042A000DD04062E04C0B695A795979587950A94C8
:1042B000D2F781709070892B11F48FEF0895E091FF
:1042C0001708F091180821E030E040E050E004C009
:1042D000220F331F441F551F6A95D2F78585968597
:1042E000A785B089822B932BA42BB52B8587968726
:1042F000A787B08B81E0089580E090E00895835017
:10430000984011F08FEF089580E00895FC0188E057
:10431000E330F80759F48FEF8083828381838091A3
:10432000160881508093160881E0089581E00E946C
:10433000621D8FEF0895FC0188E0E330F80711F467
:104340008281089581E00E94621D8FEF0895FC0133
:1043500088E0E330F80789F592818081981714F09E
:1043600081E008950E94B514809105088F5F8093C5
:104370000508E0911708F09118081482E3E6F7E0C9
:1043800023E08081823081F482859385A485B58580
:104390000097A105B10541F4228317861686108285
:1043A0001286138614861586B19688E0E830F807E1
:1043B00041F70E94B71481E0089581E00E94621DD8
:1043C0008FEF0895DF92EF92FF920F931F9391E08A
:1043D000E92EF12C012D112D04C0EE0CFF1C001F45
:1043E000111F8A95D2F78091DA049091DB04A09195
:1043F000DC04B091DD048E219F21A023B12300971E
:10440000A105B10511F481E041C00E94B514E3E6B5
:10441000F7E0DD2423E080818130B1F4828593854B
:10442000A485B5858E219F21A023B1230097A105E6
:10443000B10551F02283178616861082E286F38634
:1044400004871587DD24D3948081823099F4828596
:104450009385A485B5858E159F05A007B10751F4F6
:104460002283178616861082128613861486158676
:10447000DD24D394B19688E0E830F80761F60E9415
:10448000B714DD2011F081E004C082E00E94621DBB
:104490008FEF1F910F91FF90EF90DF900895EF92B3
:1044A000FF920F931F93CF93DF93C82FDD27C7FD94
:1044B000D09521E0E22EF12C012D112D0C2E04C0FF
:1044C000EE0CFF1C001F111F0A94D2F78091DA0432
:1044D0009091DB04A091DC04B091DD048E219F213A
:1044E000A023B1230097A105B10511F48FEF5CC0A3
:1044F0000E94B514E3E6F7E0A801970120953095F6
:104500004095509563E081818F3F39F18681978195
:10451000A085B1858E159F05A007B10731F41286DD
:104520001386148615861082628386819781A08502
:10453000B18582239323A423B52386839783A08701
:10454000B18782859385A485B58582239323A4238F
:10455000B52382879387A487B587B19688E0E83032
:10456000F80789F62EEF3FEF4FEF5FEF04C0220F01
:10457000331F441F551FCA95D2F78091DA049091DA
:10458000DB04A091DC04B091DD0482239323A423F7
:10459000B5238093DA049093DB04A093DC04B093FA
:1045A000DD040E94B71481E0DF91CF911F910F913C
:1045B000FF90EF900895CF93DF93EC0188E0C33034
:1045C000D80751F50E94B5148A81882389F4E091B7
:1045D0001708F0911808878182608783118A128AF0
:1045E000138A148A0E94B71480E090E00E94862506
:1045F00080910508815080930508E0911708F0919B
:10460000180880910408838781E084830E94B7148E
:1046100081E0DF91CF91089581E00E94621D8FEFCC
:10462000F8CF9B01AC01E0911708F091180885853F
:104630009685A785B08982239323A423B523009769
:10464000A105B10529F420E030E040E050E023C0AE
:10465000218B328B438B548B81E08783009007083A
:1046600004C056954795379527950A94D2F7C90106
:1046700081709070892B19F00E942A2504C080E077
:1046800090E00E948625E0911708F0911808218992
:10469000328943895489B901CA010895E0910C080F
:1046A000F0910D0880810895E0910C08F0910D08BB
:1046B00003C00380F481E02D3097D9F70895DF928D
:1046C000EF92FF920F931F93CF93DF93D82EC09159
:1046D0005A07D0915B07209709F49BC040910C08C2
:1046E00050910D084115510519F4A0E0B0E057C0F4
:1046F000DA01282F332727FD3095C90165E0880F9F
:10470000991F6A95E1F7820F931F845A984FBC0155
:10471000665F7F4F24E0E22EF12CE80EF91E8C013B
:10472000055F1F4F8C91282F30E0F90185E0EE0FD7
:10473000FF1F8A95E1F7E20FF31FE45AF84F8481D7
:10474000882329F09385FB018081981740F1F701B8
:104750008081882379F0F90195E0EE0FFF1F9A958B
:10476000E1F7E20FF31FE45AF84F9285F8018081D8
:104770009817A8F0F90185E0EE0FFF1F8A95E1F781
:10478000E20FF31FE45AF84F9285FB0180819817DE
:1047900030F013960D90BC91A02D109719F6D88289
:1047A000EB81FC81F0935B07E0935A07A417B507F0
:1047B000B1F4109749F0BC83AB831A821982129628
:1047C000DC93CE93119706C01C821B821A82198239
:1047D000D283C183D0930D08C0930C081AC01196E0
:1047E0008D919C911297AE17BF0759F09A838983D8
:1047F000BC83AB831196ED91FC911297D483C38354
:1048000004C01C821B829A8389831296DC93CE9308
:104810001197DF91CF911F910F91FF90EF90DF9053
:104820000895CF93DF93A0910C08B0910D081097D5
:1048300009F453C0282F332727FD30958C9190E041
:104840008217930779F41396ED91FC911497F093E6
:104850000D08E0930C081282118212C0DA01411592
:104860005105D9F18C9190E013964C9113971496C1
:104870005C9114978217930789F722C0FA83E98322
:10488000E0915A07F0915B07309749F4B0935B07CA
:10489000A0935A0714961C921E9213970AC014965E
:1048A000FC93EE931397B283A183B0935B07A0931D
:1048B0005A07E0915A07F0915B07128211820DC0EE
:1048C0001196ED91FC911297438354831396CD91E9
:1048D000DC911497209791F6D3CFDF91CF91089573
:1048E000E0911708F0911808808508950E94922F92
:1048F000E0911708F091180885818823B9F7089589
:10490000FF920F931F93DF93CF93CDB7DEB7289716
:104910000FB6F894DEBF0FBECDBF29833A834B8319
:104920005C836D837E838F8398870E949F200E9483
:10493000B514E0911708F091180881E0858381E0B3
:1049400090E090A3878F0E94252EF82ECE0101962D
:104950000E94E027E0911708F09118080F2D10E051
:10496000800F911F968B858B87EF8F1570F00E94BB
:104970001F2E0F5F1F4F90E00817190734F48F2D7B
:104980008E5F809384050E94222E0E94B7140E949D
:10499000762481E028960FB6F894DEBF0FBECDBF17
:1049A000CF91DF911F910F91FF9008958F929F9269
:1049B000AF92BF92CF92DF92EF92FF920F931F932D
:1049C000DF93CF93CDB7DEB760970FB6F894DEBF15
:1049D0000FBECDBF29873A874B875C876D877E875F
:1049E0008F87988BCE0101960E944229CE010996AD
:1049F00009851A852B853C854D855E856F8578896F
:104A000089809A80AB80BC80CD80DE80EF80F88486
:104A10000E94A8268F3F59F029853A854B855C85F1
:104A20006D857E858F8598890E94802481E06096BF
:104A30000FB6F894DEBF0FBECDBFCF91DF911F91AF
:104A40000F91FF90EF90DF90CF90BF90AF909F902D
:104A50008F9008951F930E94B514E0911708F0916C
:104A6000180881E0858386830E94252E182F883FB1
:104A700080F40E941F2E212F30E02F5F3F4F90E0E7
:104A80002817390734F4812F8E5F809384050E94A4
:104A9000222E0E94B7140E94762481E01F9108956F
:104AA0001F93DF93CF93CDB7DEB728970FB6F89457
:104AB000DEBF0FBECDBF29833A834B835C836D83FA
:104AC0007E838F8398870E94B5140E94252E182F0D
:104AD000CE0101960E94E0278330910510F48FEFFC
:104AE0000BC0E0911708F0911808810F911D968B6B
:104AF000858B0E94B71481E028960FB6F894DEBF2C
:104B00000FBECDBFCF91DF911F9108950F931F93DB
:104B10008C010E94B514E0911708F091180881E00B
:104B20008583168B058B0E94252E082F883F80F4E5
:104B30000E941F2E202F30E02F5F3F4F90E028175C
:104B4000390734F4802F8E5F809384050E94222ED3
:104B50000E94B7140E94762481E01F910F9108955E
:104B6000FF920F931F93CF93DF938C010E94B51494
:104B7000E0911708F091180881E085830E94252EA6
:104B8000F82EE0911708F0911808C82FD0E00C0F0C
:104B90001D1F168B058B87EF8F1568F00E941F2E47
:104BA000219690E0C817D90734F48F2D8E5F80933B
:104BB00084050E94222E0E94B7140E94762481E070
:104BC000DF91CF911F910F91FF9008951F93CF9385
:104BD000DF93EC010E949F20209711F4C1E0D0E008
:104BE0000E94B514E0911708F091180881E08583C0
:104BF000D0A3C78F0E94252E182F883F80F40E94D3
:104C00001F2E212F30E02F5F3F4F90E028173907EC
:104C100034F4812F8E5F809384050E94222E0E949F
:104C2000B7140E94762481E0DF91CF911F910895FF
:104C30001F930E949F200E94B514E0911708F091E5
:104C4000180881E090E090A3878F81E085830E941F
:104C5000252E182F883F80F40E941F2E212F30E030
:104C60002F5F3F4F90E02817390734F4812F8E5F74
:104C7000809384050E94222E0E94B7140E947624FD
:104C800081E01F910895E0911708F0911808808540
:104C90000E941124E0911708F091180884E08187A0
:104CA0000E94182681E00895EF92FF920F931F93C0
:104CB000CF93DF93EC0169817A814B815C818D8197
:104CC0009E810E949D2FBC018F81882369F04B81BA
:104CD0005C81CE0120E030E000E010E0EE24FF2413
:104CE0000E94C1141F8215C08881992787FD909565
:104CF000FC01A5E0EE0FFF1FAA95E1F7E80FF91FF1
:104D0000E45AF84F8185833011F08FEF1AC0718318
:104D100060838881992787FD9095FC0175E0EE0FEF
:104D2000FF1F7A95E1F7E80FF91FE45AF84F8589DC
:104D30009689892B29F482E0818788810E945F23EC
:104D400081E0DF91CF911F910F91FF90EF90089537
:104D50008F929F92AF92BF92CF92DF92EF92FF928B
:104D60000F931F93DF93CF93CDB7DEB760970FB646
:104D7000F894DEBF0FBECDBFFC0109831A832B83DD
:104D80003C834D835E836F83788789869A86AB8662
:104D9000BC86CD86DE86EF86F88A89819A81AB81D2
:104DA000BC812D813E814F815885E984FA840B8531
:104DB0001C85AD84BE84CF84D8888E159F05A0073E
:104DC000B107F0F1E816F9060A071B0791F42A1556
:104DD0003B054C055D05A0F12A193B094C095D090D
:104DE0002483358346835783108211821282138273
:104DF0001CC02A153B054C055D05C8F40197A109A7
:104E0000B1098E199F09A00BB10B80839183A283F6
:104E1000B383205036434546544C2A193B094C096C
:104E20005D09248335834683578381E00AC08E1948
:104E30009F09A00BB10B80839183A283B383EDCF35
:104E40008FEF60960FB6F894DEBF0FBECDBFCF9147
:104E5000DF911F910F91FF90EF90DF90CF90BF9067
:104E6000AF909F908F9008958F929F92AF92BF9234
:104E7000CF92DF92EF92FF920F931F93DF93CF9326
:104E8000CDB7DEB760970FB6F894DEBF0FBECDBFCB
:104E9000FC0109831A832B833C834D835E836F83DC
:104EA000788789869A86AB86BC86CD86DE86EF8635
:104EB000F88AAD80BE80CF80D884ED84FE840F85D3
:104EC000188989859A85AB85BC8529813A814B8172
:104ED0005C81820F931FA41FB51F80839183A283DF
:104EE000B383EA0CFB1C0C1D1D1DE482F5820683B6
:104EF000178313C080509A4CAA49BB43848395837F
:104F0000A683B78380819181A281B3810196A11D7F
:104F1000B11D80839183A283B38384819581A6810F
:104F2000B78180302AEC92072AE9A2072BE3B20767
:104F300008F781E060960FB6F894DEBF0FBECDBFD4
:104F4000CF91DF911F910F91FF90EF90DF90CF9065
:104F5000BF90AF909F908F900895FC0113C0805038
:104F60009A4CAA49BB4384839583A683B7838081E7
:104F70009181A281B3810196A11DB11D808391838E
:104F8000A283B38384819581A681B78180302AEC86
:104F900092072AE9A2072BE3B20708F70895609366
:104FA0000E0870930F0880931008909311082093B7
:104FB000120830931308409314085093150808956D
:104FC0006F927F928F929F92AF92BF92CF92DF9219
:104FD000EF92FF920F931F93FC016080718082809B
:104FE0009380648175818681978161147104810445
:104FF000910409F469C022E46216710481049104E9
:1050000018F020E030E066C05B016C01EE24FF2464
:10501000870150E03DC0FA2DEB2DE65391E0EB15F2
:1050200008F090E08C2D865621E08C1508F020E0E9
:10503000792F780F91E0781708F090E0292B8D2DCB
:10504000855C31E08D1508F030E0622F680F91E04B
:10505000681708F090E0232F292B2E0D91E02E15D4
:1050600008F090E0492F4F0D91E04F1508F090E0C7
:10507000392F300F91E0301708F090E0910FAF2EEC
:10508000BE2EC72ED62EE22EF42E032F192F5F5FD1
:10509000852F90E0A0E0B0E086159705A805B9053A
:1050A00008F4B9CF9501A601B701C801A3EBAA2E58
:1050B000F6EEBF2EEEE0CE2EDD24EE24FF2400E03F
:1050C00010E00E943F3D06C023EB36EE4EE050E07C
:1050D0000E94104BC9011F910F91FF90EF90DF903C
:1050E000CF90BF90AF909F908F907F906F900895DA
:1050F000EF92FF920F931F93DF93CF93CDB7DEB75D
:1051000028970FB6F894DEBF0FBECDBF7B018C0190
:1051100073708070907023EB36EE4EE050E00E948A
:10512000DD4A6D837E838F839887A8019701BAE05B
:105130005695479537952795BA95D1F729833A83A0
:105140004B835C833A814B815C8128960FB6F8943F
:10515000DEBF0FBECDBFCF91DF911F910F91FF90AA
:10516000EF9008956F927F928F929F92AF92BF922D
:10517000CF92DF92EF92FF920F931F93FC0160801A
:1051800071808280938064817581868197816114AA
:1051900071048104910409F460C05B016C01EE2488
:1051A000FF24870150E03DC0FA2DEB2DE65391E03E
:1051B000EB1508F090E08C2D865621E08C1508F058
:1051C00020E0792F780F91E0781708F090E0292BF4
:1051D0008D2D855C31E08D1508F030E0622F680F71
:1051E00091E0681708F090E0232F292B2E0D91E015
:1051F0002E1508F090E0492F4F0D91E04F1508F063
:1052000090E0392F300F91E0301708F090E0910FC7
:10521000AF2EBE2EC72ED62EE22EF42E032F192F20
:105220005F5F852F90E0A0E0B0E086159705A805A8
:10523000B90508F4B9CF9501A601B701C801E3EBA0
:10524000AE2E06EEB02E1EE0C12EDD24EE24FF248D
:1052500000E010E00E943F3D06C023EB36EE4EE03A
:1052600050E00E94104BB901CA011F910F91FF90AD
:10527000EF90DF90CF90BF90AF909F908F907F90F6
:105280006F900895EF92FF920F931F93CF93DF9348
:10529000EC011C821D821E821F8280910E0890915B
:1052A0000F08A0911008B091110888839983AA83F0
:1052B000BB83E0901208F09013080091140810913D
:1052C0001508EC82FD820E831F830E94252E90E03C
:1052D000A0E0B0E0BC01CD0123EB36EE4EE050E0A3
:1052E0000E94DD4AE60EF71E081F191FEC82FD82A0
:1052F0000E831F8313C080509A4CAA49BB438C83F2
:105300009D83AE83BF8388819981AA81BB810196E9
:10531000A11DB11D88839983AA83BB838C819D8144
:10532000AE81BF8180302AEC92072AE9A2072BE3E5
:10533000B20708F7DF91CF911F910F91FF90EF9087
:1053400008950F931F9301E012E00E949F200E9496
:105350001F2E853128F400930B080E94922F08C05D
:105360008AE090E00E94892D10930B080E94862FFE
:1053700080911C06853519F088E00E94951F809168
:105380007E10853511F388E00E94951FDECF4F9285
:105390005F926F927F928F929F92AF92BF92CF92C5
:1053A000DF92EF92FF920F931F93CF93DF930E94B0
:1053B0001E2E0E94B5148AEF0E94222E0E94642F96
:1053C0000E940D2DD09084056D2D70E080E090E05E
:1053D00023EB36EE4EE050E00E94DD4A7B018C016B
:1053E0008091120890911308A0911408B0911508AB
:1053F000E80EF91E0A1F1B1FC801B7010E94104BBF
:10540000E61AF70A080B190BE0921208F09213083B
:105410000093140810931508E0911708F0911808EC
:1054200090859923B9F480910B08823019F48D2D61
:105430000E943E1DE0911708F09118088085609148
:1054400084050E94CE17E0911708F0911808808516
:1054500060E005C08581882329F0892F6D2D0E9489
:10546000881804C0892F6D2D0E94CE1780910E08D8
:1054700090910F08A0911008B09111082091120886
:105480003091130840911408509115081BC0E12C6D
:10549000E6E3FE2EE5E60E2FE4EC1E2FE20EF31EF1
:1054A000041F151FC801B70123EB36EE4EE050E094
:1054B0000E94104BA8019701261B370B480B590B74
:1054C000D601C5015C016D010894A11CB11CC11C71
:1054D000D11C20306AEC36076AE946076BE35607B1
:1054E000B0F680930E0890930F08A0931008B09325
:1054F0001108209312083093130840931408509316
:105500001508E0911708F091180885818823B9F0F3
:1055100081858430A1F08781823029F0882341F091
:105520008681882311F485E001C083E0818704C06F
:1055300083E081871782168280850E941124E09182
:105540001708F0911808858D968D892BE9F1408513
:105550004423D1F181858430B9F1218D328D809140
:10556000840590E02817390790F4842F0E942917AA
:10557000E0911708F091180882E060850E947E1F74
:10558000E0911708F0911808128E118E04C0281BA4
:10559000390B328F218FE0911708F0911808108590
:1055A000818D928D892B81F4812F0E94291783E0B0
:1055B000612F0E947E1FE0911708F091180883E088
:1055C0008187812F0E941124C1E6D7E0EE2470E686
:1055D000C72E7AEED72E61E0462E512C5AEF652E5B
:1055E000712C42E0F42E31E0832E912CA12CB12CB1
:1055F0008B818F3F09F48BC01882882391F18C81B5
:10560000843079F1288939898091840590E02817C0
:10561000390728F0281B390B398B288B02C0198ACF
:10562000188A2A893B892817390728F0281B390B43
:105630003B8B2A8B0EC06E897F898617970728F4CB
:10564000681B790B7B8B6A8B04C00E94FC4A9B8B86
:105650008A8B8A899B89892B21F48E899F899B8BD0
:105660008A8B8C81833009F052C088899989892B73
:1056700009F045C08A81882391F08981882379F0D7
:10568000D501C4010090070804C0880F991FAA1F04
:10569000BB1F0A94D2F78C879D87AE87BF871A827B
:1056A000198218822A8D3B8D4E895F89888D998D4C
:1056B0002130310579F49D8B8C8BFC828A899B8902
:1056C000998B888B452B11F4798A688A8E2D0E94DC
:1056D0005F2315C09D8B8C8B21503040249FC001CF
:1056E000259F900D349F900D1124998B888B9B8B57
:1056F0008A8B452B11F4798A688A5B8E4A8E0889D9
:1057000019890115110519F00C151D0508F0860100
:10571000E394A19685E0E81611F0680169CFE09165
:105720001708F091180880850E946C170E944E237C
:10573000E82E992787FD9095FC0125E0EE0FFF1FCD
:105740002A95E1F7E80FF91FE45AF84F8285809314
:10575000190881E22E2D2802C0011124845A984F85
:105760009093090880930808EE2089F0858D968D26
:10577000892B49F0C18DD28DCA3FD10520F4C017C5
:10578000D107F0F019C00B3F1105C0F415C0053169
:10579000110590F0C80144978A3F910538F4EC0157
:1057A0008331910568F4C3E1D0E00AC00F50114085
:1057B00028F4C6EED0E004C0E80102C0CAEFD0E091
:1057C0008091190880930A0880910808909109082F
:1057D0009093180880931708C09384050E94252E83
:1057E00090E001968C179D0738F00E94252EC82F57
:1057F000D0E02296C0938405EE2011F010920B08A1
:105800008C2F0E94222E0E94C82F0E94143DDF91EF
:10581000CF911F910F91FF90EF90DF90CF90BF90AD
:10582000AF909F908F907F906F905F904F90089572
:1058300010921C0810922F08109242080895CF93DE
:10584000DF93EB01833010F08FEF21C0282F30E081
:1058500083E190E0289FF001299FF00D389FF00D23
:105860001124E65EF74F5183408388819981AA8194
:10587000BB8183839483A583B6838C819D81AE8114
:10588000BF8187839087A187B287128281E0DF91F1
:10589000CF910895833010F08FEF0895282F30E0D6
:1058A00083E190E0289FF001299FF00D389FF00DD3
:1058B0001124E65EF74F128281E008951F93DF9373
:1058C000CF93CDB7DEB728970FB6F894DEBF0FBEE3
:1058D000CDBF182F833010F08FEF33C0CE0101966B
:1058E0000E944229212F30E083E190E0289FF001BF
:1058F000299FF00D389FF00D1124E65EF74F83814C
:105900009481A581B68129813A814B815C81820F86
:10591000931FA41FB51F83879487A587B6878781A8
:105920009085A185B2852D813E814F815885820F5A
:10593000931FA41FB51F8787908BA18BB28B81E02B
:10594000828328960FB6F894DEBF0FBECDBFCF91ED
:10595000DF911F910895CF92DF92EF92FF920F9304
:105960001F93DF93CF93CDB7DEB728970FB6F89488
:10597000DEBF0FBECDBF182F833010F08FEF3EC0BB
:10598000CE0101960E944229212F30E083E190E070
:10599000AC01249FC001259F900D349F900D1124D0
:1059A0002AE1C22E28E0D22EC80ED91EF60123818C
:1059B000348145815681E980FA800B811C812E0D4E
:1059C0003F1D401F511F23873487458756872781F6
:1059D000308541855285ED80FE800F8118852E0D22
:1059E0003F1D401F511F2787308B418B528B8B5D92
:1059F000974F0E94AD2781E0F601828328960FB66B
:105A0000F894DEBF0FBECDBFCF91DF911F910F91F4
:105A1000FF90EF90DF90CF9008952F923F924F929A
:105A20005F926F927F928F929F92AF92BF92CF922E
:105A3000DF92EF92FF920F931F93DF93CF93CDB737
:105A4000DEB760970FB6F894DEBF0FBECDBFCE01B4
:105A500001960E9442294AE1442E48E0542E6624D1
:105A6000772433E1232E312CD20112968C91813090
:105A700061F5629CF001639CF00D729CF00D1124A5
:105A8000EB5DF74FCE0109960081118122813381B0
:105A9000448155816681778189809A80AB80BC8002
:105AA000CD80DE80EF80F8840E94A8268F3F69F4C5
:105AB00085E1662D0E947E1FD201ED91FC91309709
:105AC00019F40E94B91401C009950894611C711C55
:105AD000E3E1F0E04E0E5F1EF3E06F16710421F675
