:100000000C9462050C94A7300C9481050C94810526
:100010000C9481050C9481050C9481050C94810548
:100020000C9481050C944A300C9481050C94810544
:100030000C9481050C9481050C9481050C94C62FB9
:100040000C94C62F0C9481050C9481050C948105A9
:100050000C9481050C9481050C9481050C94810508
:100060000C9481050C9481050C9481050C948105F8
:100070000C9481050C9481050C9481050C948105E8
:100080000C9481050C9481050C9481058B1E911EA6
:10009000941E971E9A1E9D1EA31EA01EA61EA91E7C
:1000A000AC1EB51EB81EBB1EBE1EB21E881E8E1E06
:1000B000C11EC41EAF1E851E08000000BE9224494A
:1000C000123EABAAAA2ABECDCCCC4C3E000000808A
:1000D000BEABAAAAAA3E00000000BF000000803FFD
:1000E0000000000000084178D3BB4387D1133D19BD
:1000F0000E3CC3BD4282AD2B3E68EC8276BED98FEA
:10010000E1A93E4C80EFFFBE01C4FF7F3F0000002D
:10011000000007634236B79BD8A71A39685618AE55
:10012000BAAB558C1D3CB7CC5763BD6DEDFD753E2C
:10013000F6177231BF000000803F543220657272A2
:100140006F7220706F73740D0A00543220657272E2
:100150006F722070656E640D0A00543120657272F2
:100160006F7220706F73740D0A00543120657272C3
:100170006F722070656E640D0A006572726F723A5C
:100180002073656D5F6372656174650D0A000D0A09
:100190004E616E6F2D524B205461736B205374610E
:1001A000746973746963733A0D0A000D0A000D0ACD
:1001B0002020204F766572666C6F77204572726FD3
:1001C00072205374617475733A20000D0A20202048
:1001D0004B65726E656C2056696F6C6174696F6EE9
:1001E000733A20000D0A202020507265656D7074EE
:1001F000696F6E733A20000D0A20202053776170DA
:100200002D696E733A20000D0A20202054696D6517
:10021000205B4D696E2C4C6173742C4D61785D3A96
:1002200020000D0A202020546F74616C204350552B
:100230003A20000D0A20202049646C652054617327
:100240006B204465657020536C6565702054696D42
:10025000653A20000D0A202020546F74616C2053F1
:10026000797374656D20557074696D653A2000204E
:100270005461736B2049443A2000554E4B4F574E02
:100280000045787465726E616C2052657365740008
:1002900042726F776E204F75742044657465637485
:1002A000004661696C656420746F206372656174D7
:1002B000652053656D6170686F7265004661696C99
:1002C000656420746F20637265617465205369678B
:1002D0006E616C004B65726E656C2066756E637442
:1002E000696F6E206E6F7420696D706C656D656EE0
:1002F0007465640044657669636520447269766557
:1003000072204572726F72005761746368646F6720
:10031000205265737461727400535720576174637F
:1003200068646F6720526573746172740054696DFC
:100330006572204F766572666C6F7700556E6861E6
:100340006E646C656420496E746572727570742099
:10035000566563746F72004C6F7720566F6C7461D2
:100360006765004578747261205461736B20737403
:1003700061727465642C206973206E726B5F6366B2
:10038000672E68206F6B3F0049646C65206F722098
:100390004B65726E656C20537461636B204F76659C
:1003A00072666C6F7700556E65787065637465640E
:1003B0002052657374617274004475706C69636176
:1003C000746564205461736B20494400536368650D
:1003D00064756C6572204D69737365642057616B39
:1003E000657570005461736B205265736572766534
:1003F0002056696F6C61746564005265736572762E
:1004000065204572726F7220696E2053636865645F
:10041000756C657200496E76616C69642053746115
:10042000636B20506F696E746572005461736B204A
:10043000537461636B204F766572666C6F770053FF
:100440007461636B20776173206E6F7420646566DE
:10045000696E6564206173206C6172676520656EEA
:100460006F75676821005461736B20706572696FE6
:100470006420746F6F206C617267652E2050657206
:10048000696F64206D757374206265206C65737389
:10049000207468616E203631207365636F6E6473FB
:1004A0002E00293A20002A4E524B204552524F52DC
:1004B00028000D0A535441434B2044554D500D0A1A
:1004C0000008082A1C08081C2A080840444A514011
:1004D00040514A444014741C171410207F0101003D
:1004E000000000000000000000081C2C08087F012C
:1004F000010101010101017F7F4040404040404037
:10050000407F00000000000000000000000000002C
:1005100000791127117900000000000000000000A0
:1005200000000000007F01010103605048447E3E4E
:100530004949493E700C030C706349494963017F86
:10054000017F01635549414106017E010608557F3F
:1005500055080F107F100F4E7101714E384444380A
:1005600044000000000000005F00000300030000E2
:10057000143E143E1426497F493262152A5423360C
:10058000495620500003000000001C224100004199
:10059000221C0000140E140008083E080800600029
:1005A000000008080808000040000000601008046F
:1005B000033E4141413E04027F00006251494542F1
:1005C00022414949360C0B087E084F494949313EC2
:1005D00049494932611109050336494949362649D5
:1005E00049493E0022000000006100000008141488
:1005F000222214141414142222141408060159057A
:10060000023E415D555E7E0909097E7F49494936B2
:100610003E414141227F4141413E7F494949417F1D
:10062000090909013E414949327F0808087F000055
:100630007F0000204040403F7F081422417F40401F
:1006400040007F0204027F7F021C207F3E41414127
:100650003E7F090909063E4151617E7F09192946FD
:10066000264949493201017F01013F4040403F1F77
:100670002040201F3F4030403F63140814630304B0
:1006800078040361514945437F41000000000000A8
:100690000000000000417F0601060000404040408D
:1006A00040010200000020545454787F48484830EC
:1006B0003844444428384444447F38545454180837
:1006C0007E0909010C5252523E7F04040478047DD5
:1006D000404020204040443D007F102844203E51AF
:1006E00049467C047C04787C0804047838444444FB
:1006F000387E1212120C0C1212127E0478040408B6
:100700004854545424043F4444403C40403C401C22
:100710002040201C3C4030403C44281028442648BF
:1007200048483E4464544C4400083E410000007F69
:10073000000000413E080000000000000000000032
:1007400000000000000000000000000000000000A9
:1007500020483E09020000000000000000000004E4
:10076000047F0404000000000000000000000000FE
:100770000000000000000000000000000000000079
:100780000000000000000000000000000000000069
:100790000000000000000000000000000000000059
:1007A0000204010200000000000000181800000010
:1007B0000000000000000000000000000000000039
:1007C0000000000000000000000000000000000029
:1007D0000000000000000000000000000000000019
:1007E0000000000000000000790000000000000090
:1007F000487E494942000000000015167C1615008D
:10080000000000000A5555552800010001003E6314
:100810005D6B3E000000000008142A142200000056
:10082000000000000000003E41754B3E0101010147
:1008300001000205020000000000000000000000AE
:1008400000000000000000000000000000000006A2
:100850000F7F017F0000000000000000000000008A
:10086000000000070507000022142A14080F003CAE
:1008700020780F00486458000000000030484540D0
:100880002000000000000000000000000000000048
:100890007229292A717825242578702A252A707EC4
:1008A000097F49490E5151711100000000007C542C
:1008B0005655440000000000000000000000000049
:1008C0000000000000000000000000000000000028
:1008D0000000000000007A091122790000000000E9
:1008E000000000000000000000003A454546393D88
:1008F0004242423D22140814225C322A261D000086
:10090000000000000000000000000000003C41402A
:10091000413C00000000000000000000000000005A
:100920000020555654782054565578205655567800
:100930002251555679205554557800000000002466
:10094000547854580C525272123855565418385420
:100950005655183856555618385554551800497A72
:10096000400000487A4100004A794200004A78423B
:100970000000000000007A11090A7130494A48302D
:1009800030484A4930304A494A303249494A313080
:100990004A484A3008082A080818643C2618384192
:1009A000422078384042217838424122783842400B
:1009B0002278000000000000000000000C5150519F
:1009C0003C6E616E00696E660000407A10F35A005A
:1009D000A0724E18090010A5D4E80000E876481768
:1009E0000000E40B54020000CA9A3B000000E1F54D
:1009F00005000080969800000040420F000000A013
:100A00008601000000102700000000E8030000003D
:100A1000006400000000000A000000000001000067
:100A20000000002C76D888DC674F0823DFC1DFAEDA
:100A300059E1B1B796E5E3E453C63AE651997696A3
:100A4000E8E6C28426EB898C9B62ED407C6FFCEF6C
:100A5000BC9C9F40F2BAA56FA5F490055A2AF75C9A
:100A6000936B6CF9676DC11BFCE0E40D47FEF5204C
:100A7000E6B500D0ED902E03009435770500808414
:100A80001E080000204E0A000000C80C3333333328
:100A90000F986E12831141EF8D2114893BE6551694
:100AA000CFFEE6DB18D1844B381BF77C1D901DA4CC
:100AB000BBE424203284725E228100C9F124ECA1BF
:100AC000E53D270011241FBECFEFD0E1DEBFCDBF33
:100AD00013E0A0E0B1E0ECE5FDE900E00BBF02C0EF
:100AE00007900D92A231B107D9F718E0A2E1B3E067
:100AF00001C01D92A936B107E1F70E9419080C94B4
:100B0000AC4E0C949C2FCF93DF93C0E0D1E080EAF1
:100B100096E80E94032F0E947F270E94122800D08F
:100B200000D0EDB7FEB73196ADB7BEB71296DC93E5
:100B3000CE931197828313820E94984C0F900F904E
:100B40000F900F90E4CFCF93DF93C0E0D1E080EA25
:100B500096E80E94032F0E947F270E94122800D04F
:100B600000D0EDB7FEB73196ADB7BEB71296DC93A5
:100B7000CE931197828313820E94984C0F900F900E
:100B80000F900F90E4CFEF92FF920F931F93CF93AC
:100B9000DF9387E0E82E81E0F82E08E111E0CDE256
:100BA000D1E080E090E00E9415130E94122800D04E
:100BB00000D0EDB7FEB73196ADB7BEB71296FC9236
:100BC000EE921197828313820E94984C0F900F909F
:100BD0000F900F9080915506909156060E9419240F
:100BE0008F3F21F48AE491E00E945A110E9412285A
:100BF00000D000D0EDB7FEB73196ADB7BEB71296B4
:100C00001C930E931197828313820E94984C0F902D
:100C10000F900F900F9080E492E40E94032F809138
:100C20005506909156060E94BA238F3F21F48AE31D
:100C300091E00E945A110E94122800D000D0EDB716
:100C4000FEB73196ADB7BEB71296DC93CE9311972F
:100C5000828313820E94984C0F900F900F900F90F8
:100C60000E947F279ECFEF92FF920F931F93CF9307
:100C7000DF9397E0E92E91E0F92E08E111E0CDE253
:100C8000D1E080E090E00E9415130E947F270E942F
:100C9000122800D000D0EDB7FEB73196ADB7BEB781
:100CA0001296FC92EE921197828313820E94984CC6
:100CB0000F900F900F900F908091550690915606CF
:100CC0000E9419248F3F21F48AE691E00E945A1174
:100CD0000E94122800D000D0EDB7FEB73196ADB714
:100CE000BEB712961C930E931197828313820E94B3
:100CF000984C0F900F900F900F9080E492E40E9418
:100D0000032F80915506909156060E94BA238F3F7B
:100D100021F48AE591E00E945A110E94122800D025
:100D200000D0EDB7FEB73196ADB7BEB71296DC93E3
:100D3000CE931197828313820E94984C0F900F904C
:100D40000F900F900E947F279CCFDF92EF92FF922F
:100D50000F931F93CF93DF93E3EFF3E080E596E0EB
:100D6000CFE9D4E045E453E01192DC011D92CD01BE
:100D70001992DA011D92AD01B3E0E83FFB07A1F73C
:100D800083E396E09093D6038093D50384E295E0C5
:100D90009093D2038093D10384EA94E09093D40398
:100DA0008093D303DD24D394D092D703D092D90378
:100DB000D092DA031092DB031092DC031092DD0371
:100DC0001092DE0320E832EB46EE5EE02093DF0374
:100DD0003093E0034093E1035093E2031092E30366
:100DE0001092E4031092E5031092E60320E830EF3E
:100DF0004AEF52E02093E7033093E8034093E9037E
:100E00005093EA031092EB031092EC031092ED035F
:100E10001092EE031092EF031092F0031092F10380
:100E20001092F203D092F303CF0188970E949B2582
:100E300083EC95E0909333068093320688E794E044
:100E400090932F0680932E0688EF93E090933106BF
:100E500080933006D0923406D0923606D092370670
:100E6000109238061092390610923A0610923B06FC
:100E7000E12C21EEF22E25EF022F25E0122FE09239
:100E80003C06F0923D0600933E0610933F061092FA
:100E9000400610924106109242061092430680ECE2
:100EA0009EE0A6E1B2E08093440690934506A093AD
:100EB0004606B093470610924806109249061092D3
:100EC0004A0610924B0610924C0610924D06109254
:100ED0004E0610924F06D09250068DE296E00E9488
:100EE0009B2583EA95E090938204809381048CECA7
:100EF00093E090937E0480937D048CE493E0909340
:100F0000800480937F04D0928304D0928504D09291
:100F1000860410928704109288041092890410921B
:100F20008A0480E095E6ADECBDE180938B0490935C
:100F30008C04A0938D04B0938E0410928F041092B1
:100F400090041092910410929204E0929304F09213
:100F500094040093950410939604109297041092B1
:100F600098041092990410929A0410929B04109283
:100F70009C0410929D0410929E048CE794E00E94C1
:100F80009B2583E895E090932803809327038DE2C7
:100F900096E090932403809323038DEA95E0909349
:100FA000260380932503D0922903D0922B03D0925D
:100FB0002C0310922D0310922E0310922F031092E7
:100FC000300380E094E8A7EDB7E18093310390937C
:100FD0003203A0933303B09334031092350310927D
:100FE00036031092370310923803E0923903F092DF
:100FF0003A0300933B0310933C0310923D0310927D
:101000003E0310923F03109240031092410310924E
:101010004203109243031092440382E293E00E9441
:101020009B25DF91CF911F910F91FF90EF90DF9063
:1010300008950E943B1387E090E00E948A130E946B
:10104000791480E090E00E9428138FEF90E00E94D6
:10105000281381E090E00E945F1382E090E00E94FC
:10106000281360E070E0CB0120E030E0A9010E948D
:1010700083290E94A50681E062E00E9413239093D9
:1010800056068093550681E062E00E9413239093F8
:1010900027058093260581E062E00E941323909348
:1010A000CD038093CC03209155063091560621152F
:1010B000310549F02091260530912705211531058C
:1010C00011F0009729F48AE791E00E945A1102C0BA
:1010D0000E94A41580E090E0089590E09C012B50C0
:1010E0003040220F331F220F331F865A9E4B820F30
:1010F000931FF894C09828E12FB9779BFECF9FB932
:10110000779BFECF8FB9779BFECFC09A78940895D6
:10111000F894C0981FB8779BFECF8FB1C09A78948F
:1011200086FFF6CF0895809158010E946D1180913D
:1011300057010E94B3110895809158010E946D11CA
:10114000809157010E946D110895F894C09887E02E
:101150008FB9779BFECFC09AC09886E08FB9779BF6
:10116000FECFC09A78940895F894C09881E08FB922
:10117000779BFECFC09A88EE93E00E94032F78946D
:10118000089580916C060895FC01C09889EC8FB990
:10119000779BFECF80E88FB9779BFECF82E08150AE
:1011A000DF01A80FB11D9C919FB9779BFECF8823CB
:1011B000B1F7C09AC0988BEC8FB9779BFECF80E8CF
:1011C0008FB9779BFECF82E08150DF01A80FB11D60
:1011D00012969C9112979FB9779BFECF8823A1F717
:1011E000C09A808180936D06818180936E06828192
:1011F00080936F0683818093700608958F929F92EB
:10120000AF92BF92CF92DF92EF92FF920F931F9314
:10121000DF93CF9300D000D0CDB7DEB7E82E092FF3
:1012200084E690E00E94032FF02E20E031E08E0152
:101230000F5F1F4FF3E0CF2ED12CCC0EDD1EF70138
:1012400091907F018824808190E0882999299A8350
:10125000898384E690E02B833C830E94032FC0980F
:101260002B813C81822F80688FB9779BFECFC9018B
:1012700095958795807C8FB9779BFECF5801F801B3
:1012800081918FB9779BFECFEC15FD05C9F7C09A08
:101290002E5F3F4FF1E020313F0789F684E690E072
:1012A0000E94032F20E431E080E191E01A8219824C
:1012B000C098422F40684FB9779BFECFA901559542
:1012C0004795407C4FB9779BFECFF80141914FB9CC
:1012D000779BFECFEC15FD05C9F7C09AC098482F43
:1012E00040684FB9779BFECFAC0155954795407C40
:1012F0004FB9779BFECFF80141914FB9779BFECF55
:10130000EC15FD05C9F7C09A02962E5F3F4F41E0EC
:101310008E31940759F681E090E09A838983C098D2
:101320008EEC8FB9779BFECF80E88FB9779BFECF8D
:10133000C8010296F80121912FB9779BFECFE817DB
:10134000F907C9F7C09AC0988EE98FB9779BFECF8D
:1013500080E88FB9779BFECF0E5F1F4FF50181911B
:101360005F018FB9779BFECFA016B106B9F7C09A7F
:101370000F900F900F900F90CF91DF911F910F91D1
:10138000FF90EF90DF90CF90BF90AF909F908F90A5
:101390000895C09889E18FB9779BFECF83E08FB91C
:1013A000779BFECF86E08FB9779BFECFC09AC0981F
:1013B0008AE18FB9779BFECF8EE08FB9779BFECF06
:1013C0008EE08FB9779BFECFC09A81E080935D0657
:1013D0000895C09889E18FB9779BFECF81E08FB9DE
:1013E000779BFECF84EC8FB9779BFECFC09A10928B
:1013F0005D06089580915B0690915C06089590E0EB
:101400008F719070806E906AC09825E12FB9779B9C
:10141000FECF9FB9779BFECF8FB9779BFECFC09A47
:1014200008950E946D08089580915E0690915F0670
:10143000986090935F0680935E06C09881E18FB9B3
:10144000779BFECF80915F068FB9779BFECF80910F
:101450005E068FB9779BFECFC09A089580915E0695
:1014600090915F06977F90935F0680935E06C09889
:1014700081E18FB9779BFECF80915F068FB9779B13
:10148000FECF80915E068FB9779BFECFC09A0895FC
:1014900081E080936B0680915E0690915F0680618B
:1014A00090935F0680935E06C09881E18FB9779B29
:1014B000FECF80915F068FB9779BFECF80915E064D
:1014C0008FB9779BFECFC09A089510926B068091DA
:1014D0005E0690915F068F7E90935F0680935E0616
:1014E000C09881E18FB9779BFECF80915F068FB95D
:1014F000779BFECF80915E068FB9779BFECFC09A17
:101500000895DF93CF9300D0CDB7DEB79A83898358
:10151000909367068093660684EF91E00E94032F04
:10152000C0988AEE8FB9779BFECF80E88FB9779B02
:10153000FECFFE013196CE01039621912FB9779B04
:10154000FECFE817F907C9F7C09A84EF91E00E942F
:10155000032F0F900F90CF91DF910895CF93DF93DA
:10156000EC01862FC09898E09FB9779BFECFC09A78
:10157000C09898E09FB9779BFECFC09A0E946D08F3
:10158000D0936106C0936006DF91CF910895DF92FA
:10159000EF92FF920F931F93DF93CF9300D0CDB7BD
:1015A000DEB78C01D62E5A8349837901DD9A88EE05
:1015B00093E00E94CA13DE9881E090E00E94CA1373
:1015C000DE9A84E690E00E94CA13F894C09881E005
:1015D0008FB9779BFECFC09A82EE92E090935F0620
:1015E00080935E06C09881E18FB9779BFECF809192
:1015F0005F068FB9779BFECF80915E068FB9779B90
:10160000FECFC09AC09882E18FB9779BFECF85E06C
:101610008FB9779BFECF1FB8779BFECFC09AC0983B
:101620008CE18FB9779BFECF1FB8779BFECF8FE7FA
:101630008FB9779BFECFC09AC09889E18FB9779B0D
:10164000FECF81E08FB9779BFECF84EC8FB9779B7B
:10165000FECFC09AC09887E18FB9779BFECF8AE111
:101660008FB9779BFECF86E58FB9779BFECFC09A67
:1016700084EF91E00E94032FC09888EE8FB9779B8A
:10168000FECF80E88FB9779BFECFFE013196CE0169
:10169000039621912FB9779BFECFE817F907C9F779
:1016A000C09A84EF91E00E94032F78948D2D0E94C0
:1016B0006D087894109361060093600689819A8181
:1016C0009093650680936406F0926706E092660642
:1016D00010926206109268060E94880810926B06AB
:1016E00010925D0610926C060F900F90CF91DF91D3
:1016F0001F910F91FF90EF90DF90089581E080930C
:101700006806C09883E08FB9779BFECFC09AC098D7
:1017100088E08FB9779BFECFC09A1092710608952A
:1017200081E080936806C09883E08FB9779BFECFF5
:10173000C09AC09888E08FB9779BFECFC09A10926C
:101740007106089510926806C09886E08FB9779B5D
:10175000FECFC09A109271060895BF92CF92DF9289
:10176000EF92FF920F931F93DF93CF9300D00F92CE
:10177000CDB7DEB78C016B017A010E949A2FC09819
:1017800088E08FB9779BFECFC09AC09888E08FB968
:10179000779BFECFC09A0E99FECF8499FCCFF89428
:1017A000C09889E08FB9779BFECFC09AC09889E036
:1017B0008FB9779BFECFC09AD80112965C91129791
:1017C000252F332727FD3095BB2440E00AC0D801E0
:1017D0001396ED91FC911497E80FF91F8081B80ED4
:1017E0004F5F842F90E0821793078CF3545FC0986B
:1017F0008EE38FB9779BFECF5FB9779BFECFC09A00
:10180000F8018681882319F081E698E802C081E416
:1018100098E89A838983C0988EE38FB9779BFECF2F
:10182000FE013196CE01039621912FB9779BFECF11
:10183000E817F907C9F7C09AC0988EE38FB9779B6C
:10184000FECF809162068FB9779BFECFC09AC09879
:101850008EE38FB9779BFECF80E090E0FC01E05AE9
:10186000F94F24812FB9779BFECF019682309105E5
:10187000A9F7C09AC0988EE38FB9779BFECF80E01E
:1018800090E0F801E80FF91F20812FB9779BFECF78
:10189000019682309105A9F7C09AC0988EE38FB95E
:1018A000779BFECF80E090E0FC01E05AF94F268163
:1018B0002FB9779BFECF019682309105A9F7C09A88
:1018C000C601B7010E94262FD80115968C91159755
:1018D0008823A9F180916806882331F4C09883E0B9
:1018E0008FB9779BFECFC09AC0981FB8779BFECF69
:1018F0008FB1C09A81FFF8CF20E0A5E0EA2EC09812
:10190000EFB8779BFECFC09AC0981FB8779BFECFE9
:10191000CFB0C09A2F5F253649F4789480915B064A
:1019200090915C060E94BA2380E060C084E690E05B
:101930002B830E94CA132B81C3FEE1CF06C0C0983F
:1019400084E08FB9779BFECFC09AC0988EE38FB9A1
:10195000779BFECF40E00CC0D8011396ED91FC912F
:101960001497E80FF91F80818FB9779BFECF4F5FE7
:10197000842F90E0F8012281332727FD30958217CC
:10198000930754F3C09AC0988EE38FB9779BFECF2C
:10199000BFB8779BFECFC09A849BFECFF894849902
:1019A000FECFC09888E08FB9779BFECFC09AC098D1
:1019B00088E08FB9779BFECFC09AC09889E08FB935
:1019C000779BFECFC09AC09889E08FB9779BFECFF6
:1019D000C09AC09886E08FB9779BFECFC09A789462
:1019E000809162068F5F8093620681E00F900F9076
:1019F0000F90CF91DF911F910F91FF90EF90DF90AB
:101A0000CF90BF900895FF920F931F93DF93CF93D2
:101A100000D0CDB7DEB7FC0180915D06882331F0A0
:101A2000C0988DE08FB9779BFECFC09A3281432F4B
:101A3000552747FD509520E060E007C0A381B481A1
:101A4000A80FB91F8C91280F6F5F862F90E0841725
:101A50009507A4F3832F845F90915D0691118C5FAD
:101A6000C09898E09FB9779BFECFC09AC09898E045
:101A70009FB9779BFECFC09A0E99FECF8499FCCF79
:101A8000F894C09899E09FB9779BFECFC09AC09810
:101A900099E09FB9779BFECFC09AC0989EE39FB90B
:101AA000779BFECF8FB9779BFECFC09A81E498E8F1
:101AB0009A83898380916B06882321F081E698E8D8
:101AC0009A83898380915D06882329F089819A8190
:101AD00088609A838983C0988EE38FB9779BFECF05
:101AE000DE011196CE0103963D913FB9779BFECF63
:101AF000A817B907C9F7C09AC0988EE38FB9779B2A
:101B0000FECF809162068FB9779BFECFC09AC098B6
:101B10008EE38FB9779BFECF80E090E0DC01A05A86
:101B2000B94F14963C9114973FB9779BFECF01961D
:101B30008230910599F7C09AC0988EE38FB9779B50
:101B4000FECF80E090E0DF01A80FB91F3C913FB9C4
:101B5000779BFECF019682309105A9F7C09AC09875
:101B60008EE38FB9779BFECF80E090E0DC01A05A36
:101B7000B94F16963C9116973FB9779BFECF0196C9
:101B80008230910599F7C09A80915D06882381F093
:101B9000C0988EE38FB9779BFECFADE6B6E08D910E
:101BA0008FB9779BFECF86E0A137B807C1F7C09AFF
:101BB000C0988EE38FB9779BFECF30E009C0A38138
:101BC000B481A80FB91F8C918FB9779BFECF3F5F6F
:101BD000832F90E04281552747FD50958417950744
:101BE00074F3C09AC0988EE38FB9779BFECF2FB95C
:101BF000779BFECFC09A8581882391F180916806FA
:101C0000882331F4C09883E08FB9779BFECFC09AC8
:101C1000C0981FB8779BFECF8FB1C09A81FFF8CFD5
:101C200010E005E0C0980FB9779BFECFC09AC0982E
:101C30001FB8779BFECFFFB0C09A1F5F153649F4DF
:101C4000789480915B0690915C060E94BA2380E0B4
:101C500043C084E690E00E94CA13F3FEE3CF06C0BF
:101C6000C09884E08FB9779BFECFC09A7894849B0C
:101C7000FECF8499FECF80916B068823F9F084EA29
:101C800092E00E94CA13B79B0BC0C0988FE78FB930
:101C9000779BFECF1FB8779BFECF8FB1C09A0EC047
:101CA000C09888E08FB9779BFECFC09AC09888E033
:101CB0008FB9779BFECFC09A80E001C081E0F89495
:101CC000C09896E09FB9779BFECFC09A7894909188
:101CD00062069F5F909362060F900F90CF91DF9105
:101CE0001F910F91FF90089581E0849B80E00895FB
:101CF00081E00E9B80E0089581E0849B80E0089560
:101D0000DF93CF9300D000D0CDB7DEB70E9BC7C115
:101D100010926C060E9B1AC0B79918C0C0988FE736
:101D20008FB9779BFECF1FB8779BFECF8FB1C09A3C
:101D3000C09888E08FB9779BFECFC09AC09888E0A2
:101D40008FB9779BFECFC09A8FEFAAC1C0988FE75B
:101D50008FB9779BFECF1FB8779BFECF4FB1C09A4C
:101D60004F77C1F4C0988FE78FB9779BFECF1FB82C
:101D7000779BFECF8FB1C09AC09888E08FB9779BD0
:101D8000FECFC09AC09888E08FB9779BFECFC09AEB
:101D90008EEF86C14C3084F0E0916006F0916106D0
:101DA000842F992787FD90950B972481332727FD52
:101DB0003095281739077CF5C0988FE78FB9779B46
:101DC000FECF50E0842F992787FD909504C01FB85F
:101DD000779BFECF5F5F252F30E02817390714F47B
:101DE000B799F5CFC09AC0988FE78FB9779BFECF90
:101DF0001FB8779BFECF8FB1C09AC09888E08FB98B
:101E0000779BFECFC09AC09888E08FB9779BFECFB2
:101E1000C09A8DEF45C1E0916006F09161064C508B
:101E20004383C0988FE78FB9779BFECFFE01319631
:101E3000CE0103961FB8779BFECF2FB12193E817F1
:101E4000F907C1F7C09AE0916006F09161069981A7
:101E500081E095FF80E08783C0988FE78FB9779BFB
:101E6000FECF1FB8779BFECFE0916006F091610630
:101E70008FB18083C09AC0988FE78FB9779BFECFD0
:101E800084E005C01FB8779BFECF815011F0B79951
:101E9000F9CFC09AC0988FE78FB9779BFECF80E0CB
:101EA00090E01FB8779BFECFE0916006F09161064D
:101EB0002FB1E80FF91F218301968230910589F730
:101EC000C09A898183FF4DC0C0988FE78FB9779BF7
:101ED000FECFE7E5F6E01FB8779BFECF8FB1819389
:101EE00086E0EB35F807B9F7C09AC09889E98FB951
:101EF000779BFECF80E88FB9779BFECF82E0815041
:101F0000E82FF0E0E95AF94F90819FB9779BFECF17
:101F10008823A9F7C09AC0988BE98FB9779BFECF29
:101F200080E88FB9779BFECF82E08150E82FF0E008
:101F3000E75AF94F90819FB9779BFECF8823A9F785
:101F4000C09AC0988CE08FB9779BFECFC09A81E091
:101F500080936C06E0916006F09161068381845065
:101F60008383C0988FE78FB9779BFECF40E00FC087
:101F70001FB8779BFECFE0916006F09161068FB1AC
:101F80000580F681E02DE40FF11D80834F5FE09125
:101F90006006F0916106242F30E08381992787FD48
:101FA00090952817390724F3C09AC0988FE78FB906
:101FB000779BFECF1FB8779BFECF6FB1C09AC098BA
:101FC0008FE78FB9779BFECFFE013396CE01059642
:101FD0001FB8779BFECF2FB12193E817F907C1F700
:101FE000C09AE0916006F09161068B81808750E095
:101FF00040E00CC0E0916006F09161060580F6813A
:10200000E02DE80FF91F8081480F5F5FE0916006C7
:10201000F0916106852F90E02381332727FD3095CD
:10202000821793073CF34617C1F0C0988FE78FB92A
:10203000779BFECF1FB8779BFECF8FB1C09AC09819
:1020400088E08FB9779BFECFC09AC09888E08FB99F
:10205000779BFECFC09A8CEF23C08C8187FF07C08F
:10206000809171068F5F8093710681E019C0C098DE
:102070008FE78FB9779BFECF1FB8779BFECF8FB1CD
:10208000C09AC09888E08FB9779BFECFC09AC0985D
:1020900088E08FB9779BFECFC09A8BEF01C080E0BC
:1020A0000F900F900F900F90CF91DF910895809136
:1020B0007106882329F080917106109271060895A7
:1020C00080E00895C09888E08FB9779BFECFC09AD2
:1020D000C09888E08FB9779BFECFC09A0895992762
:1020E00087FD9095982F88278068C09823E12FB9A5
:1020F000779BFECF9FB9779BFECF8FB9779BFECFA3
:10210000C09A0895C09886E08FB9779BFECFC09A99
:10211000C09882E18FB9779BFECF85E08FB9779B1E
:10212000FECF88E08FB9779BFECFC09AC0988EE231
:102130008FB9779BFECF88E18FB9779BFECF1FB811
:10214000779BFECFC09A0E9462100895C09886E0E7
:102150008FB9779BFECFC09AC09882E18FB9779BE9
:10216000FECF85E08FB9779BFECF1FB8779BFECF60
:10217000C09AC0988EE28FB9779BFECF1FB8779B2D
:10218000FECF1FB8779BFECFC09A0E9462100895C1
:10219000C09886E08FB9779BFECFC09AC09882E145
:1021A0008FB9779BFECF85E08FB9779BFECF81E01B
:1021B0008FB9779BFECFC09A0E9462100895C09895
:1021C00082E18FB9779BFECF85E08FB9779BFECFF9
:1021D00084E08FB9779BFECFC09A0E946210089569
:1021E00090E08F70907020915E0630915F06207FA6
:1021F000822B932B90935F0680935E06C09881E1BB
:102200008FB9779BFECF80915F068FB9779BFECF0A
:1022100080915E068FB9779BFECFC09A089590E0BB
:1022200026E0880F991F2A95E1F7907020915E06AD
:1022300030915F062F73822B932B90935F068093D0
:102240005E06C09881E18FB9779BFECF80915F06D3
:102250008FB9779BFECF80915E068FB9779BFECFBB
:10226000C09A0895C09884E08FB9779BFECFC09A3A
:102270000895C09886E08FB9779BFECFC09A0895E5
:102280005F9BFECF5F988CB108955D9BFECF5D98FC
:102290008CB908958FEF0895882311F48BB104C091
:1022A000813031F480919B00881F8827881F089512
:1022B00080E00895CF93DF93EC0107C0609161083F
:1022C0007091620890E00E946C4CFE01219684910E
:1022D0008823A1F7DF91CF9108958F3F09F43FC084
:1022E000982F96959695969521E030E002C0220FA2
:1022F000331F9A95E2F790E08770907082309105D5
:10230000D9F08330910534F4009771F08130910554
:1023100041F50EC084309105C1F0843091058CF0F8
:1023200085309105F1F415C08BB3822B8BBB07C0B0
:1023300088B3822B88BB03C085B3822B85BB81E029
:10234000089582B3822B82BBFACF83B1822B83B9EB
:10235000F6CF80916200822B80936200F0CF8FEFE6
:1023600008958FEF08958F3F09F440C0982F9695F8
:102370009695969521E030E002C0220F331F9A9582
:10238000E2F7209590E08770907082309105D9F047
:102390008330910534F4009771F08130910541F557
:1023A0000EC084309105C1F0843091058CF08530E9
:1023B0009105F1F415C08BB382238BBB07C088B3A2
:1023C000822388BB03C085B3822385BB81E0089547
:1023D00082B3822382BBFACF83B1822383B9F6CF43
:1023E00080916200822380936200F0CF8FEF089586
:1023F0008FEF08958F3F89F1282F30E027703070DC
:1024000022303105C1F0233031053CF4211531056E
:1024100071F02130310509F50CC02430310579F017
:102420002430310554F025303105B9F40AC029B300
:1024300009C026B307C023B305C020B303C021B130
:1024400001C020B130E086958695869502C035950D
:1024500027958A95E2F7217001C02FEF822F08950A
:10246000882319F080B58B7F02C080B5846080BD61
:1024700081E008958F3F09F43FC0982F9695969577
:10248000969521E030E002C0220F331F9A95E2F7C3
:1024900090E08770907082309105D9F0833091057B
:1024A00034F4009771F08130910541F50EC084300D
:1024B0009105C1F0843091058CF085309105F1F4DF
:1024C00015C08BB382278BBB07C088B3822788BB1C
:1024D00003C085B3822785BB81E0089582B382273C
:1024E00082BBFACF83B1822783B9F6CF8091620095
:1024F000822780936200F0CF8FEF08958FEF0895C9
:102500008F3F09F48CC0982F96959695969521E06B
:1025100030E002C0220F331F9A95E2F790E0662365
:1025200009F04AC0322F3095877090708230910543
:1025300019F1833091053CF4009781F081309105C9
:1025400009F06DC012C08430910521F184309105ED
:10255000D4F08530910509F062C023C08AB383238B
:102560008ABB8BB3822B8BBB58C087B3832387BBBB
:1025700088B3822B88BB51C084B3832384BB85B3CB
:10258000822B85BB4AC081B3832381BB82B3822B5C
:1025900082BB43C082B1832382B983B1822B83B9CA
:1025A0003CC0809161008323809361008091620030
:1025B000822B8093620031C08770907082309105C9
:1025C000D9F08330910534F4009771F08130910592
:1025D00041F50EC084309105B9F08430910584F046
:1025E00085309105F1F414C08AB3822B8ABB15C0E3
:1025F00087B3822B87BB11C084B3822B84BB0DC0F1
:1026000081B3822B81BB09C082B1822B82B905C004
:1026100080916100822B8093610081E008958FEFAB
:1026200008958FEF08958FEF0895009711F480E0DB
:1026300009C08130910511F488E004C08230910511
:1026400029F480E10E943A1281E008958FEF089505
:10265000009711F480E009C08130910511F488E001
:1026600004C08230910529F480E10E946D1181E05F
:1026700008958FEF089580B5846080BD87E087BBA3
:1026800088BB8FEF84BB15BA82E082B987E68ABB2C
:1026900080E48BBB80E58DB981E08EB980E090E06D
:1026A0000E94281381E090E00E94281382E090E0CD
:1026B0000E94281383E090E00E9428130895009759
:1026C00011F480E009C08130910511F488E004C064
:1026D0008230910529F480E10E94B31181E00895D0
:1026E0008FEF089590919B0095FFFCCF90919B00F8
:1026F0009F7D90939B0080939C0008959093900001
:1027000089B986E0809395005298599A8AB1886178
:102710008AB908950F931F93CF93DF930E947E137E
:10272000C5E4D1E100E411E1CE01B8010E94DF4B24
:102730009093620880936108CE01B8010E94DF4B3C
:102740009093600880935F08DF91CF911F910F9164
:102750000895909398008093990086E080939D005F
:10276000EAE9F0E080818B7F8083ABE9B0E08C9177
:1027700082608C93808188618083089580919B0022
:1027800087FFFCCF80919B008F7780939B00809187
:102790009C00089500000000000000000197D1F7A0
:1027A00008950E94384D08950E94404D80E008959C
:1027B000EF92FF920F931F93CF93DF93E82EE701E1
:1027C0007E01F92EE70180E090E00E94384D082F4D
:1027D0008B8381E090E00E94384DE82E8A8382E06E
:1027E00090E00E94384DF82E898383E090E00E94AB
:1027F000384D182F888384E090E00E94384DFE0CFD
:10280000F00EF10E8F1511F481E001C08FEFDF9112
:10281000CF911F910F91FF90EF900895CF93DF9389
:10282000EC0185E090E00E94384D888381E0DF91E3
:10283000CF910895FC0186E090E060810E94404DB8
:1028400081E00895CF93DF93EC0186E090E00E9451
:10285000384D888381E0DF91CF9108950F931F93C6
:10286000CF93DF93082F192FC8E0D0E0CE010E944C
:10287000384DF80181938F012196C831D105B1F708
:1028800081E0DF91CF911F910F9108950F931F93D6
:10289000CF93DF93082F192FC8E0D0E0F8016191A2
:1028A0008F01CE010E94404D2196C831D105B1F76C
:1028B00081E0DF91CF911F910F910895CF93DF9326
:1028C000EC0187E090E00E94384D888381E0DF9141
:1028D000CF910895FC0187E090E060810E94404D17
:1028E00081E00895F8940895789408950E947214F0
:1028F000FFCF0F931F93DF93CF93CDB7DEB7A8978A
:102900000FB6F894DEBF0FBECDBF88EE93E0909374
:10291000AC058093AB050E942821809349078F3F27
:1029200021F48EE060E00E94EC1E0E947C300E9448
:10293000EC308F3F31F40E94D13080E160E00E94A2
:10294000EC1E0E94DE301092540710926207109223
:10295000610710924B0710924A07109263070E947A
:10296000D41610926007E9E3F7E08FEF808382834B
:102970008183339697E0E834F907C1F793E69093A3
:102980007E0680937C069093A5068093A306909381
:10299000CC068093CA069093F3068093F106909339
:1029A0001A0780931807E6E3F8E020E030E001C062
:1029B0009A01A9014F5F5F4FCA01880F991F880FC5
:1029C000991F840F951F8D5C974F91838083C90158
:1029D000880F991F880F991F820F931F8D5C974F47
:1029E0009483838335964530510511F7109235084D
:1029F000109234081092500810924F081092570706
:102A00001092560783E398E09093730680937206C2
:102A10008E010F5F1F4FC80163EE7AE20E94F6300D
:102A2000C8016BE275E040E850E00E943C3185E56A
:102A300080932B0519861C861D861E861F86188A84
:102A4000198A1A8A1B8A1C8A1D8A1E8A1F8A188E56
:102A5000198E1A8E1B8E1C8E1D8E1E8E1F8E18A216
:102A600019A21AA21BA281E0888792E09A878B871D
:102A7000C8010E949B25A8960FB6F894DEBF0FBE32
:102A8000CDBFCF91DF911F910F9108950F931F93A9
:102A9000CF93DF93109295061092BC061092E30636
:102AA00010920A0710923107ACE7B6E053968D9169
:102AB0009C9154972C912F3F79F0EFE8F6E020811C
:102AC00031818217930718F426812F5F2683B796EA
:102AD00027E0E235F20799F7979647E0AF33B4075E
:102AE00029F7C5E9D6E080E090E027E230E01BC09E
:102AF0004D91442371F000811881602F772767FD85
:102B00007095412F50E04617570714F00F3F09F416
:102B10001083339647E0E934F40751F70196A796FE
:102B20008530910561F0829FD001839FB00D929F07
:102B3000B00D1124AA56B94FEAE3F7E0D9CFDF91DF
:102B4000CF911F910F910895CF92DF92FF920F9333
:102B50001F93DF93CF9300D0CDB7DEB7ECE7CE2E37
:102B6000E6E0DE2E90E0F601F080FF2DFF3FB1F0B1
:102B70000CE716E020E0921761F0F8018081F8166A
:102B800041F485E06F2D29839A830E94EC1E9A817F
:102B900029812F5F095D1F4F253069F79F5F27E26D
:102BA00030E0C20ED31E9530F1F60E9446150E9409
:102BB0007524992787FD909527E230E0829FF001E8
:102BC000839FF00D929FF00D1124EC58F94F8285F0
:102BD00080936307F0936207E0936107F0934B07DC
:102BE000E0934A07809354070E9471310E9462313A
:102BF0000E94BE3CFFCFCF92DF92EF92FF920F93E5
:102C00001F93CF93DF93EC018B016A01898582309A
:102C100021F080914807888301C01882809148077D
:102C2000853020F087E060E00E94EC1E89858230CC
:102C300029F0809148078F5F80934807809148076B
:102C4000882319F481E0809348072881332727FDE2
:102C5000309587E290E0289FF001299FF00D389F82
:102C6000F00D1124EC58F94F118300832885228739
:102C70002881332727FD3095289FF001299FF00DEB
:102C8000389FF00D1124EC58F94F23E0218748813B
:102C9000242F332727FD3095289FF001299FF00D21
:102CA000389FF00D1124EC58F94F408728813327C5
:102CB00027FD3095289F8001299F100D389F100D0A
:102CC00011240C58194FF8011582CE010B960E9461
:102CD0009429F801948F838F8B859C85AD85BE8563
:102CE0008E339105A105B10520F086E168810E942F
:102CF000EC1E0881112707FD1095CE014B960E940E
:102D00009429F7E2EF2EF12C0E9DF0010F9DF00DAE
:102D10001E9DF00D1124EC58F94F968B858B888100
:102D2000992787FD90958E9D80018F9D100D9E9D0A
:102D3000100D11240C58194FF80185899689238D9F
:102D4000348D820F931F908F878BCE0143960E9404
:102D50009429F801968F858F8881992787FD909512
:102D60008E9DF0018F9DF00D9E9DF00D1124EC586D
:102D7000F94F858D968D928F818F81E090E090A3A1
:102D8000878FD382C28281E08487DF91CF911F91A8
:102D90000F91FF90EF90DF90CF9008950E94092B44
:102DA000089585E690E0089510924C0710924D0723
:102DB00010924E0710924F07109250071092510731
:102DC0001092520710925307EDE9F7E0108211823A
:102DD000128213821086118612861386148215823F
:102DE000168217821486158616861786108A118A0F
:102DF000128A138A108E118E128E138E148E158ED7
:102E00007E9688E0E333F80709F70895682F70E0AD
:102E100080E090E023EB36EE4EE050E00E94654A01
:102E2000209150073091510740915207509153071C
:102E3000620F731F841F951F609350077093510793
:102E400080935207909353078CE497E00E940529E2
:102E50000895FC0120914C0730914D0740914E0799
:102E600050914F0720833183428353832091500731
:102E70003091510740915207509153072483358375
:102E8000468357830895E82FF0E09F01220F331FF8
:102E9000A5E0EE0FFF1FAA95E1F7E21BF30BE35647
:102EA000F84F958D913089F1E82FF0E09F01220FC6
:102EB000331F65E0EE0FFF1F6A95E1F7E21BF30B8E
:102EC000E356F84F948D9F5FE82FF0E09F01220FAB
:102ED000331F45E0EE0FFF1F4A95E1F7E21BF30BAE
:102EE000E356F84F948F9F3F81F4E82FF0E0CF0135
:102EF000880F991F25E0EE0FFF1F2A95E1F7E81BC9
:102F0000F90BE356F84F81E0858F0895E82FF0E044
:102F10009F01220F331F75E0EE0FFF1F7A95E1F737
:102F2000E21BF30BE356F84F958D913009F452C034
:102F3000E82FF0E09F01220F331F55E0EE0FFF1F37
:102F40005A95E1F7E21BF30BE356F84F148A158A02
:102F5000168A178AE82FF0E09F01220F331F95E0B1
:102F6000EE0FFF1F9A95E1F7E21BF30BE356F84FC4
:102F700020893189428953892F5F3F4F4F4F5F4FDF
:102F8000E82FF0E0BF01660F771FA5E0EE0FFF1FEF
:102F9000AA95E1F7E61BF70BE356F84F208B318B30
:102FA000428B538B2E3F9FEF39079FEF49079FEFCF
:102FB000590781F4E82FF0E0CF01880F991F25E031
:102FC000EE0FFF1F2A95E1F7E81BF90BE356F84FC8
:102FD00081E0858F0895EF92FF92CF93DF93A82F22
:102FE000E82FF0E0CF01880F991F75E0EE0FFF1F6B
:102FF0007A95E1F7E81BF90BE356F84F858D8130A0
:1030000009F4B1C0EA2FF0E0CF01880F991F45E025
:10301000EE0FFF1F4A95E1F7E81BF90BE356F84F57
:10302000EA2EE7017E0120E0F22EE701C701880FBA
:10303000991F25E0CC0FDD1F2A95E1F7C81BD90B9E
:10304000C356D84F288D398D4A8D5B8D2F5F3F4FEA
:103050004F4F5F4F208F318F428F538F70E080E052
:1030600090E0EA2FF0E09F01220F331F55E0EE0FB2
:10307000FF1F5A95E1F7E21BF30BE356F84FEA2ED8
:10308000E7017E0120E0F22EE7019701220F331FB6
:10309000B5E0CC0FDD1FBA95E1F7C21BD30BC356C9
:1030A000D84F2C893D894E895F89260F371F481FCD
:1030B000591F248B358B468B578BEA2FF0E09F01ED
:1030C000220F331F45E0EE0FFF1F4A95E1F7E21B89
:1030D000F30BE356F84FEA2EE7017E0120E0F22ED3
:1030E000E7019701220F331F55E0CC0FDD1F5A95E2
:1030F000E1F7C21BD30BC356D84F288139814A81CF
:103100005B81260F371F481F591F2083318342835D
:103110005383EA2FF0E0CF01880F991F35E0EE0FBF
:10312000FF1F3A95E1F7E81BF90BE356F84F208DA6
:10313000318D428D538D2E3F8FEF38078FEF48072B
:103140008FEF580781F4EA2FF0E0CF01880F991F25
:10315000B5E0EE0FFF1FBA95E1F7E81BF90BE35658
:10316000F84F81E0858FDF91CF91FF90EF90089528
:10317000EF92FF92CF93DF93E82FA82FB0E0CD011D
:10318000880F991F75E0AA0FBB1F7A95E1F7A81B5E
:10319000B90BA356B84F5D968C915D97813009F4B9
:1031A000FAC070E080E090E0AE2FB0E09D01220F09
:1031B000331F45E0AA0FBB1F4A95E1F7A21BB30BD3
:1031C000A356B84FEE2EE7017E0120E0F22EE70174
:1031D0009701220F331F55E0CC0FDD1F5A95E1F701
:1031E000C21BD30BC356D84F2C893D894E895F89AA
:1031F000260F371F481F591F1C962D933D934D9343
:103200005C931F97AE2FB0E09D01220F331FF5E0B6
:10321000AA0FBB1FFA95E1F7A21BB30BA356B84F39
:10322000EE2EE7017E0120E0F22EE7019701220F4A
:10323000331F45E0CC0FDD1F4A95E1F7C21BD30BCE
:10324000C356D84F288139814A815B81260F371FA9
:10325000481F591F2D933D934D935C931397AE2FA9
:10326000B0E0CD01880F991FF5E0AA0FBB1FFA95BA
:10327000E1F7A81BB90BA356B84F14962D913D91B9
:103280004D915C9117972115310541055105C9F004
:10329000AE2FB0E0CD01880F991F65E0AA0FBB1FCC
:1032A0006A95E1F7A81BB90BA356B84F1C968D91F0
:1032B0009D910D90BC91A02D82179307A407B5078F
:1032C00050F58E2FEC017E0120E0F22EE701C701C0
:1032D000880F991F45E0CC0FDD1F4A95E1F7C81B09
:1032E000D90BC356D84FAE2FB0E0CD01880F991F30
:1032F00025E0AA0FBB1F2A95E1F7A81BB90BA3561F
:10330000B84F1C968D919D910D90BC91A02D8C83F2
:103310009D83AE83BF83AE2FB0E0CD01880F991F90
:1033200075E0AA0FBB1F7A95E1F7A81BB90BA3564E
:10333000B84F1C962D913D914D915C911F97AE2FEA
:10334000B0E0CD01880F991FF5E0AA0FBB1FFA95D9
:10335000E1F7A81BB90BA356B84F18966D917D9154
:103360008D919C911B97621773078407950798F4BA
:103370008E2F90E0BC01660F771FFC0185E0EE0FF9
:10338000FF1F8A95E1F7E61BF70BE356F84F2087FE
:10339000318742875387DF91CF91FF90EF90089557
:1033A0008F929F92AF92BF92CF92DF92EF92FF9255
:1033B0001F93DF93CF93CDB7DEB760970FB6F89426
:1033C000DEBF0FBECDBF182F8FE692E00E945A11CC
:1033D00000D000D0EDB7FEB7319681E691E0ADB7F1
:1033E000BEB712969C938E931197128313820E94FC
:1033F000984C0F900F900F900F90112309F085C0FB
:1034000084E592E00E945A11CE0101960E9418288C
:10341000EDB7FEB73A970FB6F894FEBF0FBEEDBFFB
:103420008DB69EB60894811C911C34E6A32E31E023
:10343000B32EB282A18289819A81AB81BC81F401D1
:1034400082839383A483B5836D817E818F819885E8
:1034500020E4C22E22E4D22E2FE0E22EF12CA7018E
:1034600096010E94984AD40116962D933D934D9350
:103470005C9319970E94984CEDB7FEB73A960FB639
:10348000F894FEBF0FBEEDBF83E392E00E945A1195
:103490008DB79EB70A970FB6F8949EBF0FBE8DBF2B
:1034A0008DB69EB60894811C911CADB7BEB712961E
:1034B000BC92AE92119780914C0790914D07A091CC
:1034C0004E07B0914F07F40182839383A483B583A1
:1034D0006091500770915107809152079091530766
:1034E000A70196010E94984AD40116962D933D9308
:1034F0004D935C9319970E94984CEDB7FEB73A969E
:103500000FB6F894FEBF0FBEEDBF82E292E00E94BC
:103510005A11E12FF0E0CF01880F991FA5E0EE0FBF
:10352000FF1FAA95E1F7E81BF90BE356F84F6081FE
:103530007181828193810E94232A29873A874B8750
:103540005C876D877E878F87988BDE011196FE01E1
:10355000399688E001900D928150E1F78DB79EB7C2
:103560000A970FB6F8949EBF0FBE8DBFCDB6DEB6DC
:103570000894C11CD11C84E691E0ADB7BEB7129689
:103580009C938E93119789819A81AB81BC81F601BE
:1035900082839383A483B5836D817E818F81988597
:1035A00020E432E44FE050E00E94984AD60116969B
:1035B0002D933D934D935C9319970E94984CEDB7D2
:1035C000FEB73A960FB6F894FEBF0FBEEDBF87E088
:1035D00092E00E945A11E12FF0E0CF01880F991F6D
:1035E00065E0EE0FFF1F6A95E1F7E81BF90BE35664
:1035F000F84F64817581868197810E94232A2987EB
:103600003A874B875C876D877E878F87988BDE0133
:103610001196FE01399688E001900D928150E1F7F4
:103620008DB79EB70A970FB6F8949EBF0FBE8DBF99
:10363000CDB6DEB60894C11CD11C84E791E0ADB7CD
:10364000BEB712969C938E93119789819A81AB8114
:10365000BC81F60182839383A483B5836D817E81CF
:103660008F81988520E432E44FE050E00E94984A30
:10367000D60116962D933D934D935C9319970E9416
:10368000984CEDB7FEB73A960FB6F894FEBF0FBE52
:10369000EDBFE12FF0E0CF01880F991F45E0EE0F5D
:1036A000FF1F4A95E1F7E81BF90BE356F84F6485D5
:1036B0007585868597850E94232A29873A874B87B7
:1036C0005C876D877E878F87988BDE011196FE0160
:1036D000399688E001900D928150E1F78DB79EB741
:1036E0000A970FB6F8949EBF0FBE8DBFCDB6DEB65B
:1036F0000894C11CD11C84E791E0ADB7BEB7129607
:103700009C938E93119789819A81AB81BC81F6013C
:1037100082839383A483B5836D817E818F81988515
:1037200020E432E44FE050E00E94984AD601169619
:103730002D933D934D935C9319970E94984CEDB750
:10374000FEB73A960FB6F894FEBF0FBEEDBFE12F5D
:10375000F0E0CF01880F991F25E0EE0FFF1F2A959B
:10376000E1F7E81BF90BE356F84F60857185828518
:1037700093850E94232A29873A874B875C876D8728
:103780007E878F87988BDE011196FE01399688E03F
:1037900001900D928150E1F78DB79EB70A970FB651
:1037A000F8949EBF0FBE8DBFCDB6DEB60894C11C87
:1037B000D11C84E691E0ADB7BEB712969C938E9370
:1037C000119789819A81AB81BC81F60182839383B1
:1037D000A483B5836D817E818F81988520E432E456
:1037E0004FE050E00E94984AD60116962D933D93E3
:1037F0004D935C9319970E94984CEDB7FEB73A969B
:103800000FB6F894FEBF0FBEEDBF87EF91E00E94A8
:103810005A1100D000D000D086E8C82E81E0D82E02
:10382000ADB7BEB71296DC92CE921197E12FF0E0C1
:10383000CF01880F991FA5E0EE0FFF1FAA95E1F7B2
:10384000E81BF90BE356F84F80899189A289B38967
:10385000EDB7FEB783839483A583B6830E94984C0B
:103860008DB79EB706960FB6F8949EBF0FBE8DBF5C
:1038700084EE91E00E945A1100D000D000D0ADB784
:10388000BEB71296DC92CE921197E12FF0E0CF01F5
:10389000880F991F65E0EE0FFF1F6A95E1F7E81B9F
:1038A000F90BE356F84F808D918DA28DB38DEDB756
:1038B000FEB783839483A583B6830E94984C8DB70B
:1038C0009EB706960FB6F8949EBF0FBE8DBF8BECC9
:1038D00091E00E945A1100D000D0ADB7BEB711964A
:1038E0005AE8C52E51E0D52EEDB7FEB7D282C1827F
:1038F000E12FF0E0CF01880F991F35E0EE0FFF1F99
:103900003A95E1F7E81BF90BE356F84F848D1296D0
:103910008C93129713961C920E94984C0F900F90C4
:103920000F900F908EEA91E00E945A1100D000D0C3
:10393000ADB7BEB71196EDB7FEB7D282C182E12F07
:10394000F0E0CF01880F991F15E0EE0FFF1F1A95C9
:10395000E1F7E81BF90BE356F84F858D12968C932F
:10396000129713961C920E94984C0F900F900F90F4
:103970000F908BEA91E00E945A1160960FB6F8946E
:10398000DEBF0FBECDBFCF91DF911F91FF90EF90B3
:10399000DF90CF90BF90AF909F908F9008958EE86A
:1039A00091E00E945A1180E00E94D01981E00E94AB
:1039B000D01982E00E94D01983E00E94D01984E0DF
:1039C0000E94D0190895FB01853008F0CBC0A82FC4
:1039D000B0E09D01220F331F55E0AA0FBB1F5A957F
:1039E000E1F7A21BB30BA356B84F2D913D914D911A
:1039F0005C912083318342835383A82FB0E09D01E3
:103A0000220F331F95E0AA0FBB1F9A95E1F7A21B67
:103A1000B30BA356B84F14962D913D914D915C91E7
:103A200017972483358346835783A82FB0E09D01E1
:103A3000220F331F65E0AA0FBB1F6A95E1F7A21B97
:103A4000B30BA356B84F18962D913D914D915C91B3
:103A50001B972087318742875387A82FB0E09D01AD
:103A6000220F331F45E0AA0FBB1F4A95E1F7A21BA7
:103A7000B30BA356B84F1C962D913D914D915C917F
:103A80001F972487358746875787A82FB0E09D0169
:103A9000220F331F75E0AA0FBB1F7A95E1F7A21B17
:103AA000B30BA356B84F50962D913D914D915C911B
:103AB0005397208B318B428B538BA82FB0E09D0105
:103AC000220F331F55E0AA0FBB1F5A95E1F7A21B27
:103AD000B30BA356B84F54962D913D914D915C91E7
:103AE0005797248B358B468B578BA82FB0E09D01C1
:103AF000220F331F95E0AA0FBB1F9A95E1F7A21B77
:103B0000B30BA356B84F58962D913D914D915C91B2
:103B10005B97208F318F428F538FA82FB0E09D018C
:103B2000220F331F65E0AA0FBB1F6A95E1F7A21BA6
:103B3000B30BA356B84F5C969C91948FA82FB0E01E
:103B4000CD01880F991F45E0AA0FBB1F4A95E1F7E9
:103B5000A81BB90BA356B84F5D968C915D97858FC6
:103B600081E008958FEF0895E0916107F091620779
:103B700084870895E0916107F09162078485089534
:103B8000FF920F931F93F82E062F80E092E00E9481
:103B9000D1138F5F809312038F3F11F410921203A1
:103BA0002091120316E0219F90011124C9018F5F1B
:103BB0009D4F6F2D0E94D41380911203819FC001ED
:103BC00011248E5F9D4F602F0E94D41380911203A9
:103BD000819FC001112420915807309159074091CD
:103BE0005A0750915B07252F3327442755278D5FB0
:103BF0009D4F622F0E94D41380911203819FC001B8
:103C00001124209158073091590740915A0750913B
:103C10005B079A01442755278C5F9D4F622F0E94B6
:103C2000D41380911203819FC00111242091580761
:103C30003091590740915A0750915B07232F342F39
:103C4000452F55278B5F9D4F622F0E94D413809183
:103C50001203819FC00111248A5F9D4F6091580714
:103C60000E94D41380E092E0609112030E94D4136A
:103C70001F910F91FF90089520912A05222341F072
:103C8000FB0120832091CE03FC01208381E0089575
:103C900080E0089580912A05882309F49BC086EA74
:103CA00094E00E945A1100D000D0EDB7FEB73196D3
:103CB0008DE891E0ADB7BEB712969C938E931197A5
:103CC0008091CE03828313820E94984C0F900F90B4
:103CD0000F900F9082EA94E00E945A1180912A0579
:103CE000883110F010922A0580912A0590E0019702
:103CF0008631910508F04BC08A5B9F4FFC01EE0FA7
:103D0000FF1F0590F491E02D099486E694E041C0F0
:103D10008FE394E03EC08BE294E03BC085E194E009
:103D200038C08AEF93E035C084EE93E032C08CEC6B
:103D300093E02FC089EB93E02CC086EA93E029C082
:103D400088E893E026C083E693E023C087E593E00C
:103D500020C08CE393E01DC08DE293E01AC089E19E
:103D600093E017C088E093E014C084EF92E011C0A4
:103D700084ED92E00EC08CEB92E00BC081EA92E001
:103D800008C080E992E005C081E892E002C08AE7BD
:103D900092E00E945A1160916108709162088DE072
:103DA00090E00E946C4C60916108709162088AE01A
:103DB00090E00E946C4C80912A05803149F083315B
:103DC00039F0843129F00E94DE300E947214FFCF56
:103DD00010922A0580E008951F93182F80932A05DA
:103DE0006093CE030E94C01D0E944A1E103149F00C
:103DF000133139F0143129F00E94DE300E94721420
:103E0000FFCF1F91089580932A05E0916107F091FB
:103E1000620760856093CE030E94C01D0E944A1E07
:103E20000895DF93CF930F92CDB7DEB7198207C005
:103E300080ED97E00E94032F89818F5F89838981BC
:103E40008436B0F30F90CF91DF91089581E090E038
:103E50000E945F130E94111F81E090E00E942813CE
:103E60000E94111F089581E090E00E945F130E945C
:103E7000111F0E94111F0E94111F81E090E00E94FB
:103E800028130E94111F0895FF920F931F93DF9331
:103E9000CF9300D00F92CDB7DEB700D000D000D0C6
:103EA000EDB7FEB731968E010F5F1F4FADB7BEB7AE
:103EB00012961C930E9311972DE831E033832283E1
:103EC000848315820E94AA4CEDB7FEB736960FB6D2
:103ED000F894FEBF0FBEEDBFFF2472C0800F911F8C
:103EE000DC018C918433D1F1853370F48133F9F0A6
:103EF000823320F4803309F05CC016C0823311F1A4
:103F0000833309F056C023C08733C9F1883330F4B6
:103F1000853369F1863309F04CC02CC08833B1F188
:103F2000893309F046C03BC00E94331F02C00E9483
:103F3000261F0E94331F0E94331F0E94331F0E94BE
:103F4000331F37C00E94261F0E94261FF4CF0E94F5
:103F5000261F0E94261F0E94261FEFCF0E94261FA9
:103F60000E94261F0E94261F0E94261FE8CF0E9443
:103F7000261F02C00E94331F0E94261F04C00E94F9
:103F8000331F0E94331F0E94261F06C00E94331F4A
:103F90000E94331F0E94331F0E94261F08C00E94E8
:103FA000331F0E94331F0E94331F0E94331F0E9441
:103FB000261F0E94111F0E94111F0E94111FF394BF
:103FC000F80101900020E9F73197E01BF10B8F2DEC
:103FD00090E08E179F0708F481CF0F900F900F90FD
:103FE000CF91DF911F910F91FF9008954F925F92B3
:103FF0006F927F928F929F92AF92BF92CF92DF92F9
:10400000EF92FF920F931F93CF93DF9382EB94E095
:104010000E945A1100D000D080E991E0ADB7BEB740
:1040200012969C938E931197E0916107F09162072D
:104030008085992787FD909514969C938E9313976E
:104040000E94984CE0916107F0916207C281D38190
:1040500089E991E0EDB7FEB792838183D483C3836E
:104060000E94984CEDB7FEB7319646EAE42E41E047
:10407000F42EADB7BEB71296FC92EE9211978881DE
:10408000828313820E94984C33EBC32E31E0D32EEF
:10409000EDB7FEB7D282C182E0916107F09162076D
:1040A00080819181ADB7BEB714969C938E93139780
:1040B0000E94984C2DEBA22E21E0B22EEDB7FEB758
:1040C000B282A18280916107909162079483838379
:1040D0000E94984C04E716E00F900F900F900F90FD
:1040E000C0E0D0E09DEC492E91E0592E9E2C6F2C23
:1040F0007C2C8D2CC501BA2CA92E87E2C82ED12C80
:10410000D8011296ED90FC90139700D000D000D00B
:10411000EDB7FEB73196ADB7BEB712965C924E9230
:104120001197D383C283F582E4820E94984C0F904A
:104130000F90EDB7FEB73196ADB7BEB711969C9212
:10414000119712966C92D7018C91828313820E94F0
:10415000984CEDB7FEB771828282D8018D919C9107
:10416000948383830E94984CEDB7FEB7B182A282FC
:10417000CC9DC001CD9D900DDC9D900D11248C58DF
:10418000994F948383830E94984C2196095D1F4F19
:104190000F900F900F900F90C530D10509F0B0CF60
:1041A000DF91CF911F910F91FF90EF90DF90CF9013
:1041B000BF90AF909F908F907F906F905F904F9047
:1041C0000895CF93DF93E0916107F0916207C28178
:1041D000D3818881853539F00E94F61F81E00E94E5
:1041E000031F85E58883E0916107F0916207808174
:1041F000918121E18030920728F00E94F61F82E130
:104200000E94031FDF91CF910895992787FD909514
:1042100027E230E0829FF001839FF00D929FF00D26
:104220001124EC58F94FA281B3818C91853519F096
:1042300085E58C9309C08081918121E180309207CE
:1042400028F082E10E94031F8FEF089581E0089516
:10425000609178047091790480917A0490917B0444
:10426000E0E0F0E09B01AC010E2E04C056954795AE
:10427000379527950A94D2F720FD1AC021E030E047
:1042800040E050E00E2E04C0220F331F441F551F84
:104290000A94D2F7262B372B482B592B20937804DE
:1042A0003093790440937A0450937B048E2F0895C1
:1042B0003196E032F105B1F68FEF0895E091610794
:1042C000F091620765857685878590890895DF92EC
:1042D000EF92FF920F931F93D82E81E0E82EF12CDE
:1042E000012D112D0D2C04C0EE0CFF1C001F111F01
:1042F0000A94D2F78091780490917904A0917A047D
:10430000B0917B048E219F21A023B1230097A105AA
:10431000B10509F45DC00E947214EBE7F6E0A80154
:104320009701209530954095509563E081818F3FAE
:1043300039F186819781A085B1858E159F05A007EB
:10434000B10731F4128613861486158610826283B3
:1043500086819781A085B18582239323A423B523E9
:1043600086839783A087B18782859385A485B58549
:1043700082239323A423B52382879387A487B587B9
:10438000B79687E0EE33F80789F62EEF3FEF4FEF51
:104390005FEF04C0220F331F441F551FDA94D2F77A
:1043A0008091780490917904A0917A04B0917B0473
:1043B00082239323A423B5238093780490937904D4
:1043C000A0937A04B0937B040E94741481E001C02E
:1043D0008FEF1F910F91FF90EF90DF900895EF9274
:1043E000FF920F931F9321E030E040E050E004C0C3
:1043F000220F331F441F551F8A95D2F7E0916107A2
:10440000F091620785859685A785B08979018A0133
:10441000E822F9220A231B23E114F1040105110506
:10442000D1F0209530954095509582239323A42375
:10443000B52385879687A787B08B81899289A389C1
:10444000B48982239323A423B523818B928BA38BDE
:10445000B48B81E001C08FEF1F910F91FF90EF901F
:104460000895209178043091790440917A04509114
:104470007B04082E04C056954795379527950A94D6
:10448000D2F72170307021153105E9F0E091610714
:10449000F091620721E030E040E050E004C0220FDC
:1044A000331F441F551F8A95D2F785859685A785AA
:1044B000B089822B932BA42BB52B85879687A78752
:1044C000B08B81E008958FEF0895EF92FF920F93E4
:1044D0001F93DF93CF930F92CDB7DEB791E0E92E14
:1044E000F12C012D112D04C0EE0CFF1C001F111F1B
:1044F0008A95D2F78091780490917904A0917A04FA
:10450000B0917B048E219F21A023B1230097A105A8
:10451000B10511F481E03FC00E947214EBE7F6E0B0
:1045200020E033E080818130A9F482859385A485E1
:10453000B5858E219F21A023B1230097A105B10548
:1045400049F03283178616861082E286F386048746
:10455000158721E08081823091F482859385A4853E
:10456000B5858E159F05A007B10749F432831786DC
:1045700016861082128613861486158621E0B79659
:1045800087E0EE33F80771F629830E9474142981BD
:10459000222329F482E00E94B41D8FEF01C081E044
:1045A0000F90CF91DF911F910F91FF90EF900895A1
:1045B000E0916107F091620725853685478550892E
:1045C0002623372348235923211531054105510559
:1045D00021F1618B728B838B948B21E02783009078
:1045E000490704C096958795779567950A94D2F701
:1045F000617070706115710519F00E94B92604C0D0
:1046000080E090E00E94E026E0916107F09162076F
:10461000218932894389548903C020E030E0A9010F
:10462000B901CA01089540916007453008F100D0F2
:1046300000D000D0EDB7FEB731968EED91E0ADB76A
:10464000BEB712969C938E9311974283138285E096
:1046500090E0958384830E94984C8DB79EB7069610
:104660000FB6F8949EBF0FBE8DBF20E030E019C09A
:10467000E9E3F7E020E090819F3F21F02F5F339640
:104680002530C9F730E0F901EE0FFF1FE20FF31FED
:10469000E75CF84F8283808361834F5F40936007BC
:1046A0009F01C9010895BC0120E030E0822FA901DB
:1046B000440F551F420F531F475C584F641775072F
:1046C00031F02F5F3F4F2530310581F78FEF08958F
:1046D0000E9453238F3F11F481E003C0853029F4F9
:1046E00082E00E94B41D8FEF0895992787FD909571
:1046F000FC01EE0FFF1FE80FF91FE75CF84F8FEF8B
:1047000080838283818380916007815080936007DA
:1047100081E008950E9453238F3F11F481E003C08C
:10472000853029F482E00E94B41D8FEF0895992707
:1047300087FD9095FC01EE0FFF1FE80FF91FE75C66
:10474000F84F82810895EAE3F7E08FE7918197FDC2
:1047500004C0908198170CF4892F339697E0E934C0
:10476000F907A1F7992787FD90959093AC05809361
:10477000AB0508950F931F93DF93CF930F92CDB79F
:10478000DEB70E9453238F3F11F481E003C08530D0
:1047900029F482E00E94B41D8FEF45C0282F3327F3
:1047A00027FD30958901000F111F020F131F075CB1
:1047B000184FD80112962C9112979C91291784F5C5
:1047C00089830E947214F80192819F5F9283E09125
:1047D0006107F09162071482EBE7F6E0898199277F
:1047E00087FD9095A92FB92F63E02081223089F4AD
:1047F0002285338544855585281739074A075B0785
:1048000041F46283178616861082128613861486F8
:104810001586B79627E0EE33F20739F70E94741435
:104820000E94A32381E00F90CF91DF911F910F9100
:1048300008950F931F93DF93CF930F92CDB7DEB7F9
:104840000E9453238F3F11F481E003C0853029F487
:1048500082E00E94B41D8FEF42C089830E947214CF
:104860008981082F112707FD1095F801EE0FFF1F12
:10487000E00FF11FE75CF84F92819923B1F4E091CA
:104880006107F0916207978192609783992787FD6E
:104890009095A92FB92F818B928BA38BB48B0E94FB
:1048A000741480E090E00E94E026F801EE0FFF1FF4
:1048B000E00FF11FE75CF84F828181508283A09165
:1048C0006107B091620781811B968C931B9781E0F1
:1048D00014968C930E9474140E94A32381E00F907D
:1048E000CF91DF911F910F910895E0915607F091BC
:1048F00057074091AB055091AC0527E230E080812D
:10490000682F70E0629FD001639FB00D729FB00D61
:104910001124AC58B94F91966C91919770E064173F
:10492000750724F00380F481E02DE9CF0895E0912C
:104930005607F091570703C00380F481E02D3097AC
:10494000D9F70895CF92DF92EF92FF920F931F93C2
:10495000CF93DF93E0917206F0917306309709F4DC
:1049600091C020915607309157072115310509F460
:104970004DC0D90167E270E0482F552747FD50959B
:10498000469FE001479FD00D569FD00D1124CC5873
:10499000D94FAE014B5E5F4F9BE1E92EF12CEC0E3F
:1049A000FD1E0C910023A1F110E0069F6001079FFE
:1049B000D00C169FD00C1124C4E7D6E0CC0EDD1E1F
:1049C000E6010D891E890115110581F4EA010881AE
:1049D00019810115110599F4E70108811981E60192
:1049E000CB8CDC8C0C151D0550F412C0EA01C8807C
:1049F000D980C114D10461F0C016D10648F01396D5
:104A00000D90BC91A02D109761F602C0A0E0B0E01F
:104A10008083C381D481D0937306C0937206A2179A
:104A2000B307B1F4109749F0B483A38312821182C3
:104A30001296FC93EE93119706C014821382128291
:104A40001182FA83E983F0935707E09356071AC05F
:104A500011968D919C911297AC17BD0759F09283D6
:104A60008183B483A3831196CD91DC911297FC834B
:104A7000EB8304C014821382928381831296FC9389
:104A8000EE931197DF91CF911F910F91FF90EF90CF
:104A9000DF90CF900895CF93DF93E0915607F09188
:104AA0005707309709F444C0992787FD90952081D6
:104AB00030E02817390781F4A381B481B0935707F8
:104AC000A093560712961C921E92119718C003804D
:104AD000F481E02D309761F1208130E0281739070B
:104AE000B1F7C181D281838194819C838B83A3811F
:104AF000B481109721F01296DC93CE931197A09178
:104B00007206B0917306109739F4F0937306E09330
:104B10007206148213820AC0B483A3831296FC9394
:104B2000EE931197F0937306E0937206128211824E
:104B3000DF91CF910895EF92FF920F931F93CF9340
:104B4000DF93EC0169817A814B815C818D819E814B
:104B50000E941131BC018F81882369F04B815C81F7
:104B6000CE0120E030E000E010E0EE24FF240E94BF
:104B7000FB151F8215C02881332727FD309587E25A
:104B800090E0289FF001299FF00D389FF00D11242F
:104B9000EC58F94F8185833009F04AC071836083F6
:104BA0002881332727FD309587E290E0289FF00188
:104BB000299FF00D389FF00D1124EC58F94F85898D
:104BC0009689009729F482E0818788810E94A22437
:104BD000DE01939680E090E027E230E061E05D91B5
:104BE0004881552381F0552747FD5095429FF0019C
:104BF000439FF00D529FF00D1124EC58F94FE80F30
:104C0000F91F62A30FC0552747FD5095429FF00141
:104C1000439FF00D529FF00D1124EC58F94FE80F0F
:104C2000F91F12A2019685309105C9F681E001C0F5
:104C30008FEFDF91CF911F910F91FF90EF9008952B
:104C40001F93DF93CF93CDB7DEB728970FB6F894B5
:104C5000DEBF0FBECDBF29833A834B835C836D8358
:104C60007E838F8398870E9472140E949A2F182F38
:104C7000CE0101960E9494299C018330910560F039
:104C8000E0916107F0916207210F311D368B258B72
:104C90000E94741481E001C08FEF28960FB6F8943B
:104CA000DEBF0FBECDBFCF91DF911F9108950E944F
:104CB0000631E0916107F091620785818823B9F799
:104CC0000895FF920F931F93DF93CF93CDB7DEB775
:104CD00028970FB6F894DEBF0FBECDBF29833A8365
:104CE0004B835C836D837E838F8398870E94E12052
:104CF0000E947214E0916107F091620781E0858360
:104D000081E090E090A3878F0E949A2FF82ECE0129
:104D100001960E949429E0916107F09162070F2D9E
:104D200010E09801280F391F368B258B8F2D883F77
:104D300078F40E94942F0F5F1F4F282F30E0021746
:104D4000130734F48F2D8E5F809329050E94972FCF
:104D50000E9474140E94572681E028960FB6F8949A
:104D6000DEBF0FBECDBFCF91DF911F910F91FF909E
:104D700008951F930E947214E0916107F0916207F9
:104D800081E0858386830E949A2F182F883F88F4BC
:104D90000E94942F212F30E02F5F3F4F482F50E08B
:104DA0002417350734F4812F8E5F809329050E94E4
:104DB000972F0E9474140E94572681E01F91089536
:104DC0001F93CF93DF93EC010E947214E09161076F
:104DD000F091620781E08583D68BC58B0E949A2F64
:104DE000182F883F88F40E94942F212F30E02F5FE6
:104DF0003F4F482F50E02417350734F4812F8E5F42
:104E0000809329050E94972F0E9474140E945726B0
:104E100081E0DF91CF911F910895EF92FF920F9360
:104E20001F93DF93CF930F92CDB7DEB78C010E9413
:104E30007214E0916107F091620781E085830E941E
:104E40009A2FE0916107F0916207E82EFF240E0D82
:104E50001F1D168B058B883F90F489830E94942F29
:104E60000894E11CF11C282F30E09981E216F3062A
:104E700034F4892F8E5F809329050E94972F0E941A
:104E800074140E94572681E00F90CF91DF911F91FB
:104E90000F91FF90EF9008951F93CF93DF93EC0154
:104EA0000E94E120209711F4C1E0D0E00E9472142A
:104EB000E0916107F091620781E08583D0A3C78FFD
:104EC0000E949A2F182F883F88F40E94942F212F38
:104ED00030E02F5F3F4F482F50E02417350734F460
:104EE000812F8E5F809329050E94972F0E94741452
:104EF0000E94572681E0DF91CF911F9108951F9363
:104F00000E94E1200E947214E0916107F091620713
:104F100081E090E090A3878F81E085830E949A2FA3
:104F2000182F883F88F40E94942F212F30E02F5FA4
:104F30003F4F482F50E02417350734F4812F8E5F00
:104F4000809329050E94972F0E9474140E9457266F
:104F500081E01F910895E0916107F09162078085DB
:104F60000E944B25E0916107F091620784E0818700
:104F70000E947F2781E008958F929F92AF92BF9207
:104F8000CF92DF92EF92FF920F931F93DF93CF9315
:104F9000CDB7DEB760970FB6F894DEBF0FBECDBFBA
:104FA00029873A874B875C876D877E878F87988BA9
:104FB000CE0101960E941828CE01099609851A850E
:104FC0002B853C854D855E856F85788989809A80A3
:104FD000AB80BC80CD80DE80EF80F8840E94762894
:104FE0008F3F61F029853A854B855C856D857E858F
:104FF0008F8598890E94612681E001C08FEF6096BD
:105000000FB6F894DEBF0FBECDBFCF91DF911F91D9
:105010000F91FF90EF90DF90CF90BF90AF909F9057
:105020008F900895E0916107F0916207808508955F
:10503000EF92FF920F931F93CF93DF93EC011C82AB
:105040001D821E821F828091580790915907A0915E
:105050005A07B0915B0788839983AA83BB83E0904A
:105060005C07F0905D0700915E0710915F07EC828E
:10507000FD820E831F830E949A2F682F70E080E0CC
:1050800090E023EB36EE4EE050E00E94654A6E0D54
:105090007F1D801F911F6C837D838E839F8313C030
:1050A00080509A4CAA49BB438C839D83AE83BF83B7
:1050B00088819981AA81BB810196A11DB11D888338
:1050C0009983AA83BB838C819D81AE81BF8180300F
:1050D0002AEC92072AE9A2072BE3B20708F7DF912F
:1050E000CF911F910F91FF90EF9008958F929F9213
:1050F000AF92BF92CF92DF92EF92FF920F931F93E6
:10510000DF93CF93CDB7DEB760970FB6F894DEBFCD
:105110000FBECDBFFC0109831A832B833C834D83D3
:105120005E836F83788789869A86AB86BC86CD86B8
:10513000DE86EF86F88AE980FA800B811C812D815A
:105140003E814F815885A984BA84CB84DC848D85C7
:105150009E85AF85B889EA14FB040C051D0508F48B
:1051600040C0AE14BF04C006D10691F42817390719
:105170004A075B07B0F1281B390B4A0B5B0B2483F2
:10518000358346835783108211821282138227C08F
:10519000281739074A075B0790F40894E108F108DB
:1051A00001091109EA18FB080C091D09E082F182C6
:1051B00002831383205036434546544C08C0EA18F6
:1051C000FB080C091D09E082F18202831383281B6E
:1051D000390B4A0B5B0B248335834683578381E06D
:1051E00001C08FEF60960FB6F894DEBF0FBECDBF43
:1051F000CF91DF911F910F91FF90EF90DF90CF90B3
:10520000BF90AF909F908F900895FC0114C02050E4
:105210003A4C4A495B432483358346835783208134
:105220003181428153812F5F3F4F4F4F5F4F20832A
:1052300031834283538324813581468157812030D5
:105240008AEC38078AE948078BE3580700F7089586
:105250008F929F92AF92BF92CF92DF92EF92FF9286
:105260000F931F93DF93CF93CDB7DEB760970FB641
:10527000F894DEBF0FBECDBF09831A832B833C8316
:105280004D835E836F83788789869A86AB86BC86DA
:10529000CD86DE86EF86F88A29853A854B855C8542
:1052A000E980FA800B811C812E0D3F1D401F511F8C
:1052B000FC0120833183428353832D853E854F85B6
:1052C0005889ED80FE800F8118852E0D3F1D401FEF
:1052D000511F24833583468357830E94052981E02B
:1052E00060960FB6F894DEBF0FBECDBFCF91DF91B1
:1052F0001F910F91FF90EF90DF90CF90BF90AF90F4
:105300009F908F90089560935807709359078093EA
:105310005A0790935B0720935C0730935D07409397
:105320005E0750935F0708958F929F92AF92BF924E
:10533000CF92DF92EF92FF920F931F93FC01208197
:1053400031814281538164817581868197812115E4
:1053500031054105510509F461C02234310541058B
:10536000510508F062C05B016C01EE24FF24870147
:1053700060E038C08A2CAB2DA653F1E0AB1508F0E5
:10538000F0E08C2D865691E08C1508F090E0F80F37
:1053900071E0F81708F070E0972B7D2D755CE1E067
:1053A0007D1508F0E0E0970F81E0971708F080E0A6
:1053B0008E2B8E0DE1E08E1508F0E0E0EF0D71E030
:1053C000EF1508F070E0700FB1E0701708F0B0E072
:1053D000B10FA82CBA2ECF2ED92EE82EFE2E072FD5
:1053E0001B2F6F5F862F90E0A0E0B0E0821793073D
:1053F000A407B50708F4BECF9501A601B701C801FF
:10540000A3EBAA2EF6EEBF2EEEE0CE2EDD24EE2488
:10541000FF2400E010E00E94E93C09C023EB36EED7
:105420004EE050E00E94984A02C020E030E0C901FE
:105430001F910F91FF90EF90DF90CF90BF90AF90B2
:105440009F908F900895EF92FF920F931F93DF9399
:10545000CF93CDB7DEB728970FB6F894DEBF0FBE57
:10546000CDBF7B018C01BAE016950795F794E794C0
:10547000BA95D1F7E982FA820B831C83737080702E
:10548000907023EB36EE4EE050E00E94654A6D834B
:105490007E838F8398872E2D3A814B815C8128965D
:1054A0000FB6F894DEBF0FBECDBFCF91DF911F9135
:1054B0000F91FF90EF9008958F929F92AF92BF92BD
:1054C000CF92DF92EF92FF920F931F93FC01208106
:1054D0003181428153816481758186819781211553
:1054E00031054105510509F45BC05B016C01EE24F7
:1054F000FF24870160E038C08A2CAB2DA653F1E071
:10550000AB1508F0F0E08C2D865691E08C1508F074
:1055100090E0F80F71E0F81708F070E0972B7D2D00
:10552000755CE1E07D1508F0E0E0970F81E09717EA
:1055300008F080E08E2B8E0DE1E08E1508F0E0E0A3
:10554000EF0D71E0EF1508F070E0700FB1E070172B
:1055500008F0B0E0B10FA82CBA2ECF2ED92EE82E2D
:10556000FE2E072F1B2F6F5F862F90E0A0E0B0E08C
:1055700082179307A407B50708F4BECF9501A601CB
:10558000B701C801E3EBAE2E06EEB02E1EE0C12E31
:10559000DD24EE24FF2400E010E00E94E93C06C078
:1055A00023EB36EE4EE050E00E94984AB901CA0162
:1055B0001F910F91FF90EF90DF90CF90BF90AF9031
:1055C0009F908F9008950F931F9301E012E00E9427
:1055D000E1200E94942F853128F4009355070E9402
:1055E000063108C08AE090E00E94032F109355070F
:1055F0000E94FA3080912B05853519F088E00E94D1
:10560000031F80917E10853511F388E00E94031FEF
:10561000DECF4F925F926F927F928F929F92AF9266
:10562000BF92CF92DF92EF92FF920F931F93DF937F
:10563000CF930F92CDB7DEB70E94932F0E947214C2
:105640008AEF0E94972F0E94F3300E94932D0091C1
:105650002905602F70E080E090E023EB36EE4EE00D
:1056600050E00E94654A6B017C0180915C0790913B
:105670005D07A0915E07B0915F07C80ED91EEA1EB4
:10568000FB1EC701B6010E94984AC61AD70AE80A4B
:10569000F90AC0925C07D0925D07E0925E07F09233
:1056A0005F07E0916107F09162078085882381F5AB
:1056B00080915507823019F4802F0E940617E091DF
:1056C0006107F09162078085609129050E94EB17C0
:1056D000E0916107F0916207808560E00E94B81850
:1056E0008091580790915907A0915A07B0915B0794
:1056F000C0905C07D0905D07E0905E07F0905F0778
:1057000063EB862E66EE962E6EE0A62EB12C1DC0A3
:105710009581992311F0602FE1CF602F0E94EB1744
:10572000DFCF80E096E3A5E6B4ECC80ED91EEA1EF2
:10573000FB1EC701B601A50194010E94984AC61A32
:10574000D70AE80AF90AD301C2012C013D010894E5
:10575000411C511C611C711CE0E0CE16EAECDE0617
:10576000EAE9EE06EBE3FE06E0F680935807909335
:105770005907A0935A07B0935B07C0925C07D09279
:105780005D07E0925E07F0925F07E0916107F0919C
:10579000620785818823B9F081858430A1F08781F3
:1057A000823029F0882341F08681882311F485E036
:1057B00001C083E0818704C083E08187178216825D
:1057C00080850E944B25E0916107F0916207858DED
:1057D000968D0097E9F180858823D1F191859430E9
:1057E000B9F1418D528D2091290530E042175307C0
:1057F00088F40E944317E0916107F091620782E00C
:1058000060850E94EC1EE0916107F0916207128EA4
:10581000118E04C0421B530B528F418FE0916107E0
:10582000F09162070085218D328D2115310581F4BB
:10583000802F0E94431783E0602F0E94EC1EE091AE
:105840006107F091620783E08187802F0E944B25DA
:1058500059E7652E56E0752E00E61AEE20E041E08D
:10586000442E512C3AEFC32ED12C92E0F92E81E038
:10587000882E912CA12CB12CD30113968C911397C7
:105880008F3F09F4C4C01C92882309F443C01496C6
:105890008C9114978430F1F150964D915C91519711
:1058A0008091290590E04817590738F0481B590B9B
:1058B00051965C934E93509703C0F301118A108A5E
:1058C000D30152964D915C9153974817590738F080
:1058D000481B590B53965C934E93529712C0F30199
:1058E000668977898617970728F4681B790B738B6D
:1058F000628B07C00E94844AD30153969C938E9377
:105900005297F30182899389009721F486899789B8
:10591000938B828BD30114968C911497833009F06A
:1059200076C050968D919C915197009709F066C072
:1059300012968C9112978823A9F011968C91119749
:10594000882381F0D501C4010090490704C0880F65
:10595000991FAA1FBB1F0A94D2F7F301848795876A
:10596000A687B787D30112961C92129711961C92A4
:1059700011971C925A964D915C915B9756968D911A
:105980009C91579758966D917C915997413051054C
:10599000D9F455967C936E9354971496FC92149771
:1059A00052964D915C91539751965C934E935097BC
:1059B000009721F45196DC92CE925097822F298342
:1059C0000E94A22429811AC0F301758B648BBA014D
:1059D00061507040689FA001699F500D789F500DE5
:1059E0001124518B408B538B428B009711F4D18A39
:1059F000C08AD3015B965C924E925A97F3018089DC
:105A00009189009721F08017910708F48C012F5F8E
:105A100087E290E0680E791E253009F02DCFE091E5
:105A20006107F091620780850E9486170E947524A5
:105A3000F82E482F552747FD509527E230E0429F2A
:105A4000F001439FF00D529FF00D1124EC58F94FD7
:105A5000828580936307F0934B07E0934A07FF200A
:105A600099F0258D368D2115310551F0218D328D1E
:105A70002A3F310528F420173107F8F489011DC0A9
:105A80000B3F1105D0F014C005311105B0F098019D
:105A9000245130402A3F310538F489012331310542
:105AA00060F403E110E009C091E00E30190719F02D
:105AB0000AEF10E002C006EE10E080935407F09366
:105AC0006207E0936107009329050E949A2F282F0F
:105AD00030E02F5F3F4F2017310740F00E949A2F90
